{
  "_format": "hh-sol-artifact-1",
  "contractName": "LazyNFT",
  "sourceName": "contracts/LazyNFT.sol",
  "abi": [
    {
      "inputs": [
        {
          "internalType": "address payable",
          "name": "minter",
          "type": "address"
        }
      ],
      "stateMutability": "nonpayable",
      "type": "constructor"
    },
    {
      "anonymous": false,
      "inputs": [
        {
          "indexed": true,
          "internalType": "address",
          "name": "owner",
          "type": "address"
        },
        {
          "indexed": true,
          "internalType": "address",
          "name": "approved",
          "type": "address"
        },
        {
          "indexed": true,
          "internalType": "uint256",
          "name": "tokenId",
          "type": "uint256"
        }
      ],
      "name": "Approval",
      "type": "event"
    },
    {
      "anonymous": false,
      "inputs": [
        {
          "indexed": true,
          "internalType": "address",
          "name": "owner",
          "type": "address"
        },
        {
          "indexed": true,
          "internalType": "address",
          "name": "operator",
          "type": "address"
        },
        {
          "indexed": false,
          "internalType": "bool",
          "name": "approved",
          "type": "bool"
        }
      ],
      "name": "ApprovalForAll",
      "type": "event"
    },
    {
      "anonymous": false,
      "inputs": [
        {
          "indexed": true,
          "internalType": "bytes32",
          "name": "role",
          "type": "bytes32"
        },
        {
          "indexed": true,
          "internalType": "bytes32",
          "name": "previousAdminRole",
          "type": "bytes32"
        },
        {
          "indexed": true,
          "internalType": "bytes32",
          "name": "newAdminRole",
          "type": "bytes32"
        }
      ],
      "name": "RoleAdminChanged",
      "type": "event"
    },
    {
      "anonymous": false,
      "inputs": [
        {
          "indexed": true,
          "internalType": "bytes32",
          "name": "role",
          "type": "bytes32"
        },
        {
          "indexed": true,
          "internalType": "address",
          "name": "account",
          "type": "address"
        },
        {
          "indexed": true,
          "internalType": "address",
          "name": "sender",
          "type": "address"
        }
      ],
      "name": "RoleGranted",
      "type": "event"
    },
    {
      "anonymous": false,
      "inputs": [
        {
          "indexed": true,
          "internalType": "bytes32",
          "name": "role",
          "type": "bytes32"
        },
        {
          "indexed": true,
          "internalType": "address",
          "name": "account",
          "type": "address"
        },
        {
          "indexed": true,
          "internalType": "address",
          "name": "sender",
          "type": "address"
        }
      ],
      "name": "RoleRevoked",
      "type": "event"
    },
    {
      "anonymous": false,
      "inputs": [
        {
          "indexed": true,
          "internalType": "address",
          "name": "from",
          "type": "address"
        },
        {
          "indexed": true,
          "internalType": "address",
          "name": "to",
          "type": "address"
        },
        {
          "indexed": true,
          "internalType": "uint256",
          "name": "tokenId",
          "type": "uint256"
        }
      ],
      "name": "Transfer",
      "type": "event"
    },
    {
      "inputs": [],
      "name": "DEFAULT_ADMIN_ROLE",
      "outputs": [
        {
          "internalType": "bytes32",
          "name": "",
          "type": "bytes32"
        }
      ],
      "stateMutability": "view",
      "type": "function"
    },
    {
      "inputs": [],
      "name": "MINTER_ROLE",
      "outputs": [
        {
          "internalType": "bytes32",
          "name": "",
          "type": "bytes32"
        }
      ],
      "stateMutability": "view",
      "type": "function"
    },
    {
      "inputs": [
        {
          "internalType": "address",
          "name": "to",
          "type": "address"
        },
        {
          "internalType": "uint256",
          "name": "tokenId",
          "type": "uint256"
        }
      ],
      "name": "approve",
      "outputs": [],
      "stateMutability": "nonpayable",
      "type": "function"
    },
    {
      "inputs": [],
      "name": "availableToWithdraw",
      "outputs": [
        {
          "internalType": "uint256",
          "name": "",
          "type": "uint256"
        }
      ],
      "stateMutability": "view",
      "type": "function"
    },
    {
      "inputs": [
        {
          "internalType": "address",
          "name": "owner",
          "type": "address"
        }
      ],
      "name": "balanceOf",
      "outputs": [
        {
          "internalType": "uint256",
          "name": "",
          "type": "uint256"
        }
      ],
      "stateMutability": "view",
      "type": "function"
    },
    {
      "inputs": [
        {
          "internalType": "uint256",
          "name": "tokenId",
          "type": "uint256"
        }
      ],
      "name": "getApproved",
      "outputs": [
        {
          "internalType": "address",
          "name": "",
          "type": "address"
        }
      ],
      "stateMutability": "view",
      "type": "function"
    },
    {
      "inputs": [],
      "name": "getChainID",
      "outputs": [
        {
          "internalType": "uint256",
          "name": "",
          "type": "uint256"
        }
      ],
      "stateMutability": "view",
      "type": "function"
    },
    {
      "inputs": [
        {
          "internalType": "bytes32",
          "name": "role",
          "type": "bytes32"
        }
      ],
      "name": "getRoleAdmin",
      "outputs": [
        {
          "internalType": "bytes32",
          "name": "",
          "type": "bytes32"
        }
      ],
      "stateMutability": "view",
      "type": "function"
    },
    {
      "inputs": [
        {
          "internalType": "bytes32",
          "name": "role",
          "type": "bytes32"
        },
        {
          "internalType": "address",
          "name": "account",
          "type": "address"
        }
      ],
      "name": "grantRole",
      "outputs": [],
      "stateMutability": "nonpayable",
      "type": "function"
    },
    {
      "inputs": [
        {
          "internalType": "bytes32",
          "name": "role",
          "type": "bytes32"
        },
        {
          "internalType": "address",
          "name": "account",
          "type": "address"
        }
      ],
      "name": "hasRole",
      "outputs": [
        {
          "internalType": "bool",
          "name": "",
          "type": "bool"
        }
      ],
      "stateMutability": "view",
      "type": "function"
    },
    {
      "inputs": [
        {
          "internalType": "address",
          "name": "owner",
          "type": "address"
        },
        {
          "internalType": "address",
          "name": "operator",
          "type": "address"
        }
      ],
      "name": "isApprovedForAll",
      "outputs": [
        {
          "internalType": "bool",
          "name": "",
          "type": "bool"
        }
      ],
      "stateMutability": "view",
      "type": "function"
    },
    {
      "inputs": [],
      "name": "name",
      "outputs": [
        {
          "internalType": "string",
          "name": "",
          "type": "string"
        }
      ],
      "stateMutability": "view",
      "type": "function"
    },
    {
      "inputs": [
        {
          "internalType": "uint256",
          "name": "tokenId",
          "type": "uint256"
        }
      ],
      "name": "ownerOf",
      "outputs": [
        {
          "internalType": "address",
          "name": "",
          "type": "address"
        }
      ],
      "stateMutability": "view",
      "type": "function"
    },
    {
      "inputs": [
        {
          "internalType": "address",
          "name": "redeemer",
          "type": "address"
        },
        {
          "components": [
            {
              "internalType": "uint256",
              "name": "tokenId",
              "type": "uint256"
            },
            {
              "internalType": "uint256",
              "name": "minPrice",
              "type": "uint256"
            },
            {
              "internalType": "string",
              "name": "uri",
              "type": "string"
            },
            {
              "internalType": "bytes",
              "name": "signature",
              "type": "bytes"
            }
          ],
          "internalType": "struct LazyNFT.NFTVoucher",
          "name": "voucher",
          "type": "tuple"
        }
      ],
      "name": "redeem",
      "outputs": [
        {
          "internalType": "uint256",
          "name": "",
          "type": "uint256"
        }
      ],
      "stateMutability": "payable",
      "type": "function"
    },
    {
      "inputs": [
        {
          "internalType": "bytes32",
          "name": "role",
          "type": "bytes32"
        },
        {
          "internalType": "address",
          "name": "account",
          "type": "address"
        }
      ],
      "name": "renounceRole",
      "outputs": [],
      "stateMutability": "nonpayable",
      "type": "function"
    },
    {
      "inputs": [
        {
          "internalType": "bytes32",
          "name": "role",
          "type": "bytes32"
        },
        {
          "internalType": "address",
          "name": "account",
          "type": "address"
        }
      ],
      "name": "revokeRole",
      "outputs": [],
      "stateMutability": "nonpayable",
      "type": "function"
    },
    {
      "inputs": [
        {
          "internalType": "address",
          "name": "from",
          "type": "address"
        },
        {
          "internalType": "address",
          "name": "to",
          "type": "address"
        },
        {
          "internalType": "uint256",
          "name": "tokenId",
          "type": "uint256"
        }
      ],
      "name": "safeTransferFrom",
      "outputs": [],
      "stateMutability": "nonpayable",
      "type": "function"
    },
    {
      "inputs": [
        {
          "internalType": "address",
          "name": "from",
          "type": "address"
        },
        {
          "internalType": "address",
          "name": "to",
          "type": "address"
        },
        {
          "internalType": "uint256",
          "name": "tokenId",
          "type": "uint256"
        },
        {
          "internalType": "bytes",
          "name": "data",
          "type": "bytes"
        }
      ],
      "name": "safeTransferFrom",
      "outputs": [],
      "stateMutability": "nonpayable",
      "type": "function"
    },
    {
      "inputs": [
        {
          "internalType": "address",
          "name": "operator",
          "type": "address"
        },
        {
          "internalType": "bool",
          "name": "approved",
          "type": "bool"
        }
      ],
      "name": "setApprovalForAll",
      "outputs": [],
      "stateMutability": "nonpayable",
      "type": "function"
    },
    {
      "inputs": [
        {
          "internalType": "bytes4",
          "name": "interfaceId",
          "type": "bytes4"
        }
      ],
      "name": "supportsInterface",
      "outputs": [
        {
          "internalType": "bool",
          "name": "",
          "type": "bool"
        }
      ],
      "stateMutability": "view",
      "type": "function"
    },
    {
      "inputs": [],
      "name": "symbol",
      "outputs": [
        {
          "internalType": "string",
          "name": "",
          "type": "string"
        }
      ],
      "stateMutability": "view",
      "type": "function"
    },
    {
      "inputs": [
        {
          "internalType": "uint256",
          "name": "tokenId",
          "type": "uint256"
        }
      ],
      "name": "tokenURI",
      "outputs": [
        {
          "internalType": "string",
          "name": "",
          "type": "string"
        }
      ],
      "stateMutability": "view",
      "type": "function"
    },
    {
      "inputs": [
        {
          "internalType": "address",
          "name": "from",
          "type": "address"
        },
        {
          "internalType": "address",
          "name": "to",
          "type": "address"
        },
        {
          "internalType": "uint256",
          "name": "tokenId",
          "type": "uint256"
        }
      ],
      "name": "transferFrom",
      "outputs": [],
      "stateMutability": "nonpayable",
      "type": "function"
    },
    {
      "inputs": [],
      "name": "withdraw",
      "outputs": [],
      "stateMutability": "nonpayable",
      "type": "function"
    }
  ],
  "bytecode": "0x6101406040523480156200001257600080fd5b5060405162004c5c38038062004c5c8339818101604052810190620000389190620004b0565b6040518060400160405280600f81526020017f4c617a794e46542d566f756368657200000000000000000000000000000000008152506040518060400160405280600181526020017f31000000000000000000000000000000000000000000000000000000000000008152506040518060400160405280600781526020017f4c617a794e4654000000000000000000000000000000000000000000000000008152506040518060400160405280600381526020017f4c415a0000000000000000000000000000000000000000000000000000000000815250816000908051906020019062000128929190620003e9565b50806001908051906020019062000141929190620003e9565b50505060008280519060200120905060008280519060200120905060007f8b73c3c69bb8fe3d512ecc4cf759cc79239f7b179b0ffacaa9a75d522b39400f90508260e081815250508161010081815250504660a08181525050620001ad8184846200023260201b60201c565b608081815250503073ffffffffffffffffffffffffffffffffffffffff1660c08173ffffffffffffffffffffffffffffffffffffffff1660601b8152505080610120818152505050505050506200022b7f9f2df0fed2c77648de5860a4cc508cd0818c85b8b8a1ab4ceeef8d981c8956a6826200026e60201b60201c565b5062000647565b600083838346306040516020016200024f9594939291906200050f565b6040516020818303038152906040528051906020012090509392505050565b6200028082826200028460201b60201c565b5050565b6200029682826200037660201b60201c565b620003725760016007600084815260200190815260200160002060000160008373ffffffffffffffffffffffffffffffffffffffff1673ffffffffffffffffffffffffffffffffffffffff16815260200190815260200160002060006101000a81548160ff02191690831515021790555062000317620003e160201b60201c565b73ffffffffffffffffffffffffffffffffffffffff168173ffffffffffffffffffffffffffffffffffffffff16837f2f8788117e7eff1d82e926ec794901d17c78024a50270940304540a733656f0d60405160405180910390a45b5050565b60006007600084815260200190815260200160002060000160008373ffffffffffffffffffffffffffffffffffffffff1673ffffffffffffffffffffffffffffffffffffffff16815260200190815260200160002060009054906101000a900460ff16905092915050565b600033905090565b828054620003f790620005c8565b90600052602060002090601f0160209004810192826200041b576000855562000467565b82601f106200043657805160ff191683800117855562000467565b8280016001018555821562000467579182015b828111156200046657825182559160200191906001019062000449565b5b5090506200047691906200047a565b5090565b5b80821115620004955760008160009055506001016200047b565b5090565b600081519050620004aa816200062d565b92915050565b600060208284031215620004c357600080fd5b6000620004d38482850162000499565b91505092915050565b620004e7816200056c565b82525050565b620004f88162000594565b82525050565b6200050981620005be565b82525050565b600060a082019050620005266000830188620004ed565b620005356020830187620004ed565b620005446040830186620004ed565b620005536060830185620004fe565b620005626080830184620004dc565b9695505050505050565b600062000579826200059e565b9050919050565b60006200058d826200059e565b9050919050565b6000819050919050565b600073ffffffffffffffffffffffffffffffffffffffff82169050919050565b6000819050919050565b60006002820490506001821680620005e157607f821691505b60208210811415620005f857620005f7620005fe565b5b50919050565b7f4e487b7100000000000000000000000000000000000000000000000000000000600052602260045260246000fd5b620006388162000580565b81146200064457600080fd5b50565b60805160a05160c05160601c60e05161010051610120516145c26200069a6000396000612c2f01526000612c7101526000612c5001526000612b8501526000612bdb01526000612c0401526145c26000f3fe60806040526004361061014b5760003560e01c80636352211e116100b6578063b88d4fde1161006f578063b88d4fde146104a7578063c87b56dd146104d0578063d53913931461050d578063d547741f14610538578063e322ad2b14610561578063e985e9c51461058c5761014b565b80636352211e1461037157806370a08231146103ae57806391d14854146103eb57806395d89b4114610428578063a217fddf14610453578063a22cb4651461047e5761014b565b8063248a9ca311610108578063248a9ca3146102775780632f2ff15d146102b457806336568abe146102dd5780633ccfd60b1461030657806342842e0e1461031d578063564b81ef146103465761014b565b806301ffc9a71461015057806306fdde031461018d578063081812fc146101b857806308708a78146101f5578063095ea7b31461022557806323b872dd1461024e575b600080fd5b34801561015c57600080fd5b50610177600480360381019061017291906131ef565b6105c9565b60405161018491906137ce565b60405180910390f35b34801561019957600080fd5b506101a26105eb565b6040516101af91906138e1565b60405180910390f35b3480156101c457600080fd5b506101df60048036038101906101da9190613241565b61067d565b6040516101ec9190613767565b60405180910390f35b61020f600480360381019061020a91906130fa565b6106c3565b60405161021c9190613b83565b60405180910390f35b34801561023157600080fd5b5061024c6004803603810190610247919061314e565b610862565b005b34801561025a57600080fd5b5061027560048036038101906102709190612ff4565b61097a565b005b34801561028357600080fd5b5061029e6004803603810190610299919061318a565b6109da565b6040516102ab91906137e9565b60405180910390f35b3480156102c057600080fd5b506102db60048036038101906102d691906131b3565b6109fa565b005b3480156102e957600080fd5b5061030460048036038101906102ff91906131b3565b610a1b565b005b34801561031257600080fd5b5061031b610a9e565b005b34801561032957600080fd5b50610344600480360381019061033f9190612ff4565b610be0565b005b34801561035257600080fd5b5061035b610c00565b6040516103689190613b83565b60405180910390f35b34801561037d57600080fd5b5061039860048036038101906103939190613241565b610c08565b6040516103a59190613767565b60405180910390f35b3480156103ba57600080fd5b506103d560048036038101906103d09190612f8f565b610c8f565b6040516103e29190613b83565b60405180910390f35b3480156103f757600080fd5b50610412600480360381019061040d91906131b3565b610d47565b60405161041f91906137ce565b60405180910390f35b34801561043457600080fd5b5061043d610db2565b60405161044a91906138e1565b60405180910390f35b34801561045f57600080fd5b50610468610e44565b60405161047591906137e9565b60405180910390f35b34801561048a57600080fd5b506104a560048036038101906104a091906130be565b610e4b565b005b3480156104b357600080fd5b506104ce60048036038101906104c99190613043565b610e61565b005b3480156104dc57600080fd5b506104f760048036038101906104f29190613241565b610ec3565b60405161050491906138e1565b60405180910390f35b34801561051957600080fd5b50610522610fd6565b60405161052f91906137e9565b60405180910390f35b34801561054457600080fd5b5061055f600480360381019061055a91906131b3565b610ffa565b005b34801561056d57600080fd5b5061057661101b565b6040516105839190613b83565b60405180910390f35b34801561059857600080fd5b506105b360048036038101906105ae9190612fb8565b611062565b6040516105c091906137ce565b60405180910390f35b60006105d4826110f6565b806105e457506105e3826111d8565b5b9050919050565b6060600080546105fa90613e97565b80601f016020809104026020016040519081016040528092919081815260200182805461062690613e97565b80156106735780601f1061064857610100808354040283529160200191610673565b820191906000526020600020905b81548152906001019060200180831161065657829003601f168201915b5050505050905090565b600061068882611252565b6004600083815260200190815260200160002060009054906101000a900473ffffffffffffffffffffffffffffffffffffffff169050919050565b6000806106cf8361129d565b90506106fb7f9f2df0fed2c77648de5860a4cc508cd0818c85b8b8a1ab4ceeef8d981c8956a682610d47565b61073a576040517f08c379a000000000000000000000000000000000000000000000000000000000815260040161073190613b23565b60405180910390fd5b8260200135341015610781576040517f08c379a000000000000000000000000000000000000000000000000000000000815260040161077890613a83565b60405180910390fd5b61078f81846000013561130f565b6107ef83600001358480604001906107a79190613bf5565b8080601f016020809104026020016040519081016040528093929190818152602001838380828437600081840152601f19601f8201169050808301925050505050505061152d565b6107fe818585600001356115a1565b34600860008373ffffffffffffffffffffffffffffffffffffffff1673ffffffffffffffffffffffffffffffffffffffff168152602001908152602001600020600082825461084d9190613cf0565b92505081905550826000013591505092915050565b600061086d82610c08565b90508073ffffffffffffffffffffffffffffffffffffffff168373ffffffffffffffffffffffffffffffffffffffff1614156108de576040517f08c379a00000000000000000000000000000000000000000000000000000000081526004016108d590613b03565b60405180910390fd5b8073ffffffffffffffffffffffffffffffffffffffff166108fd61189b565b73ffffffffffffffffffffffffffffffffffffffff16148061092c575061092b8161092661189b565b611062565b5b61096b576040517f08c379a000000000000000000000000000000000000000000000000000000000815260040161096290613b43565b60405180910390fd5b61097583836118a3565b505050565b61098b61098561189b565b8261195c565b6109ca576040517f08c379a00000000000000000000000000000000000000000000000000000000081526004016109c190613943565b60405180910390fd5b6109d58383836115a1565b505050565b600060076000838152602001908152602001600020600101549050919050565b610a03826109da565b610a0c816119f1565b610a168383611a05565b505050565b610a2361189b565b73ffffffffffffffffffffffffffffffffffffffff168173ffffffffffffffffffffffffffffffffffffffff1614610a90576040517f08c379a0000000000000000000000000000000000000000000000000000000008152600401610a8790613b63565b60405180910390fd5b610a9a8282611ae6565b5050565b610ac87f9f2df0fed2c77648de5860a4cc508cd0818c85b8b8a1ab4ceeef8d981c8956a633610d47565b610b07576040517f08c379a0000000000000000000000000000000000000000000000000000000008152600401610afe90613ac3565b60405180910390fd5b60003390506000600860008373ffffffffffffffffffffffffffffffffffffffff1673ffffffffffffffffffffffffffffffffffffffff1681526020019081526020016000205490506000600860008473ffffffffffffffffffffffffffffffffffffffff1673ffffffffffffffffffffffffffffffffffffffff168152602001908152602001600020819055508173ffffffffffffffffffffffffffffffffffffffff166108fc829081150290604051600060405180830381858888f19350505050158015610bdb573d6000803e3d6000fd5b505050565b610bfb83838360405180602001604052806000815250610e61565b505050565b600046905090565b600080610c1483611bc8565b9050600073ffffffffffffffffffffffffffffffffffffffff168173ffffffffffffffffffffffffffffffffffffffff161415610c86576040517f08c379a0000000000000000000000000000000000000000000000000000000008152600401610c7d90613ae3565b60405180910390fd5b80915050919050565b60008073ffffffffffffffffffffffffffffffffffffffff168273ffffffffffffffffffffffffffffffffffffffff161415610d00576040517f08c379a0000000000000000000000000000000000000000000000000000000008152600401610cf790613a43565b60405180910390fd5b600360008373ffffffffffffffffffffffffffffffffffffffff1673ffffffffffffffffffffffffffffffffffffffff168152602001908152602001600020549050919050565b60006007600084815260200190815260200160002060000160008373ffffffffffffffffffffffffffffffffffffffff1673ffffffffffffffffffffffffffffffffffffffff16815260200190815260200160002060009054906101000a900460ff16905092915050565b606060018054610dc190613e97565b80601f0160208091040260200160405190810160405280929190818152602001828054610ded90613e97565b8015610e3a5780601f10610e0f57610100808354040283529160200191610e3a565b820191906000526020600020905b815481529060010190602001808311610e1d57829003601f168201915b5050505050905090565b6000801b81565b610e5d610e5661189b565b8383611c05565b5050565b610e72610e6c61189b565b8361195c565b610eb1576040517f08c379a0000000000000000000000000000000000000000000000000000000008152600401610ea890613943565b60405180910390fd5b610ebd84848484611d72565b50505050565b6060610ece82611252565b6000600660008481526020019081526020016000208054610eee90613e97565b80601f0160208091040260200160405190810160405280929190818152602001828054610f1a90613e97565b8015610f675780601f10610f3c57610100808354040283529160200191610f67565b820191906000526020600020905b815481529060010190602001808311610f4a57829003601f168201915b505050505090506000610f78611dce565b9050600081511415610f8e578192505050610fd1565b600082511115610fc3578082604051602001610fab9291906136d2565b60405160208183030381529060405292505050610fd1565b610fcc84611de5565b925050505b919050565b7f9f2df0fed2c77648de5860a4cc508cd0818c85b8b8a1ab4ceeef8d981c8956a681565b611003826109da565b61100c816119f1565b6110168383611ae6565b505050565b6000600860003373ffffffffffffffffffffffffffffffffffffffff1673ffffffffffffffffffffffffffffffffffffffff16815260200190815260200160002054905090565b6000600560008473ffffffffffffffffffffffffffffffffffffffff1673ffffffffffffffffffffffffffffffffffffffff16815260200190815260200160002060008373ffffffffffffffffffffffffffffffffffffffff1673ffffffffffffffffffffffffffffffffffffffff16815260200190815260200160002060009054906101000a900460ff16905092915050565b60007f80ac58cd000000000000000000000000000000000000000000000000000000007bffffffffffffffffffffffffffffffffffffffffffffffffffffffff1916827bffffffffffffffffffffffffffffffffffffffffffffffffffffffff191614806111c157507f5b5e139f000000000000000000000000000000000000000000000000000000007bffffffffffffffffffffffffffffffffffffffffffffffffffffffff1916827bffffffffffffffffffffffffffffffffffffffffffffffffffffffff1916145b806111d157506111d082611e4d565b5b9050919050565b60007f7965db0b000000000000000000000000000000000000000000000000000000007bffffffffffffffffffffffffffffffffffffffffffffffffffffffff1916827bffffffffffffffffffffffffffffffffffffffffffffffffffffffff1916148061124b575061124a826110f6565b5b9050919050565b61125b81611eb7565b61129a576040517f08c379a000000000000000000000000000000000000000000000000000000000815260040161129190613ae3565b60405180910390fd5b50565b6000806112a983611ef8565b9050611307818480606001906112bf9190613b9e565b8080601f016020809104026020016040519081016040528093929190818152602001838380828437600081840152601f19601f82011690508083019250505050505050611f83565b915050919050565b600073ffffffffffffffffffffffffffffffffffffffff168273ffffffffffffffffffffffffffffffffffffffff16141561137f576040517f08c379a000000000000000000000000000000000000000000000000000000000815260040161137690613aa3565b60405180910390fd5b61138881611eb7565b156113c8576040517f08c379a00000000000000000000000000000000000000000000000000000000081526004016113bf906139c3565b60405180910390fd5b6113d6600083836001611faa565b6113df81611eb7565b1561141f576040517f08c379a0000000000000000000000000000000000000000000000000000000008152600401611416906139c3565b60405180910390fd5b6001600360008473ffffffffffffffffffffffffffffffffffffffff1673ffffffffffffffffffffffffffffffffffffffff16815260200190815260200160002060008282540192505081905550816002600083815260200190815260200160002060006101000a81548173ffffffffffffffffffffffffffffffffffffffff021916908373ffffffffffffffffffffffffffffffffffffffff160217905550808273ffffffffffffffffffffffffffffffffffffffff16600073ffffffffffffffffffffffffffffffffffffffff167fddf252ad1be2c89b69c2b068fc378daa952ba7f163c4a11628f55a4df523b3ef60405160405180910390a4611529600083836001611fb0565b5050565b61153682611eb7565b611575576040517f08c379a000000000000000000000000000000000000000000000000000000000815260040161156c90613a63565b60405180910390fd5b8060066000848152602001908152602001600020908051906020019061159c929190612deb565b505050565b8273ffffffffffffffffffffffffffffffffffffffff166115c182610c08565b73ffffffffffffffffffffffffffffffffffffffff1614611617576040517f08c379a000000000000000000000000000000000000000000000000000000000815260040161160e906139a3565b60405180910390fd5b600073ffffffffffffffffffffffffffffffffffffffff168273ffffffffffffffffffffffffffffffffffffffff161415611687576040517f08c379a000000000000000000000000000000000000000000000000000000000815260040161167e906139e3565b60405180910390fd5b6116948383836001611faa565b8273ffffffffffffffffffffffffffffffffffffffff166116b482610c08565b73ffffffffffffffffffffffffffffffffffffffff161461170a576040517f08c379a0000000000000000000000000000000000000000000000000000000008152600401611701906139a3565b60405180910390fd5b6004600082815260200190815260200160002060006101000a81549073ffffffffffffffffffffffffffffffffffffffff02191690556001600360008573ffffffffffffffffffffffffffffffffffffffff1673ffffffffffffffffffffffffffffffffffffffff168152602001908152602001600020600082825403925050819055506001600360008473ffffffffffffffffffffffffffffffffffffffff1673ffffffffffffffffffffffffffffffffffffffff16815260200190815260200160002060008282540192505081905550816002600083815260200190815260200160002060006101000a81548173ffffffffffffffffffffffffffffffffffffffff021916908373ffffffffffffffffffffffffffffffffffffffff160217905550808273ffffffffffffffffffffffffffffffffffffffff168473ffffffffffffffffffffffffffffffffffffffff167fddf252ad1be2c89b69c2b068fc378daa952ba7f163c4a11628f55a4df523b3ef60405160405180910390a46118968383836001611fb0565b505050565b600033905090565b816004600083815260200190815260200160002060006101000a81548173ffffffffffffffffffffffffffffffffffffffff021916908373ffffffffffffffffffffffffffffffffffffffff160217905550808273ffffffffffffffffffffffffffffffffffffffff1661191683610c08565b73ffffffffffffffffffffffffffffffffffffffff167f8c5be1e5ebec7d5bd14f71427d1e84f3dd0314c0f7b2291e5b200ac8c7c3b92560405160405180910390a45050565b60008061196883610c08565b90508073ffffffffffffffffffffffffffffffffffffffff168473ffffffffffffffffffffffffffffffffffffffff1614806119aa57506119a98185611062565b5b806119e857508373ffffffffffffffffffffffffffffffffffffffff166119d08461067d565b73ffffffffffffffffffffffffffffffffffffffff16145b91505092915050565b611a02816119fd61189b565b611fb6565b50565b611a0f8282610d47565b611ae25760016007600084815260200190815260200160002060000160008373ffffffffffffffffffffffffffffffffffffffff1673ffffffffffffffffffffffffffffffffffffffff16815260200190815260200160002060006101000a81548160ff021916908315150217905550611a8761189b565b73ffffffffffffffffffffffffffffffffffffffff168173ffffffffffffffffffffffffffffffffffffffff16837f2f8788117e7eff1d82e926ec794901d17c78024a50270940304540a733656f0d60405160405180910390a45b5050565b611af08282610d47565b15611bc45760006007600084815260200190815260200160002060000160008373ffffffffffffffffffffffffffffffffffffffff1673ffffffffffffffffffffffffffffffffffffffff16815260200190815260200160002060006101000a81548160ff021916908315150217905550611b6961189b565b73ffffffffffffffffffffffffffffffffffffffff168173ffffffffffffffffffffffffffffffffffffffff16837ff6391f5c32d9c69d2a47ea670b442974b53935d1edc7fd64eb21e047a839171b60405160405180910390a45b5050565b60006002600083815260200190815260200160002060009054906101000a900473ffffffffffffffffffffffffffffffffffffffff169050919050565b8173ffffffffffffffffffffffffffffffffffffffff168373ffffffffffffffffffffffffffffffffffffffff161415611c74576040517f08c379a0000000000000000000000000000000000000000000000000000000008152600401611c6b90613a03565b60405180910390fd5b80600560008573ffffffffffffffffffffffffffffffffffffffff1673ffffffffffffffffffffffffffffffffffffffff16815260200190815260200160002060008473ffffffffffffffffffffffffffffffffffffffff1673ffffffffffffffffffffffffffffffffffffffff16815260200190815260200160002060006101000a81548160ff0219169083151502179055508173ffffffffffffffffffffffffffffffffffffffff168373ffffffffffffffffffffffffffffffffffffffff167f17307eab39ab6107e8899845ad3d59bd9653f200f220920489ca2b5937696c3183604051611d6591906137ce565b60405180910390a3505050565b611d7d8484846115a1565b611d898484848461203b565b611dc8576040517f08c379a0000000000000000000000000000000000000000000000000000000008152600401611dbf90613983565b60405180910390fd5b50505050565b606060405180602001604052806000815250905090565b6060611df082611252565b6000611dfa611dce565b90506000815111611e1a5760405180602001604052806000815250611e45565b80611e24846121d2565b604051602001611e359291906136d2565b6040516020818303038152906040525b915050919050565b60007f01ffc9a7000000000000000000000000000000000000000000000000000000007bffffffffffffffffffffffffffffffffffffffffffffffffffffffff1916827bffffffffffffffffffffffffffffffffffffffffffffffffffffffff1916149050919050565b60008073ffffffffffffffffffffffffffffffffffffffff16611ed983611bc8565b73ffffffffffffffffffffffffffffffffffffffff1614159050919050565b6000611f7c7f6316f9ddd4d59a364f3b95c26bab9d392c3380ace0fff15e91ed76f0d8bcd15a83600001358460200135858060400190611f389190613bf5565b604051611f469291906136b9565b6040518091039020604051602001611f619493929190613857565b604051602081830303815290604052805190602001206122f6565b9050919050565b6000806000611f928585612310565b91509150611f9f81612362565b819250505092915050565b50505050565b50505050565b611fc08282610d47565b61203757611fcd81612600565b611fdb8360001c602061262d565b604051602001611fec92919061372d565b6040516020818303038152906040526040517f08c379a000000000000000000000000000000000000000000000000000000000815260040161202e91906138e1565b60405180910390fd5b5050565b600061205c8473ffffffffffffffffffffffffffffffffffffffff16612927565b156121c5578373ffffffffffffffffffffffffffffffffffffffff1663150b7a0261208561189b565b8786866040518563ffffffff1660e01b81526004016120a79493929190613782565b602060405180830381600087803b1580156120c157600080fd5b505af19250505080156120f257506040513d601f19601f820116820180604052508101906120ef9190613218565b60015b612175573d8060008114612122576040519150601f19603f3d011682016040523d82523d6000602084013e612127565b606091505b5060008151141561216d576040517f08c379a000000000000000000000000000000000000000000000000000000000815260040161216490613983565b60405180910390fd5b805181602001fd5b63150b7a0260e01b7bffffffffffffffffffffffffffffffffffffffffffffffffffffffff1916817bffffffffffffffffffffffffffffffffffffffffffffffffffffffff1916149150506121ca565b600190505b949350505050565b6060600060016121e18461294a565b01905060008167ffffffffffffffff811115612226577f4e487b7100000000000000000000000000000000000000000000000000000000600052604160045260246000fd5b6040519080825280601f01601f1916602001820160405280156122585781602001600182028036833780820191505090505b509050600082602001820190505b6001156122eb578080600190039150507f3031323334353637383961626364656600000000000000000000000000000000600a86061a8153600a85816122d5577f4e487b7100000000000000000000000000000000000000000000000000000000600052601260045260246000fd5b04945060008514156122e6576122eb565b612266565b819350505050919050565b6000612309612303612b81565b83612c9b565b9050919050565b6000806041835114156123525760008060006020860151925060408601519150606086015160001a905061234687828585612cce565b9450945050505061235b565b60006002915091505b9250929050565b6000600481111561239c577f4e487b7100000000000000000000000000000000000000000000000000000000600052602160045260246000fd5b8160048111156123d5577f4e487b7100000000000000000000000000000000000000000000000000000000600052602160045260246000fd5b14156123e0576125fd565b6001600481111561241a577f4e487b7100000000000000000000000000000000000000000000000000000000600052602160045260246000fd5b816004811115612453577f4e487b7100000000000000000000000000000000000000000000000000000000600052602160045260246000fd5b1415612494576040517f08c379a000000000000000000000000000000000000000000000000000000000815260040161248b90613903565b60405180910390fd5b600260048111156124ce577f4e487b7100000000000000000000000000000000000000000000000000000000600052602160045260246000fd5b816004811115612507577f4e487b7100000000000000000000000000000000000000000000000000000000600052602160045260246000fd5b1415612548576040517f08c379a000000000000000000000000000000000000000000000000000000000815260040161253f90613963565b60405180910390fd5b60036004811115612582577f4e487b7100000000000000000000000000000000000000000000000000000000600052602160045260246000fd5b8160048111156125bb577f4e487b7100000000000000000000000000000000000000000000000000000000600052602160045260246000fd5b14156125fc576040517f08c379a00000000000000000000000000000000000000000000000000000000081526004016125f390613a23565b60405180910390fd5b5b50565b60606126268273ffffffffffffffffffffffffffffffffffffffff16601460ff1661262d565b9050919050565b6060600060028360026126409190613d46565b61264a9190613cf0565b67ffffffffffffffff811115612689577f4e487b7100000000000000000000000000000000000000000000000000000000600052604160045260246000fd5b6040519080825280601f01601f1916602001820160405280156126bb5781602001600182028036833780820191505090505b5090507f300000000000000000000000000000000000000000000000000000000000000081600081518110612719577f4e487b7100000000000000000000000000000000000000000000000000000000600052603260045260246000fd5b60200101907effffffffffffffffffffffffffffffffffffffffffffffffffffffffffffff1916908160001a9053507f7800000000000000000000000000000000000000000000000000000000000000816001815181106127a3577f4e487b7100000000000000000000000000000000000000000000000000000000600052603260045260246000fd5b60200101907effffffffffffffffffffffffffffffffffffffffffffffffffffffffffffff1916908160001a905350600060018460026127e39190613d46565b6127ed9190613cf0565b90505b60018111156128d9577f3031323334353637383961626364656600000000000000000000000000000000600f861660108110612855577f4e487b7100000000000000000000000000000000000000000000000000000000600052603260045260246000fd5b1a60f81b828281518110612892577f4e487b7100000000000000000000000000000000000000000000000000000000600052603260045260246000fd5b60200101907effffffffffffffffffffffffffffffffffffffffffffffffffffffffffffff1916908160001a905350600485901c9450806128d290613e6d565b90506127f0565b506000841461291d576040517f08c379a000000000000000000000000000000000000000000000000000000000815260040161291490613923565b60405180910390fd5b8091505092915050565b6000808273ffffffffffffffffffffffffffffffffffffffff163b119050919050565b600080600090507a184f03e93ff9f4daa797ed6e38ed64bf6a1f01000000000000000083106129ce577a184f03e93ff9f4daa797ed6e38ed64bf6a1f01000000000000000083816129c4577f4e487b7100000000000000000000000000000000000000000000000000000000600052601260045260246000fd5b0492506040810190505b6d04ee2d6d415b85acef81000000008310612a31576d04ee2d6d415b85acef81000000008381612a27577f4e487b7100000000000000000000000000000000000000000000000000000000600052601260045260246000fd5b0492506020810190505b662386f26fc100008310612a8657662386f26fc100008381612a7c577f4e487b7100000000000000000000000000000000000000000000000000000000600052601260045260246000fd5b0492506010810190505b6305f5e1008310612ad5576305f5e1008381612acb577f4e487b7100000000000000000000000000000000000000000000000000000000600052601260045260246000fd5b0492506008810190505b6127108310612b20576127108381612b16577f4e487b7100000000000000000000000000000000000000000000000000000000600052601260045260246000fd5b0492506004810190505b60648310612b695760648381612b5f577f4e487b7100000000000000000000000000000000000000000000000000000000600052601260045260246000fd5b0492506002810190505b600a8310612b78576001810190505b80915050919050565b60007f000000000000000000000000000000000000000000000000000000000000000073ffffffffffffffffffffffffffffffffffffffff163073ffffffffffffffffffffffffffffffffffffffff16148015612bfd57507f000000000000000000000000000000000000000000000000000000000000000046145b15612c2a577f00000000000000000000000000000000000000000000000000000000000000009050612c98565b612c957f00000000000000000000000000000000000000000000000000000000000000007f00000000000000000000000000000000000000000000000000000000000000007f0000000000000000000000000000000000000000000000000000000000000000612db1565b90505b90565b60008282604051602001612cb09291906136f6565b60405160208183030381529060405280519060200120905092915050565b6000807f7fffffffffffffffffffffffffffffff5d576e7357a4501ddfe92f46681b20a08360001c1115612d09576000600391509150612da8565b600060018787878760405160008152602001604052604051612d2e949392919061389c565b6020604051602081039080840390855afa158015612d50573d6000803e3d6000fd5b505050602060405103519050600073ffffffffffffffffffffffffffffffffffffffff168173ffffffffffffffffffffffffffffffffffffffff161415612d9f57600060019250925050612da8565b80600092509250505b94509492505050565b60008383834630604051602001612dcc959493929190613804565b6040516020818303038152906040528051906020012090509392505050565b828054612df790613e97565b90600052602060002090601f016020900481019282612e195760008555612e60565b82601f10612e3257805160ff1916838001178555612e60565b82800160010185558215612e60579182015b82811115612e5f578251825591602001919060010190612e44565b5b509050612e6d9190612e71565b5090565b5b80821115612e8a576000816000905550600101612e72565b5090565b6000612ea1612e9c84613c71565b613c4c565b905082815260208101848484011115612eb957600080fd5b612ec4848285613e2b565b509392505050565b600081359050612edb81614519565b92915050565b600081359050612ef081614530565b92915050565b600081359050612f0581614547565b92915050565b600081359050612f1a8161455e565b92915050565b600081519050612f2f8161455e565b92915050565b600082601f830112612f4657600080fd5b8135612f56848260208601612e8e565b91505092915050565b600060808284031215612f7157600080fd5b81905092915050565b600081359050612f8981614575565b92915050565b600060208284031215612fa157600080fd5b6000612faf84828501612ecc565b91505092915050565b60008060408385031215612fcb57600080fd5b6000612fd985828601612ecc565b9250506020612fea85828601612ecc565b9150509250929050565b60008060006060848603121561300957600080fd5b600061301786828701612ecc565b935050602061302886828701612ecc565b925050604061303986828701612f7a565b9150509250925092565b6000806000806080858703121561305957600080fd5b600061306787828801612ecc565b945050602061307887828801612ecc565b935050604061308987828801612f7a565b925050606085013567ffffffffffffffff8111156130a657600080fd5b6130b287828801612f35565b91505092959194509250565b600080604083850312156130d157600080fd5b60006130df85828601612ecc565b92505060206130f085828601612ee1565b9150509250929050565b6000806040838503121561310d57600080fd5b600061311b85828601612ecc565b925050602083013567ffffffffffffffff81111561313857600080fd5b61314485828601612f5f565b9150509250929050565b6000806040838503121561316157600080fd5b600061316f85828601612ecc565b925050602061318085828601612f7a565b9150509250929050565b60006020828403121561319c57600080fd5b60006131aa84828501612ef6565b91505092915050565b600080604083850312156131c657600080fd5b60006131d485828601612ef6565b92505060206131e585828601612ecc565b9150509250929050565b60006020828403121561320157600080fd5b600061320f84828501612f0b565b91505092915050565b60006020828403121561322a57600080fd5b600061323884828501612f20565b91505092915050565b60006020828403121561325357600080fd5b600061326184828501612f7a565b91505092915050565b61327381613da0565b82525050565b61328281613db2565b82525050565b61329181613dbe565b82525050565b6132a86132a382613dbe565b613efa565b82525050565b60006132ba8385613cc9565b93506132c7838584613e2b565b82840190509392505050565b60006132de82613ca2565b6132e88185613cb8565b93506132f8818560208601613e3a565b61330181613f91565b840191505092915050565b600061331782613cad565b6133218185613cd4565b9350613331818560208601613e3a565b61333a81613f91565b840191505092915050565b600061335082613cad565b61335a8185613ce5565b935061336a818560208601613e3a565b80840191505092915050565b6000613383601883613cd4565b915061338e82613fa2565b602082019050919050565b60006133a6602083613cd4565b91506133b182613fcb565b602082019050919050565b60006133c9602d83613cd4565b91506133d482613ff4565b604082019050919050565b60006133ec601f83613cd4565b91506133f782614043565b602082019050919050565b600061340f603283613cd4565b915061341a8261406c565b604082019050919050565b6000613432602583613cd4565b915061343d826140bb565b604082019050919050565b6000613455601c83613cd4565b91506134608261410a565b602082019050919050565b6000613478600283613ce5565b915061348382614133565b600282019050919050565b600061349b602483613cd4565b91506134a68261415c565b604082019050919050565b60006134be601983613cd4565b91506134c9826141ab565b602082019050919050565b60006134e1602283613cd4565b91506134ec826141d4565b604082019050919050565b6000613504602983613cd4565b915061350f82614223565b604082019050919050565b6000613527602e83613cd4565b915061353282614272565b604082019050919050565b600061354a601c83613cd4565b9150613555826142c1565b602082019050919050565b600061356d602083613cd4565b9150613578826142ea565b602082019050919050565b6000613590602483613cd4565b915061359b82614313565b604082019050919050565b60006135b3601883613cd4565b91506135be82614362565b602082019050919050565b60006135d6602183613cd4565b91506135e18261438b565b604082019050919050565b60006135f9602183613cd4565b9150613604826143da565b604082019050919050565b600061361c603d83613cd4565b915061362782614429565b604082019050919050565b600061363f601783613ce5565b915061364a82614478565b601782019050919050565b6000613662601183613ce5565b915061366d826144a1565b601182019050919050565b6000613685602f83613cd4565b9150613690826144ca565b604082019050919050565b6136a481613e14565b82525050565b6136b381613e1e565b82525050565b60006136c68284866132ae565b91508190509392505050565b60006136de8285613345565b91506136ea8284613345565b91508190509392505050565b60006137018261346b565b915061370d8285613297565b60208201915061371d8284613297565b6020820191508190509392505050565b600061373882613632565b91506137448285613345565b915061374f82613655565b915061375b8284613345565b91508190509392505050565b600060208201905061377c600083018461326a565b92915050565b6000608082019050613797600083018761326a565b6137a4602083018661326a565b6137b1604083018561369b565b81810360608301526137c381846132d3565b905095945050505050565b60006020820190506137e36000830184613279565b92915050565b60006020820190506137fe6000830184613288565b92915050565b600060a0820190506138196000830188613288565b6138266020830187613288565b6138336040830186613288565b613840606083018561369b565b61384d608083018461326a565b9695505050505050565b600060808201905061386c6000830187613288565b613879602083018661369b565b613886604083018561369b565b6138936060830184613288565b95945050505050565b60006080820190506138b16000830187613288565b6138be60208301866136aa565b6138cb6040830185613288565b6138d86060830184613288565b95945050505050565b600060208201905081810360008301526138fb818461330c565b905092915050565b6000602082019050818103600083015261391c81613376565b9050919050565b6000602082019050818103600083015261393c81613399565b9050919050565b6000602082019050818103600083015261395c816133bc565b9050919050565b6000602082019050818103600083015261397c816133df565b9050919050565b6000602082019050818103600083015261399c81613402565b9050919050565b600060208201905081810360008301526139bc81613425565b9050919050565b600060208201905081810360008301526139dc81613448565b9050919050565b600060208201905081810360008301526139fc8161348e565b9050919050565b60006020820190508181036000830152613a1c816134b1565b9050919050565b60006020820190508181036000830152613a3c816134d4565b9050919050565b60006020820190508181036000830152613a5c816134f7565b9050919050565b60006020820190508181036000830152613a7c8161351a565b9050919050565b60006020820190508181036000830152613a9c8161353d565b9050919050565b60006020820190508181036000830152613abc81613560565b9050919050565b60006020820190508181036000830152613adc81613583565b9050919050565b60006020820190508181036000830152613afc816135a6565b9050919050565b60006020820190508181036000830152613b1c816135c9565b9050919050565b60006020820190508181036000830152613b3c816135ec565b9050919050565b60006020820190508181036000830152613b5c8161360f565b9050919050565b60006020820190508181036000830152613b7c81613678565b9050919050565b6000602082019050613b98600083018461369b565b92915050565b60008083356001602003843603038112613bb757600080fd5b80840192508235915067ffffffffffffffff821115613bd557600080fd5b602083019250600182023603831315613bed57600080fd5b509250929050565b60008083356001602003843603038112613c0e57600080fd5b80840192508235915067ffffffffffffffff821115613c2c57600080fd5b602083019250600182023603831315613c4457600080fd5b509250929050565b6000613c56613c67565b9050613c628282613ec9565b919050565b6000604051905090565b600067ffffffffffffffff821115613c8c57613c8b613f62565b5b613c9582613f91565b9050602081019050919050565b600081519050919050565b600081519050919050565b600082825260208201905092915050565b600081905092915050565b600082825260208201905092915050565b600081905092915050565b6000613cfb82613e14565b9150613d0683613e14565b9250827fffffffffffffffffffffffffffffffffffffffffffffffffffffffffffffffff03821115613d3b57613d3a613f04565b5b828201905092915050565b6000613d5182613e14565b9150613d5c83613e14565b9250817fffffffffffffffffffffffffffffffffffffffffffffffffffffffffffffffff0483118215151615613d9557613d94613f04565b5b828202905092915050565b6000613dab82613df4565b9050919050565b60008115159050919050565b6000819050919050565b60007fffffffff0000000000000000000000000000000000000000000000000000000082169050919050565b600073ffffffffffffffffffffffffffffffffffffffff82169050919050565b6000819050919050565b600060ff82169050919050565b82818337600083830152505050565b60005b83811015613e58578082015181840152602081019050613e3d565b83811115613e67576000848401525b50505050565b6000613e7882613e14565b91506000821415613e8c57613e8b613f04565b5b600182039050919050565b60006002820490506001821680613eaf57607f821691505b60208210811415613ec357613ec2613f33565b5b50919050565b613ed282613f91565b810181811067ffffffffffffffff82111715613ef157613ef0613f62565b5b80604052505050565b6000819050919050565b7f4e487b7100000000000000000000000000000000000000000000000000000000600052601160045260246000fd5b7f4e487b7100000000000000000000000000000000000000000000000000000000600052602260045260246000fd5b7f4e487b7100000000000000000000000000000000000000000000000000000000600052604160045260246000fd5b6000601f19601f8301169050919050565b7f45434453413a20696e76616c6964207369676e61747572650000000000000000600082015250565b7f537472696e67733a20686578206c656e67746820696e73756666696369656e74600082015250565b7f4552433732313a2063616c6c6572206973206e6f7420746f6b656e206f776e6560008201527f72206f7220617070726f76656400000000000000000000000000000000000000602082015250565b7f45434453413a20696e76616c6964207369676e6174757265206c656e67746800600082015250565b7f4552433732313a207472616e7366657220746f206e6f6e20455243373231526560008201527f63656976657220696d706c656d656e7465720000000000000000000000000000602082015250565b7f4552433732313a207472616e736665722066726f6d20696e636f72726563742060008201527f6f776e6572000000000000000000000000000000000000000000000000000000602082015250565b7f4552433732313a20746f6b656e20616c7265616479206d696e74656400000000600082015250565b7f1901000000000000000000000000000000000000000000000000000000000000600082015250565b7f4552433732313a207472616e7366657220746f20746865207a65726f2061646460008201527f7265737300000000000000000000000000000000000000000000000000000000602082015250565b7f4552433732313a20617070726f766520746f2063616c6c657200000000000000600082015250565b7f45434453413a20696e76616c6964207369676e6174757265202773272076616c60008201527f7565000000000000000000000000000000000000000000000000000000000000602082015250565b7f4552433732313a2061646472657373207a65726f206973206e6f74206120766160008201527f6c6964206f776e65720000000000000000000000000000000000000000000000602082015250565b7f45524337323155524953746f726167653a2055524920736574206f66206e6f6e60008201527f6578697374656e7420746f6b656e000000000000000000000000000000000000602082015250565b7f496e73756666696369656e742066756e647320746f2072656465656d00000000600082015250565b7f4552433732313a206d696e7420746f20746865207a65726f2061646472657373600082015250565b7f4f6e6c7920617574686f72697a6564206d696e746572732063616e207769746860008201527f6472617700000000000000000000000000000000000000000000000000000000602082015250565b7f4552433732313a20696e76616c696420746f6b656e2049440000000000000000600082015250565b7f4552433732313a20617070726f76616c20746f2063757272656e74206f776e6560008201527f7200000000000000000000000000000000000000000000000000000000000000602082015250565b7f5369676e617475726520696e76616c6964206f7220756e617574686f72697a6560008201527f6400000000000000000000000000000000000000000000000000000000000000602082015250565b7f4552433732313a20617070726f76652063616c6c6572206973206e6f7420746f60008201527f6b656e206f776e6572206f7220617070726f76656420666f7220616c6c000000602082015250565b7f416363657373436f6e74726f6c3a206163636f756e7420000000000000000000600082015250565b7f206973206d697373696e6720726f6c6520000000000000000000000000000000600082015250565b7f416363657373436f6e74726f6c3a2063616e206f6e6c792072656e6f756e636560008201527f20726f6c657320666f722073656c660000000000000000000000000000000000602082015250565b61452281613da0565b811461452d57600080fd5b50565b61453981613db2565b811461454457600080fd5b50565b61455081613dbe565b811461455b57600080fd5b50565b61456781613dc8565b811461457257600080fd5b50565b61457e81613e14565b811461458957600080fd5b5056fea26469706673582212205454ed64ba2d02e1a4d73736cab692de59ad895ed45aea3a2c35b5ca82e486a864736f6c63430008040033",
  "linkReferences": {},
  "deployedLinkReferences": {}
}