{
  "_format": "hh-sol-artifact-1",
  "contractName": "LazyNFT",
  "sourceName": "contracts/LazyNFT.sol",
  "abi": [
    {
      "inputs": [
        {
          "internalType": "address payable",
          "name": "minter",
          "type": "address"
        }
      ],
      "stateMutability": "nonpayable",
      "type": "constructor"
    },
    {
      "anonymous": false,
      "inputs": [
        {
          "indexed": true,
          "internalType": "address",
          "name": "owner",
          "type": "address"
        },
        {
          "indexed": true,
          "internalType": "address",
          "name": "approved",
          "type": "address"
        },
        {
          "indexed": true,
          "internalType": "uint256",
          "name": "tokenId",
          "type": "uint256"
        }
      ],
      "name": "Approval",
      "type": "event"
    },
    {
      "anonymous": false,
      "inputs": [
        {
          "indexed": true,
          "internalType": "address",
          "name": "owner",
          "type": "address"
        },
        {
          "indexed": true,
          "internalType": "address",
          "name": "operator",
          "type": "address"
        },
        {
          "indexed": false,
          "internalType": "bool",
          "name": "approved",
          "type": "bool"
        }
      ],
      "name": "ApprovalForAll",
      "type": "event"
    },
    {
      "anonymous": false,
      "inputs": [
        {
          "indexed": true,
          "internalType": "bytes32",
          "name": "role",
          "type": "bytes32"
        },
        {
          "indexed": true,
          "internalType": "bytes32",
          "name": "previousAdminRole",
          "type": "bytes32"
        },
        {
          "indexed": true,
          "internalType": "bytes32",
          "name": "newAdminRole",
          "type": "bytes32"
        }
      ],
      "name": "RoleAdminChanged",
      "type": "event"
    },
    {
      "anonymous": false,
      "inputs": [
        {
          "indexed": true,
          "internalType": "bytes32",
          "name": "role",
          "type": "bytes32"
        },
        {
          "indexed": true,
          "internalType": "address",
          "name": "account",
          "type": "address"
        },
        {
          "indexed": true,
          "internalType": "address",
          "name": "sender",
          "type": "address"
        }
      ],
      "name": "RoleGranted",
      "type": "event"
    },
    {
      "anonymous": false,
      "inputs": [
        {
          "indexed": true,
          "internalType": "bytes32",
          "name": "role",
          "type": "bytes32"
        },
        {
          "indexed": true,
          "internalType": "address",
          "name": "account",
          "type": "address"
        },
        {
          "indexed": true,
          "internalType": "address",
          "name": "sender",
          "type": "address"
        }
      ],
      "name": "RoleRevoked",
      "type": "event"
    },
    {
      "anonymous": false,
      "inputs": [
        {
          "indexed": true,
          "internalType": "uint256",
          "name": "tokenId",
          "type": "uint256"
        },
        {
          "indexed": false,
          "internalType": "address",
          "name": "owner",
          "type": "address"
        },
        {
          "indexed": false,
          "internalType": "address",
          "name": "seller",
          "type": "address"
        },
        {
          "indexed": false,
          "internalType": "uint256",
          "name": "price",
          "type": "uint256"
        }
      ],
      "name": "TokenListedSuccess",
      "type": "event"
    },
    {
      "anonymous": false,
      "inputs": [
        {
          "indexed": true,
          "internalType": "address",
          "name": "from",
          "type": "address"
        },
        {
          "indexed": true,
          "internalType": "address",
          "name": "to",
          "type": "address"
        },
        {
          "indexed": true,
          "internalType": "uint256",
          "name": "tokenId",
          "type": "uint256"
        }
      ],
      "name": "Transfer",
      "type": "event"
    },
    {
      "inputs": [],
      "name": "DEFAULT_ADMIN_ROLE",
      "outputs": [
        {
          "internalType": "bytes32",
          "name": "",
          "type": "bytes32"
        }
      ],
      "stateMutability": "view",
      "type": "function"
    },
    {
      "inputs": [],
      "name": "MINTER_ROLE",
      "outputs": [
        {
          "internalType": "bytes32",
          "name": "",
          "type": "bytes32"
        }
      ],
      "stateMutability": "view",
      "type": "function"
    },
    {
      "inputs": [
        {
          "internalType": "address",
          "name": "to",
          "type": "address"
        },
        {
          "internalType": "uint256",
          "name": "tokenId",
          "type": "uint256"
        }
      ],
      "name": "approve",
      "outputs": [],
      "stateMutability": "nonpayable",
      "type": "function"
    },
    {
      "inputs": [],
      "name": "availableToWithdraw",
      "outputs": [
        {
          "internalType": "uint256",
          "name": "",
          "type": "uint256"
        }
      ],
      "stateMutability": "view",
      "type": "function"
    },
    {
      "inputs": [
        {
          "internalType": "address",
          "name": "owner",
          "type": "address"
        }
      ],
      "name": "balanceOf",
      "outputs": [
        {
          "internalType": "uint256",
          "name": "",
          "type": "uint256"
        }
      ],
      "stateMutability": "view",
      "type": "function"
    },
    {
      "inputs": [
        {
          "internalType": "uint256",
          "name": "tokenId",
          "type": "uint256"
        }
      ],
      "name": "getApproved",
      "outputs": [
        {
          "internalType": "address",
          "name": "",
          "type": "address"
        }
      ],
      "stateMutability": "view",
      "type": "function"
    },
    {
      "inputs": [],
      "name": "getChainID",
      "outputs": [
        {
          "internalType": "uint256",
          "name": "",
          "type": "uint256"
        }
      ],
      "stateMutability": "view",
      "type": "function"
    },
    {
      "inputs": [
        {
          "internalType": "uint256",
          "name": "tokenId",
          "type": "uint256"
        }
      ],
      "name": "getListedTokenForId",
      "outputs": [
        {
          "components": [
            {
              "internalType": "uint256",
              "name": "tokenId",
              "type": "uint256"
            },
            {
              "internalType": "address payable",
              "name": "owner",
              "type": "address"
            },
            {
              "internalType": "address payable",
              "name": "seller",
              "type": "address"
            },
            {
              "internalType": "uint256",
              "name": "price",
              "type": "uint256"
            }
          ],
          "internalType": "struct LazyNFT.ListedToken",
          "name": "",
          "type": "tuple"
        }
      ],
      "stateMutability": "view",
      "type": "function"
    },
    {
      "inputs": [],
      "name": "getMyNFTs",
      "outputs": [
        {
          "components": [
            {
              "internalType": "uint256",
              "name": "tokenId",
              "type": "uint256"
            },
            {
              "internalType": "address payable",
              "name": "owner",
              "type": "address"
            },
            {
              "internalType": "address payable",
              "name": "seller",
              "type": "address"
            },
            {
              "internalType": "uint256",
              "name": "price",
              "type": "uint256"
            }
          ],
          "internalType": "struct LazyNFT.ListedToken[]",
          "name": "",
          "type": "tuple[]"
        }
      ],
      "stateMutability": "view",
      "type": "function"
    },
    {
      "inputs": [
        {
          "internalType": "bytes32",
          "name": "role",
          "type": "bytes32"
        }
      ],
      "name": "getRoleAdmin",
      "outputs": [
        {
          "internalType": "bytes32",
          "name": "",
          "type": "bytes32"
        }
      ],
      "stateMutability": "view",
      "type": "function"
    },
    {
      "inputs": [
        {
          "internalType": "bytes32",
          "name": "role",
          "type": "bytes32"
        },
        {
          "internalType": "address",
          "name": "account",
          "type": "address"
        }
      ],
      "name": "grantRole",
      "outputs": [],
      "stateMutability": "nonpayable",
      "type": "function"
    },
    {
      "inputs": [
        {
          "internalType": "bytes32",
          "name": "role",
          "type": "bytes32"
        },
        {
          "internalType": "address",
          "name": "account",
          "type": "address"
        }
      ],
      "name": "hasRole",
      "outputs": [
        {
          "internalType": "bool",
          "name": "",
          "type": "bool"
        }
      ],
      "stateMutability": "view",
      "type": "function"
    },
    {
      "inputs": [
        {
          "internalType": "address",
          "name": "owner",
          "type": "address"
        },
        {
          "internalType": "address",
          "name": "operator",
          "type": "address"
        }
      ],
      "name": "isApprovedForAll",
      "outputs": [
        {
          "internalType": "bool",
          "name": "",
          "type": "bool"
        }
      ],
      "stateMutability": "view",
      "type": "function"
    },
    {
      "inputs": [],
      "name": "name",
      "outputs": [
        {
          "internalType": "string",
          "name": "",
          "type": "string"
        }
      ],
      "stateMutability": "view",
      "type": "function"
    },
    {
      "inputs": [
        {
          "internalType": "uint256",
          "name": "tokenId",
          "type": "uint256"
        }
      ],
      "name": "ownerOf",
      "outputs": [
        {
          "internalType": "address",
          "name": "",
          "type": "address"
        }
      ],
      "stateMutability": "view",
      "type": "function"
    },
    {
      "inputs": [
        {
          "internalType": "address",
          "name": "redeemer",
          "type": "address"
        },
        {
          "components": [
            {
              "internalType": "uint256",
              "name": "tokenId",
              "type": "uint256"
            },
            {
              "internalType": "uint256",
              "name": "minPrice",
              "type": "uint256"
            },
            {
              "internalType": "string",
              "name": "uri",
              "type": "string"
            },
            {
              "internalType": "bytes",
              "name": "signature",
              "type": "bytes"
            }
          ],
          "internalType": "struct LazyNFT.NFTVoucher",
          "name": "voucher",
          "type": "tuple"
        }
      ],
      "name": "redeem",
      "outputs": [
        {
          "internalType": "uint256",
          "name": "",
          "type": "uint256"
        }
      ],
      "stateMutability": "payable",
      "type": "function"
    },
    {
      "inputs": [
        {
          "internalType": "bytes32",
          "name": "role",
          "type": "bytes32"
        },
        {
          "internalType": "address",
          "name": "account",
          "type": "address"
        }
      ],
      "name": "renounceRole",
      "outputs": [],
      "stateMutability": "nonpayable",
      "type": "function"
    },
    {
      "inputs": [
        {
          "internalType": "bytes32",
          "name": "role",
          "type": "bytes32"
        },
        {
          "internalType": "address",
          "name": "account",
          "type": "address"
        }
      ],
      "name": "revokeRole",
      "outputs": [],
      "stateMutability": "nonpayable",
      "type": "function"
    },
    {
      "inputs": [
        {
          "internalType": "address",
          "name": "from",
          "type": "address"
        },
        {
          "internalType": "address",
          "name": "to",
          "type": "address"
        },
        {
          "internalType": "uint256",
          "name": "tokenId",
          "type": "uint256"
        }
      ],
      "name": "safeTransferFrom",
      "outputs": [],
      "stateMutability": "nonpayable",
      "type": "function"
    },
    {
      "inputs": [
        {
          "internalType": "address",
          "name": "from",
          "type": "address"
        },
        {
          "internalType": "address",
          "name": "to",
          "type": "address"
        },
        {
          "internalType": "uint256",
          "name": "tokenId",
          "type": "uint256"
        },
        {
          "internalType": "bytes",
          "name": "data",
          "type": "bytes"
        }
      ],
      "name": "safeTransferFrom",
      "outputs": [],
      "stateMutability": "nonpayable",
      "type": "function"
    },
    {
      "inputs": [
        {
          "internalType": "address",
          "name": "operator",
          "type": "address"
        },
        {
          "internalType": "bool",
          "name": "approved",
          "type": "bool"
        }
      ],
      "name": "setApprovalForAll",
      "outputs": [],
      "stateMutability": "nonpayable",
      "type": "function"
    },
    {
      "inputs": [
        {
          "internalType": "bytes4",
          "name": "interfaceId",
          "type": "bytes4"
        }
      ],
      "name": "supportsInterface",
      "outputs": [
        {
          "internalType": "bool",
          "name": "",
          "type": "bool"
        }
      ],
      "stateMutability": "view",
      "type": "function"
    },
    {
      "inputs": [],
      "name": "symbol",
      "outputs": [
        {
          "internalType": "string",
          "name": "",
          "type": "string"
        }
      ],
      "stateMutability": "view",
      "type": "function"
    },
    {
      "inputs": [
        {
          "internalType": "uint256",
          "name": "tokenId",
          "type": "uint256"
        }
      ],
      "name": "tokenURI",
      "outputs": [
        {
          "internalType": "string",
          "name": "",
          "type": "string"
        }
      ],
      "stateMutability": "view",
      "type": "function"
    },
    {
      "inputs": [
        {
          "internalType": "address",
          "name": "from",
          "type": "address"
        },
        {
          "internalType": "address",
          "name": "to",
          "type": "address"
        },
        {
          "internalType": "uint256",
          "name": "tokenId",
          "type": "uint256"
        }
      ],
      "name": "transferFrom",
      "outputs": [],
      "stateMutability": "nonpayable",
      "type": "function"
    },
    {
      "inputs": [],
      "name": "withdraw",
      "outputs": [],
      "stateMutability": "nonpayable",
      "type": "function"
    }
  ],
  "bytecode": "0x6101406040523480156200001257600080fd5b506040516200565b3803806200565b8339818101604052810190620000389190620004b0565b6040518060400160405280600f81526020017f4c617a794e46542d566f756368657200000000000000000000000000000000008152506040518060400160405280600181526020017f31000000000000000000000000000000000000000000000000000000000000008152506040518060400160405280600781526020017f4c617a794e4654000000000000000000000000000000000000000000000000008152506040518060400160405280600381526020017f4c415a0000000000000000000000000000000000000000000000000000000000815250816000908051906020019062000128929190620003e9565b50806001908051906020019062000141929190620003e9565b50505060008280519060200120905060008280519060200120905060007f8b73c3c69bb8fe3d512ecc4cf759cc79239f7b179b0ffacaa9a75d522b39400f90508260e081815250508161010081815250504660a08181525050620001ad8184846200023260201b60201c565b608081815250503073ffffffffffffffffffffffffffffffffffffffff1660c08173ffffffffffffffffffffffffffffffffffffffff1660601b8152505080610120818152505050505050506200022b7f9f2df0fed2c77648de5860a4cc508cd0818c85b8b8a1ab4ceeef8d981c8956a6826200026e60201b60201c565b5062000647565b600083838346306040516020016200024f9594939291906200050f565b6040516020818303038152906040528051906020012090509392505050565b6200028082826200028460201b60201c565b5050565b6200029682826200037660201b60201c565b620003725760016007600084815260200190815260200160002060000160008373ffffffffffffffffffffffffffffffffffffffff1673ffffffffffffffffffffffffffffffffffffffff16815260200190815260200160002060006101000a81548160ff02191690831515021790555062000317620003e160201b60201c565b73ffffffffffffffffffffffffffffffffffffffff168173ffffffffffffffffffffffffffffffffffffffff16837f2f8788117e7eff1d82e926ec794901d17c78024a50270940304540a733656f0d60405160405180910390a45b5050565b60006007600084815260200190815260200160002060000160008373ffffffffffffffffffffffffffffffffffffffff1673ffffffffffffffffffffffffffffffffffffffff16815260200190815260200160002060009054906101000a900460ff16905092915050565b600033905090565b828054620003f790620005c8565b90600052602060002090601f0160209004810192826200041b576000855562000467565b82601f106200043657805160ff191683800117855562000467565b8280016001018555821562000467579182015b828111156200046657825182559160200191906001019062000449565b5b5090506200047691906200047a565b5090565b5b80821115620004955760008160009055506001016200047b565b5090565b600081519050620004aa816200062d565b92915050565b600060208284031215620004c357600080fd5b6000620004d38482850162000499565b91505092915050565b620004e7816200056c565b82525050565b620004f88162000594565b82525050565b6200050981620005be565b82525050565b600060a082019050620005266000830188620004ed565b620005356020830187620004ed565b620005446040830186620004ed565b620005536060830185620004fe565b620005626080830184620004dc565b9695505050505050565b600062000579826200059e565b9050919050565b60006200058d826200059e565b9050919050565b6000819050919050565b600073ffffffffffffffffffffffffffffffffffffffff82169050919050565b6000819050919050565b60006002820490506001821680620005e157607f821691505b60208210811415620005f857620005f7620005fe565b5b50919050565b7f4e487b7100000000000000000000000000000000000000000000000000000000600052602260045260246000fd5b620006388162000580565b81146200064457600080fd5b50565b60805160a05160c05160601c60e0516101005161012051614fc16200069a600039600061334f0152600061339101526000613370015260006132a5015260006132fb015260006133240152614fc16000f3fe6080604052600436106101815760003560e01c80636352211e116100d1578063a22cb4651161008a578063d539139311610064578063d5391393146105ab578063d547741f146105d6578063e322ad2b146105ff578063e985e9c51461062a57610181565b8063a22cb4651461051c578063b88d4fde14610545578063c87b56dd1461056e57610181565b80636352211e146103d257806370a082311461040f5780638e2645901461044c57806391d148541461048957806395d89b41146104c6578063a217fddf146104f157610181565b8063248a9ca31161013e5780633ccfd60b116101185780633ccfd60b1461033c57806342842e0e14610353578063564b81ef1461037c578063629cb2e4146103a757610181565b8063248a9ca3146102ad5780632f2ff15d146102ea57806336568abe1461031357610181565b806301ffc9a71461018657806306fdde03146101c3578063081812fc146101ee57806308708a781461022b578063095ea7b31461025b57806323b872dd14610284575b600080fd5b34801561019257600080fd5b506101ad60048036038101906101a89190613963565b610667565b6040516101ba91906140e8565b60405180910390f35b3480156101cf57600080fd5b506101d8610689565b6040516101e591906141fb565b60405180910390f35b3480156101fa57600080fd5b50610215600480360381019061021091906139b5565b61071b565b6040516102229190614028565b60405180910390f35b6102456004803603810190610240919061386e565b610761565b60405161025291906144b8565b60405180910390f35b34801561026757600080fd5b50610282600480360381019061027d91906138c2565b610a5f565b005b34801561029057600080fd5b506102ab60048036038101906102a69190613768565b610b77565b005b3480156102b957600080fd5b506102d460048036038101906102cf91906138fe565b610bd7565b6040516102e19190614103565b60405180910390f35b3480156102f657600080fd5b50610311600480360381019061030c9190613927565b610bf7565b005b34801561031f57600080fd5b5061033a60048036038101906103359190613927565b610c18565b005b34801561034857600080fd5b50610351610c9b565b005b34801561035f57600080fd5b5061037a60048036038101906103759190613768565b610ddd565b005b34801561038857600080fd5b50610391610dfd565b60405161039e91906144b8565b60405180910390f35b3480156103b357600080fd5b506103bc610e05565b6040516103c991906140c6565b60405180910390f35b3480156103de57600080fd5b506103f960048036038101906103f491906139b5565b611217565b6040516104069190614028565b60405180910390f35b34801561041b57600080fd5b5061043660048036038101906104319190613703565b61129e565b60405161044391906144b8565b60405180910390f35b34801561045857600080fd5b50610473600480360381019061046e91906139b5565b611356565b604051610480919061449d565b60405180910390f35b34801561049557600080fd5b506104b060048036038101906104ab9190613927565b611443565b6040516104bd91906140e8565b60405180910390f35b3480156104d257600080fd5b506104db6114ae565b6040516104e891906141fb565b60405180910390f35b3480156104fd57600080fd5b50610506611540565b6040516105139190614103565b60405180910390f35b34801561052857600080fd5b50610543600480360381019061053e9190613832565b611547565b005b34801561055157600080fd5b5061056c600480360381019061056791906137b7565b61155d565b005b34801561057a57600080fd5b50610595600480360381019061059091906139b5565b6115bf565b6040516105a291906141fb565b60405180910390f35b3480156105b757600080fd5b506105c06116d2565b6040516105cd9190614103565b60405180910390f35b3480156105e257600080fd5b506105fd60048036038101906105f89190613927565b6116f6565b005b34801561060b57600080fd5b50610614611717565b60405161062191906144b8565b60405180910390f35b34801561063657600080fd5b50610651600480360381019061064c919061372c565b61175e565b60405161065e91906140e8565b60405180910390f35b6000610672826117f2565b806106825750610681826118d4565b5b9050919050565b6060600080546106989061484d565b80601f01602080910402602001604051908101604052809291908181526020018280546106c49061484d565b80156107115780601f106106e657610100808354040283529160200191610711565b820191906000526020600020905b8154815290600101906020018083116106f457829003601f168201915b5050505050905090565b60006107268261194e565b6004600083815260200190815260200160002060009054906101000a900473ffffffffffffffffffffffffffffffffffffffff169050919050565b60008061076d83611999565b90506107997f9f2df0fed2c77648de5860a4cc508cd0818c85b8b8a1ab4ceeef8d981c8956a682611443565b6107d8576040517f08c379a00000000000000000000000000000000000000000000000000000000081526004016107cf9061443d565b60405180910390fd5b826020013534101561081f576040517f08c379a00000000000000000000000000000000000000000000000000000000081526004016108169061439d565b60405180910390fd5b61082d818460000135611a0b565b61088d8360000135848060400190610845919061452a565b8080601f016020809104026020016040519081016040528093929190818152602001838380828437600081840152601f19601f82011690508083019250505050505050611c29565b61089c81858560000135611c9d565b34600a60008373ffffffffffffffffffffffffffffffffffffffff1673ffffffffffffffffffffffffffffffffffffffff16815260200190815260200160002060008282546108eb919061465e565b925050819055506108fc6009611f97565b6040518060800160405280846000013581526020018573ffffffffffffffffffffffffffffffffffffffff1681526020018273ffffffffffffffffffffffffffffffffffffffff1681526020018460200135815250600b6000856000013581526020019081526020016000206000820151816000015560208201518160010160006101000a81548173ffffffffffffffffffffffffffffffffffffffff021916908373ffffffffffffffffffffffffffffffffffffffff16021790555060408201518160020160006101000a81548173ffffffffffffffffffffffffffffffffffffffff021916908373ffffffffffffffffffffffffffffffffffffffff1602179055506060820151816003015590505082600001357f73d1f44e8599423e5f8f3a30534a5204646f265174461a4fb3e516be55d4646285838660200135604051610a4993929190614043565b60405180910390a2826000013591505092915050565b6000610a6a82611217565b90508073ffffffffffffffffffffffffffffffffffffffff168373ffffffffffffffffffffffffffffffffffffffff161415610adb576040517f08c379a0000000000000000000000000000000000000000000000000000000008152600401610ad29061441d565b60405180910390fd5b8073ffffffffffffffffffffffffffffffffffffffff16610afa611fad565b73ffffffffffffffffffffffffffffffffffffffff161480610b295750610b2881610b23611fad565b61175e565b5b610b68576040517f08c379a0000000000000000000000000000000000000000000000000000000008152600401610b5f9061445d565b60405180910390fd5b610b728383611fb5565b505050565b610b88610b82611fad565b8261206e565b610bc7576040517f08c379a0000000000000000000000000000000000000000000000000000000008152600401610bbe9061425d565b60405180910390fd5b610bd2838383611c9d565b505050565b600060076000838152602001908152602001600020600101549050919050565b610c0082610bd7565b610c0981612103565b610c138383612117565b505050565b610c20611fad565b73ffffffffffffffffffffffffffffffffffffffff168173ffffffffffffffffffffffffffffffffffffffff1614610c8d576040517f08c379a0000000000000000000000000000000000000000000000000000000008152600401610c849061447d565b60405180910390fd5b610c9782826121f8565b5050565b610cc57f9f2df0fed2c77648de5860a4cc508cd0818c85b8b8a1ab4ceeef8d981c8956a633611443565b610d04576040517f08c379a0000000000000000000000000000000000000000000000000000000008152600401610cfb906143dd565b60405180910390fd5b60003390506000600a60008373ffffffffffffffffffffffffffffffffffffffff1673ffffffffffffffffffffffffffffffffffffffff1681526020019081526020016000205490506000600a60008473ffffffffffffffffffffffffffffffffffffffff1673ffffffffffffffffffffffffffffffffffffffff168152602001908152602001600020819055508173ffffffffffffffffffffffffffffffffffffffff166108fc829081150290604051600060405180830381858888f19350505050158015610dd8573d6000803e3d6000fd5b505050565b610df88383836040518060200160405280600081525061155d565b505050565b600046905090565b60606000610e1360096122da565b9050600080600080600090505b84811015610f39573373ffffffffffffffffffffffffffffffffffffffff16600b6000600184610e50919061465e565b815260200190815260200160002060010160009054906101000a900473ffffffffffffffffffffffffffffffffffffffff1673ffffffffffffffffffffffffffffffffffffffff161480610f1157503373ffffffffffffffffffffffffffffffffffffffff16600b6000600184610ec7919061465e565b815260200190815260200160002060020160009054906101000a900473ffffffffffffffffffffffffffffffffffffffff1673ffffffffffffffffffffffffffffffffffffffff16145b15610f2657600184610f23919061465e565b93505b8080610f31906148b0565b915050610e20565b5060008367ffffffffffffffff811115610f7c577f4e487b7100000000000000000000000000000000000000000000000000000000600052604160045260246000fd5b604051908082528060200260200182016040528015610fb557816020015b610fa261350b565b815260200190600190039081610f9a5790505b50905060005b8581101561120b573373ffffffffffffffffffffffffffffffffffffffff16600b6000600184610feb919061465e565b815260200190815260200160002060010160009054906101000a900473ffffffffffffffffffffffffffffffffffffffff1673ffffffffffffffffffffffffffffffffffffffff1614806110ac57503373ffffffffffffffffffffffffffffffffffffffff16600b6000600184611062919061465e565b815260200190815260200160002060020160009054906101000a900473ffffffffffffffffffffffffffffffffffffffff1673ffffffffffffffffffffffffffffffffffffffff16145b156111f8576001816110be919061465e565b92506000600b6000858152602001908152602001600020905080604051806080016040529081600082015481526020016001820160009054906101000a900473ffffffffffffffffffffffffffffffffffffffff1673ffffffffffffffffffffffffffffffffffffffff1673ffffffffffffffffffffffffffffffffffffffff1681526020016002820160009054906101000a900473ffffffffffffffffffffffffffffffffffffffff1673ffffffffffffffffffffffffffffffffffffffff1673ffffffffffffffffffffffffffffffffffffffff1681526020016003820154815250508386815181106111dc577f4e487b7100000000000000000000000000000000000000000000000000000000600052603260045260246000fd5b60200260200101819052506001856111f4919061465e565b9450505b8080611203906148b0565b915050610fbb565b50809550505050505090565b600080611223836122e8565b9050600073ffffffffffffffffffffffffffffffffffffffff168173ffffffffffffffffffffffffffffffffffffffff161415611295576040517f08c379a000000000000000000000000000000000000000000000000000000000815260040161128c906143fd565b60405180910390fd5b80915050919050565b60008073ffffffffffffffffffffffffffffffffffffffff168273ffffffffffffffffffffffffffffffffffffffff16141561130f576040517f08c379a00000000000000000000000000000000000000000000000000000000081526004016113069061435d565b60405180910390fd5b600360008373ffffffffffffffffffffffffffffffffffffffff1673ffffffffffffffffffffffffffffffffffffffff168152602001908152602001600020549050919050565b61135e61350b565b600b6000838152602001908152602001600020604051806080016040529081600082015481526020016001820160009054906101000a900473ffffffffffffffffffffffffffffffffffffffff1673ffffffffffffffffffffffffffffffffffffffff1673ffffffffffffffffffffffffffffffffffffffff1681526020016002820160009054906101000a900473ffffffffffffffffffffffffffffffffffffffff1673ffffffffffffffffffffffffffffffffffffffff1673ffffffffffffffffffffffffffffffffffffffff1681526020016003820154815250509050919050565b60006007600084815260200190815260200160002060000160008373ffffffffffffffffffffffffffffffffffffffff1673ffffffffffffffffffffffffffffffffffffffff16815260200190815260200160002060009054906101000a900460ff16905092915050565b6060600180546114bd9061484d565b80601f01602080910402602001604051908101604052809291908181526020018280546114e99061484d565b80156115365780601f1061150b57610100808354040283529160200191611536565b820191906000526020600020905b81548152906001019060200180831161151957829003601f168201915b5050505050905090565b6000801b81565b611559611552611fad565b8383612325565b5050565b61156e611568611fad565b8361206e565b6115ad576040517f08c379a00000000000000000000000000000000000000000000000000000000081526004016115a49061425d565b60405180910390fd5b6115b984848484612492565b50505050565b60606115ca8261194e565b60006006600084815260200190815260200160002080546115ea9061484d565b80601f01602080910402602001604051908101604052809291908181526020018280546116169061484d565b80156116635780601f1061163857610100808354040283529160200191611663565b820191906000526020600020905b81548152906001019060200180831161164657829003601f168201915b5050505050905060006116746124ee565b905060008151141561168a5781925050506116cd565b6000825111156116bf5780826040516020016116a7929190613f93565b604051602081830303815290604052925050506116cd565b6116c884612505565b925050505b919050565b7f9f2df0fed2c77648de5860a4cc508cd0818c85b8b8a1ab4ceeef8d981c8956a681565b6116ff82610bd7565b61170881612103565b61171283836121f8565b505050565b6000600a60003373ffffffffffffffffffffffffffffffffffffffff1673ffffffffffffffffffffffffffffffffffffffff16815260200190815260200160002054905090565b6000600560008473ffffffffffffffffffffffffffffffffffffffff1673ffffffffffffffffffffffffffffffffffffffff16815260200190815260200160002060008373ffffffffffffffffffffffffffffffffffffffff1673ffffffffffffffffffffffffffffffffffffffff16815260200190815260200160002060009054906101000a900460ff16905092915050565b60007f80ac58cd000000000000000000000000000000000000000000000000000000007bffffffffffffffffffffffffffffffffffffffffffffffffffffffff1916827bffffffffffffffffffffffffffffffffffffffffffffffffffffffff191614806118bd57507f5b5e139f000000000000000000000000000000000000000000000000000000007bffffffffffffffffffffffffffffffffffffffffffffffffffffffff1916827bffffffffffffffffffffffffffffffffffffffffffffffffffffffff1916145b806118cd57506118cc8261256d565b5b9050919050565b60007f7965db0b000000000000000000000000000000000000000000000000000000007bffffffffffffffffffffffffffffffffffffffffffffffffffffffff1916827bffffffffffffffffffffffffffffffffffffffffffffffffffffffff191614806119475750611946826117f2565b5b9050919050565b611957816125d7565b611996576040517f08c379a000000000000000000000000000000000000000000000000000000000815260040161198d906143fd565b60405180910390fd5b50565b6000806119a583612618565b9050611a03818480606001906119bb91906144d3565b8080601f016020809104026020016040519081016040528093929190818152602001838380828437600081840152601f19601f820116905080830192505050505050506126a3565b915050919050565b600073ffffffffffffffffffffffffffffffffffffffff168273ffffffffffffffffffffffffffffffffffffffff161415611a7b576040517f08c379a0000000000000000000000000000000000000000000000000000000008152600401611a72906143bd565b60405180910390fd5b611a84816125d7565b15611ac4576040517f08c379a0000000000000000000000000000000000000000000000000000000008152600401611abb906142dd565b60405180910390fd5b611ad26000838360016126ca565b611adb816125d7565b15611b1b576040517f08c379a0000000000000000000000000000000000000000000000000000000008152600401611b12906142dd565b60405180910390fd5b6001600360008473ffffffffffffffffffffffffffffffffffffffff1673ffffffffffffffffffffffffffffffffffffffff16815260200190815260200160002060008282540192505081905550816002600083815260200190815260200160002060006101000a81548173ffffffffffffffffffffffffffffffffffffffff021916908373ffffffffffffffffffffffffffffffffffffffff160217905550808273ffffffffffffffffffffffffffffffffffffffff16600073ffffffffffffffffffffffffffffffffffffffff167fddf252ad1be2c89b69c2b068fc378daa952ba7f163c4a11628f55a4df523b3ef60405160405180910390a4611c256000838360016126d0565b5050565b611c32826125d7565b611c71576040517f08c379a0000000000000000000000000000000000000000000000000000000008152600401611c689061437d565b60405180910390fd5b80600660008481526020019081526020016000209080519060200190611c9892919061355f565b505050565b8273ffffffffffffffffffffffffffffffffffffffff16611cbd82611217565b73ffffffffffffffffffffffffffffffffffffffff1614611d13576040517f08c379a0000000000000000000000000000000000000000000000000000000008152600401611d0a906142bd565b60405180910390fd5b600073ffffffffffffffffffffffffffffffffffffffff168273ffffffffffffffffffffffffffffffffffffffff161415611d83576040517f08c379a0000000000000000000000000000000000000000000000000000000008152600401611d7a906142fd565b60405180910390fd5b611d9083838360016126ca565b8273ffffffffffffffffffffffffffffffffffffffff16611db082611217565b73ffffffffffffffffffffffffffffffffffffffff1614611e06576040517f08c379a0000000000000000000000000000000000000000000000000000000008152600401611dfd906142bd565b60405180910390fd5b6004600082815260200190815260200160002060006101000a81549073ffffffffffffffffffffffffffffffffffffffff02191690556001600360008573ffffffffffffffffffffffffffffffffffffffff1673ffffffffffffffffffffffffffffffffffffffff168152602001908152602001600020600082825403925050819055506001600360008473ffffffffffffffffffffffffffffffffffffffff1673ffffffffffffffffffffffffffffffffffffffff16815260200190815260200160002060008282540192505081905550816002600083815260200190815260200160002060006101000a81548173ffffffffffffffffffffffffffffffffffffffff021916908373ffffffffffffffffffffffffffffffffffffffff160217905550808273ffffffffffffffffffffffffffffffffffffffff168473ffffffffffffffffffffffffffffffffffffffff167fddf252ad1be2c89b69c2b068fc378daa952ba7f163c4a11628f55a4df523b3ef60405160405180910390a4611f9283838360016126d0565b505050565b6001816000016000828254019250508190555050565b600033905090565b816004600083815260200190815260200160002060006101000a81548173ffffffffffffffffffffffffffffffffffffffff021916908373ffffffffffffffffffffffffffffffffffffffff160217905550808273ffffffffffffffffffffffffffffffffffffffff1661202883611217565b73ffffffffffffffffffffffffffffffffffffffff167f8c5be1e5ebec7d5bd14f71427d1e84f3dd0314c0f7b2291e5b200ac8c7c3b92560405160405180910390a45050565b60008061207a83611217565b90508073ffffffffffffffffffffffffffffffffffffffff168473ffffffffffffffffffffffffffffffffffffffff1614806120bc57506120bb818561175e565b5b806120fa57508373ffffffffffffffffffffffffffffffffffffffff166120e28461071b565b73ffffffffffffffffffffffffffffffffffffffff16145b91505092915050565b6121148161210f611fad565b6126d6565b50565b6121218282611443565b6121f45760016007600084815260200190815260200160002060000160008373ffffffffffffffffffffffffffffffffffffffff1673ffffffffffffffffffffffffffffffffffffffff16815260200190815260200160002060006101000a81548160ff021916908315150217905550612199611fad565b73ffffffffffffffffffffffffffffffffffffffff168173ffffffffffffffffffffffffffffffffffffffff16837f2f8788117e7eff1d82e926ec794901d17c78024a50270940304540a733656f0d60405160405180910390a45b5050565b6122028282611443565b156122d65760006007600084815260200190815260200160002060000160008373ffffffffffffffffffffffffffffffffffffffff1673ffffffffffffffffffffffffffffffffffffffff16815260200190815260200160002060006101000a81548160ff02191690831515021790555061227b611fad565b73ffffffffffffffffffffffffffffffffffffffff168173ffffffffffffffffffffffffffffffffffffffff16837ff6391f5c32d9c69d2a47ea670b442974b53935d1edc7fd64eb21e047a839171b60405160405180910390a45b5050565b600081600001549050919050565b60006002600083815260200190815260200160002060009054906101000a900473ffffffffffffffffffffffffffffffffffffffff169050919050565b8173ffffffffffffffffffffffffffffffffffffffff168373ffffffffffffffffffffffffffffffffffffffff161415612394576040517f08c379a000000000000000000000000000000000000000000000000000000000815260040161238b9061431d565b60405180910390fd5b80600560008573ffffffffffffffffffffffffffffffffffffffff1673ffffffffffffffffffffffffffffffffffffffff16815260200190815260200160002060008473ffffffffffffffffffffffffffffffffffffffff1673ffffffffffffffffffffffffffffffffffffffff16815260200190815260200160002060006101000a81548160ff0219169083151502179055508173ffffffffffffffffffffffffffffffffffffffff168373ffffffffffffffffffffffffffffffffffffffff167f17307eab39ab6107e8899845ad3d59bd9653f200f220920489ca2b5937696c318360405161248591906140e8565b60405180910390a3505050565b61249d848484611c9d565b6124a98484848461275b565b6124e8576040517f08c379a00000000000000000000000000000000000000000000000000000000081526004016124df9061429d565b60405180910390fd5b50505050565b606060405180602001604052806000815250905090565b60606125108261194e565b600061251a6124ee565b9050600081511161253a5760405180602001604052806000815250612565565b80612544846128f2565b604051602001612555929190613f93565b6040516020818303038152906040525b915050919050565b60007f01ffc9a7000000000000000000000000000000000000000000000000000000007bffffffffffffffffffffffffffffffffffffffffffffffffffffffff1916827bffffffffffffffffffffffffffffffffffffffffffffffffffffffff1916149050919050565b60008073ffffffffffffffffffffffffffffffffffffffff166125f9836122e8565b73ffffffffffffffffffffffffffffffffffffffff1614159050919050565b600061269c7f6316f9ddd4d59a364f3b95c26bab9d392c3380ace0fff15e91ed76f0d8bcd15a83600001358460200135858060400190612658919061452a565b604051612666929190613f7a565b60405180910390206040516020016126819493929190614171565b60405160208183030381529060405280519060200120612a16565b9050919050565b60008060006126b28585612a30565b915091506126bf81612a82565b819250505092915050565b50505050565b50505050565b6126e08282611443565b612757576126ed81612d20565b6126fb8360001c6020612d4d565b60405160200161270c929190613fee565b6040516020818303038152906040526040517f08c379a000000000000000000000000000000000000000000000000000000000815260040161274e91906141fb565b60405180910390fd5b5050565b600061277c8473ffffffffffffffffffffffffffffffffffffffff16613047565b156128e5578373ffffffffffffffffffffffffffffffffffffffff1663150b7a026127a5611fad565b8786866040518563ffffffff1660e01b81526004016127c7949392919061407a565b602060405180830381600087803b1580156127e157600080fd5b505af192505050801561281257506040513d601f19601f8201168201806040525081019061280f919061398c565b60015b612895573d8060008114612842576040519150601f19603f3d011682016040523d82523d6000602084013e612847565b606091505b5060008151141561288d576040517f08c379a00000000000000000000000000000000000000000000000000000000081526004016128849061429d565b60405180910390fd5b805181602001fd5b63150b7a0260e01b7bffffffffffffffffffffffffffffffffffffffffffffffffffffffff1916817bffffffffffffffffffffffffffffffffffffffffffffffffffffffff1916149150506128ea565b600190505b949350505050565b6060600060016129018461306a565b01905060008167ffffffffffffffff811115612946577f4e487b7100000000000000000000000000000000000000000000000000000000600052604160045260246000fd5b6040519080825280601f01601f1916602001820160405280156129785781602001600182028036833780820191505090505b509050600082602001820190505b600115612a0b578080600190039150507f3031323334353637383961626364656600000000000000000000000000000000600a86061a8153600a85816129f5577f4e487b7100000000000000000000000000000000000000000000000000000000600052601260045260246000fd5b0494506000851415612a0657612a0b565b612986565b819350505050919050565b6000612a29612a236132a1565b836133bb565b9050919050565b600080604183511415612a725760008060006020860151925060408601519150606086015160001a9050612a66878285856133ee565b94509450505050612a7b565b60006002915091505b9250929050565b60006004811115612abc577f4e487b7100000000000000000000000000000000000000000000000000000000600052602160045260246000fd5b816004811115612af5577f4e487b7100000000000000000000000000000000000000000000000000000000600052602160045260246000fd5b1415612b0057612d1d565b60016004811115612b3a577f4e487b7100000000000000000000000000000000000000000000000000000000600052602160045260246000fd5b816004811115612b73577f4e487b7100000000000000000000000000000000000000000000000000000000600052602160045260246000fd5b1415612bb4576040517f08c379a0000000000000000000000000000000000000000000000000000000008152600401612bab9061421d565b60405180910390fd5b60026004811115612bee577f4e487b7100000000000000000000000000000000000000000000000000000000600052602160045260246000fd5b816004811115612c27577f4e487b7100000000000000000000000000000000000000000000000000000000600052602160045260246000fd5b1415612c68576040517f08c379a0000000000000000000000000000000000000000000000000000000008152600401612c5f9061427d565b60405180910390fd5b60036004811115612ca2577f4e487b7100000000000000000000000000000000000000000000000000000000600052602160045260246000fd5b816004811115612cdb577f4e487b7100000000000000000000000000000000000000000000000000000000600052602160045260246000fd5b1415612d1c576040517f08c379a0000000000000000000000000000000000000000000000000000000008152600401612d139061433d565b60405180910390fd5b5b50565b6060612d468273ffffffffffffffffffffffffffffffffffffffff16601460ff16612d4d565b9050919050565b606060006002836002612d6091906146b4565b612d6a919061465e565b67ffffffffffffffff811115612da9577f4e487b7100000000000000000000000000000000000000000000000000000000600052604160045260246000fd5b6040519080825280601f01601f191660200182016040528015612ddb5781602001600182028036833780820191505090505b5090507f300000000000000000000000000000000000000000000000000000000000000081600081518110612e39577f4e487b7100000000000000000000000000000000000000000000000000000000600052603260045260246000fd5b60200101907effffffffffffffffffffffffffffffffffffffffffffffffffffffffffffff1916908160001a9053507f780000000000000000000000000000000000000000000000000000000000000081600181518110612ec3577f4e487b7100000000000000000000000000000000000000000000000000000000600052603260045260246000fd5b60200101907effffffffffffffffffffffffffffffffffffffffffffffffffffffffffffff1916908160001a90535060006001846002612f0391906146b4565b612f0d919061465e565b90505b6001811115612ff9577f3031323334353637383961626364656600000000000000000000000000000000600f861660108110612f75577f4e487b7100000000000000000000000000000000000000000000000000000000600052603260045260246000fd5b1a60f81b828281518110612fb2577f4e487b7100000000000000000000000000000000000000000000000000000000600052603260045260246000fd5b60200101907effffffffffffffffffffffffffffffffffffffffffffffffffffffffffffff1916908160001a905350600485901c945080612ff290614823565b9050612f10565b506000841461303d576040517f08c379a00000000000000000000000000000000000000000000000000000000081526004016130349061423d565b60405180910390fd5b8091505092915050565b6000808273ffffffffffffffffffffffffffffffffffffffff163b119050919050565b600080600090507a184f03e93ff9f4daa797ed6e38ed64bf6a1f01000000000000000083106130ee577a184f03e93ff9f4daa797ed6e38ed64bf6a1f01000000000000000083816130e4577f4e487b7100000000000000000000000000000000000000000000000000000000600052601260045260246000fd5b0492506040810190505b6d04ee2d6d415b85acef81000000008310613151576d04ee2d6d415b85acef81000000008381613147577f4e487b7100000000000000000000000000000000000000000000000000000000600052601260045260246000fd5b0492506020810190505b662386f26fc1000083106131a657662386f26fc10000838161319c577f4e487b7100000000000000000000000000000000000000000000000000000000600052601260045260246000fd5b0492506010810190505b6305f5e10083106131f5576305f5e10083816131eb577f4e487b7100000000000000000000000000000000000000000000000000000000600052601260045260246000fd5b0492506008810190505b6127108310613240576127108381613236577f4e487b7100000000000000000000000000000000000000000000000000000000600052601260045260246000fd5b0492506004810190505b60648310613289576064838161327f577f4e487b7100000000000000000000000000000000000000000000000000000000600052601260045260246000fd5b0492506002810190505b600a8310613298576001810190505b80915050919050565b60007f000000000000000000000000000000000000000000000000000000000000000073ffffffffffffffffffffffffffffffffffffffff163073ffffffffffffffffffffffffffffffffffffffff1614801561331d57507f000000000000000000000000000000000000000000000000000000000000000046145b1561334a577f000000000000000000000000000000000000000000000000000000000000000090506133b8565b6133b57f00000000000000000000000000000000000000000000000000000000000000007f00000000000000000000000000000000000000000000000000000000000000007f00000000000000000000000000000000000000000000000000000000000000006134d1565b90505b90565b600082826040516020016133d0929190613fb7565b60405160208183030381529060405280519060200120905092915050565b6000807f7fffffffffffffffffffffffffffffff5d576e7357a4501ddfe92f46681b20a08360001c11156134295760006003915091506134c8565b60006001878787876040516000815260200160405260405161344e94939291906141b6565b6020604051602081039080840390855afa158015613470573d6000803e3d6000fd5b505050602060405103519050600073ffffffffffffffffffffffffffffffffffffffff168173ffffffffffffffffffffffffffffffffffffffff1614156134bf576000600192509250506134c8565b80600092509250505b94509492505050565b600083838346306040516020016134ec95949392919061411e565b6040516020818303038152906040528051906020012090509392505050565b604051806080016040528060008152602001600073ffffffffffffffffffffffffffffffffffffffff168152602001600073ffffffffffffffffffffffffffffffffffffffff168152602001600081525090565b82805461356b9061484d565b90600052602060002090601f01602090048101928261358d57600085556135d4565b82601f106135a657805160ff19168380011785556135d4565b828001600101855582156135d4579182015b828111156135d35782518255916020019190600101906135b8565b5b5090506135e191906135e5565b5090565b5b808211156135fe5760008160009055506001016135e6565b5090565b6000613615613610846145a6565b614581565b90508281526020810184848401111561362d57600080fd5b6136388482856147e1565b509392505050565b60008135905061364f81614f18565b92915050565b60008135905061366481614f2f565b92915050565b60008135905061367981614f46565b92915050565b60008135905061368e81614f5d565b92915050565b6000815190506136a381614f5d565b92915050565b600082601f8301126136ba57600080fd5b81356136ca848260208601613602565b91505092915050565b6000608082840312156136e557600080fd5b81905092915050565b6000813590506136fd81614f74565b92915050565b60006020828403121561371557600080fd5b600061372384828501613640565b91505092915050565b6000806040838503121561373f57600080fd5b600061374d85828601613640565b925050602061375e85828601613640565b9150509250929050565b60008060006060848603121561377d57600080fd5b600061378b86828701613640565b935050602061379c86828701613640565b92505060406137ad868287016136ee565b9150509250925092565b600080600080608085870312156137cd57600080fd5b60006137db87828801613640565b94505060206137ec87828801613640565b93505060406137fd878288016136ee565b925050606085013567ffffffffffffffff81111561381a57600080fd5b613826878288016136a9565b91505092959194509250565b6000806040838503121561384557600080fd5b600061385385828601613640565b925050602061386485828601613655565b9150509250929050565b6000806040838503121561388157600080fd5b600061388f85828601613640565b925050602083013567ffffffffffffffff8111156138ac57600080fd5b6138b8858286016136d3565b9150509250929050565b600080604083850312156138d557600080fd5b60006138e385828601613640565b92505060206138f4858286016136ee565b9150509250929050565b60006020828403121561391057600080fd5b600061391e8482850161366a565b91505092915050565b6000806040838503121561393a57600080fd5b60006139488582860161366a565b925050602061395985828601613640565b9150509250929050565b60006020828403121561397557600080fd5b60006139838482850161367f565b91505092915050565b60006020828403121561399e57600080fd5b60006139ac84828501613694565b91505092915050565b6000602082840312156139c757600080fd5b60006139d5848285016136ee565b91505092915050565b60006139ea8383613ea3565b60808301905092915050565b6139ff816147ab565b82525050565b613a0e81614720565b82525050565b613a1d8161470e565b82525050565b6000613a2e826145e7565b613a388185614615565b9350613a43836145d7565b8060005b83811015613a74578151613a5b88826139de565b9750613a6683614608565b925050600181019050613a47565b5085935050505092915050565b613a8a81614732565b82525050565b613a998161473e565b82525050565b613ab0613aab8261473e565b6148f9565b82525050565b6000613ac28385614637565b9350613acf8385846147e1565b82840190509392505050565b6000613ae6826145f2565b613af08185614626565b9350613b008185602086016147f0565b613b0981614990565b840191505092915050565b6000613b1f826145fd565b613b298185614642565b9350613b398185602086016147f0565b613b4281614990565b840191505092915050565b6000613b58826145fd565b613b628185614653565b9350613b728185602086016147f0565b80840191505092915050565b6000613b8b601883614642565b9150613b96826149a1565b602082019050919050565b6000613bae602083614642565b9150613bb9826149ca565b602082019050919050565b6000613bd1602d83614642565b9150613bdc826149f3565b604082019050919050565b6000613bf4601f83614642565b9150613bff82614a42565b602082019050919050565b6000613c17603283614642565b9150613c2282614a6b565b604082019050919050565b6000613c3a602583614642565b9150613c4582614aba565b604082019050919050565b6000613c5d601c83614642565b9150613c6882614b09565b602082019050919050565b6000613c80600283614653565b9150613c8b82614b32565b600282019050919050565b6000613ca3602483614642565b9150613cae82614b5b565b604082019050919050565b6000613cc6601983614642565b9150613cd182614baa565b602082019050919050565b6000613ce9602283614642565b9150613cf482614bd3565b604082019050919050565b6000613d0c602983614642565b9150613d1782614c22565b604082019050919050565b6000613d2f602e83614642565b9150613d3a82614c71565b604082019050919050565b6000613d52601c83614642565b9150613d5d82614cc0565b602082019050919050565b6000613d75602083614642565b9150613d8082614ce9565b602082019050919050565b6000613d98602483614642565b9150613da382614d12565b604082019050919050565b6000613dbb601883614642565b9150613dc682614d61565b602082019050919050565b6000613dde602183614642565b9150613de982614d8a565b604082019050919050565b6000613e01602183614642565b9150613e0c82614dd9565b604082019050919050565b6000613e24603d83614642565b9150613e2f82614e28565b604082019050919050565b6000613e47601783614653565b9150613e5282614e77565b601782019050919050565b6000613e6a601183614653565b9150613e7582614ea0565b601182019050919050565b6000613e8d602f83614642565b9150613e9882614ec9565b604082019050919050565b608082016000820151613eb96000850182613f4d565b506020820151613ecc6020850182613a05565b506040820151613edf6040850182613a05565b506060820151613ef26060850182613f4d565b50505050565b608082016000820151613f0e6000850182613f4d565b506020820151613f216020850182613a05565b506040820151613f346040850182613a05565b506060820151613f476060850182613f4d565b50505050565b613f5681614794565b82525050565b613f6581614794565b82525050565b613f748161479e565b82525050565b6000613f87828486613ab6565b91508190509392505050565b6000613f9f8285613b4d565b9150613fab8284613b4d565b91508190509392505050565b6000613fc282613c73565b9150613fce8285613a9f565b602082019150613fde8284613a9f565b6020820191508190509392505050565b6000613ff982613e3a565b91506140058285613b4d565b915061401082613e5d565b915061401c8284613b4d565b91508190509392505050565b600060208201905061403d6000830184613a14565b92915050565b600060608201905061405860008301866139f6565b6140656020830185613a14565b6140726040830184613f5c565b949350505050565b600060808201905061408f6000830187613a14565b61409c6020830186613a14565b6140a96040830185613f5c565b81810360608301526140bb8184613adb565b905095945050505050565b600060208201905081810360008301526140e08184613a23565b905092915050565b60006020820190506140fd6000830184613a81565b92915050565b60006020820190506141186000830184613a90565b92915050565b600060a0820190506141336000830188613a90565b6141406020830187613a90565b61414d6040830186613a90565b61415a6060830185613f5c565b6141676080830184613a14565b9695505050505050565b60006080820190506141866000830187613a90565b6141936020830186613f5c565b6141a06040830185613f5c565b6141ad6060830184613a90565b95945050505050565b60006080820190506141cb6000830187613a90565b6141d86020830186613f6b565b6141e56040830185613a90565b6141f26060830184613a90565b95945050505050565b600060208201905081810360008301526142158184613b14565b905092915050565b6000602082019050818103600083015261423681613b7e565b9050919050565b6000602082019050818103600083015261425681613ba1565b9050919050565b6000602082019050818103600083015261427681613bc4565b9050919050565b6000602082019050818103600083015261429681613be7565b9050919050565b600060208201905081810360008301526142b681613c0a565b9050919050565b600060208201905081810360008301526142d681613c2d565b9050919050565b600060208201905081810360008301526142f681613c50565b9050919050565b6000602082019050818103600083015261431681613c96565b9050919050565b6000602082019050818103600083015261433681613cb9565b9050919050565b6000602082019050818103600083015261435681613cdc565b9050919050565b6000602082019050818103600083015261437681613cff565b9050919050565b6000602082019050818103600083015261439681613d22565b9050919050565b600060208201905081810360008301526143b681613d45565b9050919050565b600060208201905081810360008301526143d681613d68565b9050919050565b600060208201905081810360008301526143f681613d8b565b9050919050565b6000602082019050818103600083015261441681613dae565b9050919050565b6000602082019050818103600083015261443681613dd1565b9050919050565b6000602082019050818103600083015261445681613df4565b9050919050565b6000602082019050818103600083015261447681613e17565b9050919050565b6000602082019050818103600083015261449681613e80565b9050919050565b60006080820190506144b26000830184613ef8565b92915050565b60006020820190506144cd6000830184613f5c565b92915050565b600080833560016020038436030381126144ec57600080fd5b80840192508235915067ffffffffffffffff82111561450a57600080fd5b60208301925060018202360383131561452257600080fd5b509250929050565b6000808335600160200384360303811261454357600080fd5b80840192508235915067ffffffffffffffff82111561456157600080fd5b60208301925060018202360383131561457957600080fd5b509250929050565b600061458b61459c565b9050614597828261487f565b919050565b6000604051905090565b600067ffffffffffffffff8211156145c1576145c0614961565b5b6145ca82614990565b9050602081019050919050565b6000819050602082019050919050565b600081519050919050565b600081519050919050565b600081519050919050565b6000602082019050919050565b600082825260208201905092915050565b600082825260208201905092915050565b600081905092915050565b600082825260208201905092915050565b600081905092915050565b600061466982614794565b915061467483614794565b9250827fffffffffffffffffffffffffffffffffffffffffffffffffffffffffffffffff038211156146a9576146a8614903565b5b828201905092915050565b60006146bf82614794565b91506146ca83614794565b9250817fffffffffffffffffffffffffffffffffffffffffffffffffffffffffffffffff048311821515161561470357614702614903565b5b828202905092915050565b600061471982614774565b9050919050565b600061472b82614774565b9050919050565b60008115159050919050565b6000819050919050565b60007fffffffff0000000000000000000000000000000000000000000000000000000082169050919050565b600073ffffffffffffffffffffffffffffffffffffffff82169050919050565b6000819050919050565b600060ff82169050919050565b60006147b6826147bd565b9050919050565b60006147c8826147cf565b9050919050565b60006147da82614774565b9050919050565b82818337600083830152505050565b60005b8381101561480e5780820151818401526020810190506147f3565b8381111561481d576000848401525b50505050565b600061482e82614794565b9150600082141561484257614841614903565b5b600182039050919050565b6000600282049050600182168061486557607f821691505b6020821081141561487957614878614932565b5b50919050565b61488882614990565b810181811067ffffffffffffffff821117156148a7576148a6614961565b5b80604052505050565b60006148bb82614794565b91507fffffffffffffffffffffffffffffffffffffffffffffffffffffffffffffffff8214156148ee576148ed614903565b5b600182019050919050565b6000819050919050565b7f4e487b7100000000000000000000000000000000000000000000000000000000600052601160045260246000fd5b7f4e487b7100000000000000000000000000000000000000000000000000000000600052602260045260246000fd5b7f4e487b7100000000000000000000000000000000000000000000000000000000600052604160045260246000fd5b6000601f19601f8301169050919050565b7f45434453413a20696e76616c6964207369676e61747572650000000000000000600082015250565b7f537472696e67733a20686578206c656e67746820696e73756666696369656e74600082015250565b7f4552433732313a2063616c6c6572206973206e6f7420746f6b656e206f776e6560008201527f72206f7220617070726f76656400000000000000000000000000000000000000602082015250565b7f45434453413a20696e76616c6964207369676e6174757265206c656e67746800600082015250565b7f4552433732313a207472616e7366657220746f206e6f6e20455243373231526560008201527f63656976657220696d706c656d656e7465720000000000000000000000000000602082015250565b7f4552433732313a207472616e736665722066726f6d20696e636f72726563742060008201527f6f776e6572000000000000000000000000000000000000000000000000000000602082015250565b7f4552433732313a20746f6b656e20616c7265616479206d696e74656400000000600082015250565b7f1901000000000000000000000000000000000000000000000000000000000000600082015250565b7f4552433732313a207472616e7366657220746f20746865207a65726f2061646460008201527f7265737300000000000000000000000000000000000000000000000000000000602082015250565b7f4552433732313a20617070726f766520746f2063616c6c657200000000000000600082015250565b7f45434453413a20696e76616c6964207369676e6174757265202773272076616c60008201527f7565000000000000000000000000000000000000000000000000000000000000602082015250565b7f4552433732313a2061646472657373207a65726f206973206e6f74206120766160008201527f6c6964206f776e65720000000000000000000000000000000000000000000000602082015250565b7f45524337323155524953746f726167653a2055524920736574206f66206e6f6e60008201527f6578697374656e7420746f6b656e000000000000000000000000000000000000602082015250565b7f496e73756666696369656e742066756e647320746f2072656465656d00000000600082015250565b7f4552433732313a206d696e7420746f20746865207a65726f2061646472657373600082015250565b7f4f6e6c7920617574686f72697a6564206d696e746572732063616e207769746860008201527f6472617700000000000000000000000000000000000000000000000000000000602082015250565b7f4552433732313a20696e76616c696420746f6b656e2049440000000000000000600082015250565b7f4552433732313a20617070726f76616c20746f2063757272656e74206f776e6560008201527f7200000000000000000000000000000000000000000000000000000000000000602082015250565b7f5369676e617475726520696e76616c6964206f7220756e617574686f72697a6560008201527f6400000000000000000000000000000000000000000000000000000000000000602082015250565b7f4552433732313a20617070726f76652063616c6c6572206973206e6f7420746f60008201527f6b656e206f776e6572206f7220617070726f76656420666f7220616c6c000000602082015250565b7f416363657373436f6e74726f6c3a206163636f756e7420000000000000000000600082015250565b7f206973206d697373696e6720726f6c6520000000000000000000000000000000600082015250565b7f416363657373436f6e74726f6c3a2063616e206f6e6c792072656e6f756e636560008201527f20726f6c657320666f722073656c660000000000000000000000000000000000602082015250565b614f218161470e565b8114614f2c57600080fd5b50565b614f3881614732565b8114614f4357600080fd5b50565b614f4f8161473e565b8114614f5a57600080fd5b50565b614f6681614748565b8114614f7157600080fd5b50565b614f7d81614794565b8114614f8857600080fd5b5056fea26469706673582212207e626c381537100877a64e51f40436a8f117012303fb1cce4c12e8764876687e64736f6c63430008040033",
  "linkReferences": {},
  "deployedLinkReferences": {}
}