{
  "_format": "hh-sol-artifact-1",
  "contractName": "LazyNFT",
  "sourceName": "contracts/LazyNFT.sol",
  "abi": [
    {
      "inputs": [
        {
          "internalType": "address payable",
          "name": "minter",
          "type": "address"
        }
      ],
      "stateMutability": "nonpayable",
      "type": "constructor"
    },
    {
      "anonymous": false,
      "inputs": [
        {
          "indexed": true,
          "internalType": "address",
          "name": "owner",
          "type": "address"
        },
        {
          "indexed": true,
          "internalType": "address",
          "name": "approved",
          "type": "address"
        },
        {
          "indexed": true,
          "internalType": "uint256",
          "name": "tokenId",
          "type": "uint256"
        }
      ],
      "name": "Approval",
      "type": "event"
    },
    {
      "anonymous": false,
      "inputs": [
        {
          "indexed": true,
          "internalType": "address",
          "name": "owner",
          "type": "address"
        },
        {
          "indexed": true,
          "internalType": "address",
          "name": "operator",
          "type": "address"
        },
        {
          "indexed": false,
          "internalType": "bool",
          "name": "approved",
          "type": "bool"
        }
      ],
      "name": "ApprovalForAll",
      "type": "event"
    },
    {
      "anonymous": false,
      "inputs": [
        {
          "indexed": true,
          "internalType": "bytes32",
          "name": "role",
          "type": "bytes32"
        },
        {
          "indexed": true,
          "internalType": "bytes32",
          "name": "previousAdminRole",
          "type": "bytes32"
        },
        {
          "indexed": true,
          "internalType": "bytes32",
          "name": "newAdminRole",
          "type": "bytes32"
        }
      ],
      "name": "RoleAdminChanged",
      "type": "event"
    },
    {
      "anonymous": false,
      "inputs": [
        {
          "indexed": true,
          "internalType": "bytes32",
          "name": "role",
          "type": "bytes32"
        },
        {
          "indexed": true,
          "internalType": "address",
          "name": "account",
          "type": "address"
        },
        {
          "indexed": true,
          "internalType": "address",
          "name": "sender",
          "type": "address"
        }
      ],
      "name": "RoleGranted",
      "type": "event"
    },
    {
      "anonymous": false,
      "inputs": [
        {
          "indexed": true,
          "internalType": "bytes32",
          "name": "role",
          "type": "bytes32"
        },
        {
          "indexed": true,
          "internalType": "address",
          "name": "account",
          "type": "address"
        },
        {
          "indexed": true,
          "internalType": "address",
          "name": "sender",
          "type": "address"
        }
      ],
      "name": "RoleRevoked",
      "type": "event"
    },
    {
      "anonymous": false,
      "inputs": [
        {
          "indexed": true,
          "internalType": "uint256",
          "name": "tokenId",
          "type": "uint256"
        },
        {
          "indexed": false,
          "internalType": "address",
          "name": "owner",
          "type": "address"
        },
        {
          "indexed": false,
          "internalType": "address",
          "name": "seller",
          "type": "address"
        },
        {
          "indexed": false,
          "internalType": "uint256",
          "name": "price",
          "type": "uint256"
        }
      ],
      "name": "TokenListedSuccess",
      "type": "event"
    },
    {
      "anonymous": false,
      "inputs": [
        {
          "indexed": true,
          "internalType": "address",
          "name": "from",
          "type": "address"
        },
        {
          "indexed": true,
          "internalType": "address",
          "name": "to",
          "type": "address"
        },
        {
          "indexed": true,
          "internalType": "uint256",
          "name": "tokenId",
          "type": "uint256"
        }
      ],
      "name": "Transfer",
      "type": "event"
    },
    {
      "inputs": [],
      "name": "DEFAULT_ADMIN_ROLE",
      "outputs": [
        {
          "internalType": "bytes32",
          "name": "",
          "type": "bytes32"
        }
      ],
      "stateMutability": "view",
      "type": "function"
    },
    {
      "inputs": [],
      "name": "MINTER_ROLE",
      "outputs": [
        {
          "internalType": "bytes32",
          "name": "",
          "type": "bytes32"
        }
      ],
      "stateMutability": "view",
      "type": "function"
    },
    {
      "inputs": [
        {
          "internalType": "address",
          "name": "to",
          "type": "address"
        },
        {
          "internalType": "uint256",
          "name": "tokenId",
          "type": "uint256"
        }
      ],
      "name": "approve",
      "outputs": [],
      "stateMutability": "nonpayable",
      "type": "function"
    },
    {
      "inputs": [],
      "name": "availableToWithdraw",
      "outputs": [
        {
          "internalType": "uint256",
          "name": "",
          "type": "uint256"
        }
      ],
      "stateMutability": "view",
      "type": "function"
    },
    {
      "inputs": [
        {
          "internalType": "address",
          "name": "owner",
          "type": "address"
        }
      ],
      "name": "balanceOf",
      "outputs": [
        {
          "internalType": "uint256",
          "name": "",
          "type": "uint256"
        }
      ],
      "stateMutability": "view",
      "type": "function"
    },
    {
      "inputs": [
        {
          "internalType": "uint256",
          "name": "tokenId",
          "type": "uint256"
        }
      ],
      "name": "getApproved",
      "outputs": [
        {
          "internalType": "address",
          "name": "",
          "type": "address"
        }
      ],
      "stateMutability": "view",
      "type": "function"
    },
    {
      "inputs": [],
      "name": "getChainID",
      "outputs": [
        {
          "internalType": "uint256",
          "name": "",
          "type": "uint256"
        }
      ],
      "stateMutability": "view",
      "type": "function"
    },
    {
      "inputs": [
        {
          "internalType": "uint256",
          "name": "tokenId",
          "type": "uint256"
        }
      ],
      "name": "getListedTokenForId",
      "outputs": [
        {
          "components": [
            {
              "internalType": "uint256",
              "name": "tokenId",
              "type": "uint256"
            },
            {
              "internalType": "address payable",
              "name": "owner",
              "type": "address"
            },
            {
              "internalType": "address payable",
              "name": "seller",
              "type": "address"
            },
            {
              "internalType": "uint256",
              "name": "price",
              "type": "uint256"
            }
          ],
          "internalType": "struct LazyNFT.ListedToken",
          "name": "",
          "type": "tuple"
        }
      ],
      "stateMutability": "view",
      "type": "function"
    },
    {
      "inputs": [],
      "name": "getMyNFTs",
      "outputs": [
        {
          "components": [
            {
              "internalType": "uint256",
              "name": "tokenId",
              "type": "uint256"
            },
            {
              "internalType": "address payable",
              "name": "owner",
              "type": "address"
            },
            {
              "internalType": "address payable",
              "name": "seller",
              "type": "address"
            },
            {
              "internalType": "uint256",
              "name": "price",
              "type": "uint256"
            }
          ],
          "internalType": "struct LazyNFT.ListedToken[]",
          "name": "",
          "type": "tuple[]"
        }
      ],
      "stateMutability": "view",
      "type": "function"
    },
    {
      "inputs": [
        {
          "internalType": "bytes32",
          "name": "role",
          "type": "bytes32"
        }
      ],
      "name": "getRoleAdmin",
      "outputs": [
        {
          "internalType": "bytes32",
          "name": "",
          "type": "bytes32"
        }
      ],
      "stateMutability": "view",
      "type": "function"
    },
    {
      "inputs": [
        {
          "internalType": "bytes32",
          "name": "role",
          "type": "bytes32"
        },
        {
          "internalType": "address",
          "name": "account",
          "type": "address"
        }
      ],
      "name": "grantRole",
      "outputs": [],
      "stateMutability": "nonpayable",
      "type": "function"
    },
    {
      "inputs": [
        {
          "internalType": "bytes32",
          "name": "role",
          "type": "bytes32"
        },
        {
          "internalType": "address",
          "name": "account",
          "type": "address"
        }
      ],
      "name": "hasRole",
      "outputs": [
        {
          "internalType": "bool",
          "name": "",
          "type": "bool"
        }
      ],
      "stateMutability": "view",
      "type": "function"
    },
    {
      "inputs": [
        {
          "internalType": "address",
          "name": "owner",
          "type": "address"
        },
        {
          "internalType": "address",
          "name": "operator",
          "type": "address"
        }
      ],
      "name": "isApprovedForAll",
      "outputs": [
        {
          "internalType": "bool",
          "name": "",
          "type": "bool"
        }
      ],
      "stateMutability": "view",
      "type": "function"
    },
    {
      "inputs": [],
      "name": "name",
      "outputs": [
        {
          "internalType": "string",
          "name": "",
          "type": "string"
        }
      ],
      "stateMutability": "view",
      "type": "function"
    },
    {
      "inputs": [
        {
          "internalType": "uint256",
          "name": "tokenId",
          "type": "uint256"
        }
      ],
      "name": "ownerOf",
      "outputs": [
        {
          "internalType": "address",
          "name": "",
          "type": "address"
        }
      ],
      "stateMutability": "view",
      "type": "function"
    },
    {
      "inputs": [
        {
          "internalType": "address",
          "name": "redeemer",
          "type": "address"
        },
        {
          "components": [
            {
              "internalType": "uint256",
              "name": "tokenId",
              "type": "uint256"
            },
            {
              "internalType": "uint256",
              "name": "minPrice",
              "type": "uint256"
            },
            {
              "internalType": "string",
              "name": "uri",
              "type": "string"
            },
            {
              "internalType": "bytes",
              "name": "signature",
              "type": "bytes"
            }
          ],
          "internalType": "struct LazyNFT.NFTVoucher",
          "name": "voucher",
          "type": "tuple"
        }
      ],
      "name": "redeem",
      "outputs": [
        {
          "internalType": "uint256",
          "name": "",
          "type": "uint256"
        }
      ],
      "stateMutability": "payable",
      "type": "function"
    },
    {
      "inputs": [
        {
          "internalType": "bytes32",
          "name": "role",
          "type": "bytes32"
        },
        {
          "internalType": "address",
          "name": "account",
          "type": "address"
        }
      ],
      "name": "renounceRole",
      "outputs": [],
      "stateMutability": "nonpayable",
      "type": "function"
    },
    {
      "inputs": [
        {
          "internalType": "bytes32",
          "name": "role",
          "type": "bytes32"
        },
        {
          "internalType": "address",
          "name": "account",
          "type": "address"
        }
      ],
      "name": "revokeRole",
      "outputs": [],
      "stateMutability": "nonpayable",
      "type": "function"
    },
    {
      "inputs": [
        {
          "internalType": "address",
          "name": "from",
          "type": "address"
        },
        {
          "internalType": "address",
          "name": "to",
          "type": "address"
        },
        {
          "internalType": "uint256",
          "name": "tokenId",
          "type": "uint256"
        }
      ],
      "name": "safeTransferFrom",
      "outputs": [],
      "stateMutability": "nonpayable",
      "type": "function"
    },
    {
      "inputs": [
        {
          "internalType": "address",
          "name": "from",
          "type": "address"
        },
        {
          "internalType": "address",
          "name": "to",
          "type": "address"
        },
        {
          "internalType": "uint256",
          "name": "tokenId",
          "type": "uint256"
        },
        {
          "internalType": "bytes",
          "name": "data",
          "type": "bytes"
        }
      ],
      "name": "safeTransferFrom",
      "outputs": [],
      "stateMutability": "nonpayable",
      "type": "function"
    },
    {
      "inputs": [
        {
          "internalType": "address",
          "name": "operator",
          "type": "address"
        },
        {
          "internalType": "bool",
          "name": "approved",
          "type": "bool"
        }
      ],
      "name": "setApprovalForAll",
      "outputs": [],
      "stateMutability": "nonpayable",
      "type": "function"
    },
    {
      "inputs": [
        {
          "internalType": "bytes4",
          "name": "interfaceId",
          "type": "bytes4"
        }
      ],
      "name": "supportsInterface",
      "outputs": [
        {
          "internalType": "bool",
          "name": "",
          "type": "bool"
        }
      ],
      "stateMutability": "view",
      "type": "function"
    },
    {
      "inputs": [],
      "name": "symbol",
      "outputs": [
        {
          "internalType": "string",
          "name": "",
          "type": "string"
        }
      ],
      "stateMutability": "view",
      "type": "function"
    },
    {
      "inputs": [
        {
          "internalType": "uint256",
          "name": "tokenId",
          "type": "uint256"
        }
      ],
      "name": "tokenURI",
      "outputs": [
        {
          "internalType": "string",
          "name": "",
          "type": "string"
        }
      ],
      "stateMutability": "view",
      "type": "function"
    },
    {
      "inputs": [
        {
          "internalType": "address payable",
          "name": "seller",
          "type": "address"
        },
        {
          "internalType": "uint256",
          "name": "amount",
          "type": "uint256"
        }
      ],
      "name": "transferEther",
      "outputs": [
        {
          "internalType": "uint256",
          "name": "",
          "type": "uint256"
        }
      ],
      "stateMutability": "payable",
      "type": "function"
    },
    {
      "inputs": [
        {
          "internalType": "address",
          "name": "from",
          "type": "address"
        },
        {
          "internalType": "address",
          "name": "to",
          "type": "address"
        },
        {
          "internalType": "uint256",
          "name": "tokenId",
          "type": "uint256"
        }
      ],
      "name": "transferFrom",
      "outputs": [],
      "stateMutability": "nonpayable",
      "type": "function"
    },
    {
      "inputs": [],
      "name": "withdraw",
      "outputs": [],
      "stateMutability": "nonpayable",
      "type": "function"
    }
  ],
  "bytecode": "0x6101406040523480156200001257600080fd5b506040516200590a3803806200590a8339818101604052810190620000389190620004b0565b6040518060400160405280600f81526020017f4c617a794e46542d566f756368657200000000000000000000000000000000008152506040518060400160405280600181526020017f31000000000000000000000000000000000000000000000000000000000000008152506040518060400160405280600781526020017f4c617a794e4654000000000000000000000000000000000000000000000000008152506040518060400160405280600381526020017f4c415a0000000000000000000000000000000000000000000000000000000000815250816000908051906020019062000128929190620003e9565b50806001908051906020019062000141929190620003e9565b50505060008280519060200120905060008280519060200120905060007f8b73c3c69bb8fe3d512ecc4cf759cc79239f7b179b0ffacaa9a75d522b39400f90508260e081815250508161010081815250504660a08181525050620001ad8184846200023260201b60201c565b608081815250503073ffffffffffffffffffffffffffffffffffffffff1660c08173ffffffffffffffffffffffffffffffffffffffff1660601b8152505080610120818152505050505050506200022b7f9f2df0fed2c77648de5860a4cc508cd0818c85b8b8a1ab4ceeef8d981c8956a6826200026e60201b60201c565b5062000647565b600083838346306040516020016200024f9594939291906200050f565b6040516020818303038152906040528051906020012090509392505050565b6200028082826200028460201b60201c565b5050565b6200029682826200037660201b60201c565b620003725760016007600084815260200190815260200160002060000160008373ffffffffffffffffffffffffffffffffffffffff1673ffffffffffffffffffffffffffffffffffffffff16815260200190815260200160002060006101000a81548160ff02191690831515021790555062000317620003e160201b60201c565b73ffffffffffffffffffffffffffffffffffffffff168173ffffffffffffffffffffffffffffffffffffffff16837f2f8788117e7eff1d82e926ec794901d17c78024a50270940304540a733656f0d60405160405180910390a45b5050565b60006007600084815260200190815260200160002060000160008373ffffffffffffffffffffffffffffffffffffffff1673ffffffffffffffffffffffffffffffffffffffff16815260200190815260200160002060009054906101000a900460ff16905092915050565b600033905090565b828054620003f790620005c8565b90600052602060002090601f0160209004810192826200041b576000855562000467565b82601f106200043657805160ff191683800117855562000467565b8280016001018555821562000467579182015b828111156200046657825182559160200191906001019062000449565b5b5090506200047691906200047a565b5090565b5b80821115620004955760008160009055506001016200047b565b5090565b600081519050620004aa816200062d565b92915050565b600060208284031215620004c357600080fd5b6000620004d38482850162000499565b91505092915050565b620004e7816200056c565b82525050565b620004f88162000594565b82525050565b6200050981620005be565b82525050565b600060a082019050620005266000830188620004ed565b620005356020830187620004ed565b620005446040830186620004ed565b620005536060830185620004fe565b620005626080830184620004dc565b9695505050505050565b600062000579826200059e565b9050919050565b60006200058d826200059e565b9050919050565b6000819050919050565b600073ffffffffffffffffffffffffffffffffffffffff82169050919050565b6000819050919050565b60006002820490506001821680620005e157607f821691505b60208210811415620005f857620005f7620005fe565b5b50919050565b7f4e487b7100000000000000000000000000000000000000000000000000000000600052602260045260246000fd5b620006388162000580565b81146200064457600080fd5b50565b60805160a05160c05160601c60e05161010051610120516152706200069a6000396000613498015260006134da015260006134b9015260006133ee015260006134440152600061346d01526152706000f3fe60806040526004361061019c5760003560e01c8063629cb2e4116100ec578063a22cb4651161008a578063d539139311610064578063d5391393146105f6578063d547741f14610621578063e322ad2b1461064a578063e985e9c5146106755761019c565b8063a22cb46514610567578063b88d4fde14610590578063c87b56dd146105b95761019c565b80638e264590116100c65780638e2645901461049757806391d14854146104d457806395d89b4114610511578063a217fddf1461053c5761019c565b8063629cb2e4146103f25780636352211e1461041d57806370a082311461045a5761019c565b806323b872dd1161015957806336568abe1161013357806336568abe1461035e5780633ccfd60b1461038757806342842e0e1461039e578063564b81ef146103c75761019c565b806323b872dd146102cf578063248a9ca3146102f85780632f2ff15d146103355761019c565b806301ffc9a7146101a157806305b1137b146101de57806306fdde031461020e578063081812fc1461023957806308708a7814610276578063095ea7b3146102a6575b600080fd5b3480156101ad57600080fd5b506101c860048036038101906101c39190613afd565b6106b2565b6040516101d591906142c8565b60405180910390f35b6101f860048036038101906101f3919061388a565b6106d4565b60405161020591906146d8565b60405180910390f35b34801561021a57600080fd5b506102236107d2565b60405161023091906143db565b60405180910390f35b34801561024557600080fd5b50610260600480360381019061025b9190613b4f565b610864565b60405161026d9190614208565b60405180910390f35b610290600480360381019061028b9190613a08565b6108aa565b60405161029d91906146d8565b60405180910390f35b3480156102b257600080fd5b506102cd60048036038101906102c89190613a5c565b610ba8565b005b3480156102db57600080fd5b506102f660048036038101906102f19190613902565b610cc0565b005b34801561030457600080fd5b5061031f600480360381019061031a9190613a98565b610d20565b60405161032c91906142e3565b60405180910390f35b34801561034157600080fd5b5061035c60048036038101906103579190613ac1565b610d40565b005b34801561036a57600080fd5b5061038560048036038101906103809190613ac1565b610d61565b005b34801561039357600080fd5b5061039c610de4565b005b3480156103aa57600080fd5b506103c560048036038101906103c09190613902565b610f26565b005b3480156103d357600080fd5b506103dc610f46565b6040516103e991906146d8565b60405180910390f35b3480156103fe57600080fd5b50610407610f4e565b60405161041491906142a6565b60405180910390f35b34801561042957600080fd5b50610444600480360381019061043f9190613b4f565b611360565b6040516104519190614208565b60405180910390f35b34801561046657600080fd5b50610481600480360381019061047c9190613861565b6113e7565b60405161048e91906146d8565b60405180910390f35b3480156104a357600080fd5b506104be60048036038101906104b99190613b4f565b61149f565b6040516104cb91906146bd565b60405180910390f35b3480156104e057600080fd5b506104fb60048036038101906104f69190613ac1565b61158c565b60405161050891906142c8565b60405180910390f35b34801561051d57600080fd5b506105266115f7565b60405161053391906143db565b60405180910390f35b34801561054857600080fd5b50610551611689565b60405161055e91906142e3565b60405180910390f35b34801561057357600080fd5b5061058e600480360381019061058991906139cc565b611690565b005b34801561059c57600080fd5b506105b760048036038101906105b29190613951565b6116a6565b005b3480156105c557600080fd5b506105e060048036038101906105db9190613b4f565b611708565b6040516105ed91906143db565b60405180910390f35b34801561060257600080fd5b5061060b61181b565b60405161061891906142e3565b60405180910390f35b34801561062d57600080fd5b5061064860048036038101906106439190613ac1565b61183f565b005b34801561065657600080fd5b5061065f611860565b60405161066c91906146d8565b60405180910390f35b34801561068157600080fd5b5061069c600480360381019061069791906138c6565b6118a7565b6040516106a991906142c8565b60405180910390f35b60006106bd8261193b565b806106cd57506106cc82611a1d565b5b9050919050565b60006107007f9f2df0fed2c77648de5860a4cc508cd0818c85b8b8a1ab4ceeef8d981c8956a63361158c565b61073f576040517f08c379a0000000000000000000000000000000000000000000000000000000008152600401610736906145fd565b60405180910390fd5b81341015610782576040517f08c379a00000000000000000000000000000000000000000000000000000000081526004016107799061451d565b60405180910390fd5b8273ffffffffffffffffffffffffffffffffffffffff166108fc839081150290604051600060405180830381858888f193505050501580156107c8573d6000803e3d6000fd5b5081905092915050565b6060600080546107e190614a6d565b80601f016020809104026020016040519081016040528092919081815260200182805461080d90614a6d565b801561085a5780601f1061082f5761010080835404028352916020019161085a565b820191906000526020600020905b81548152906001019060200180831161083d57829003601f168201915b5050505050905090565b600061086f82611a97565b6004600083815260200190815260200160002060009054906101000a900473ffffffffffffffffffffffffffffffffffffffff169050919050565b6000806108b683611ae2565b90506108e27f9f2df0fed2c77648de5860a4cc508cd0818c85b8b8a1ab4ceeef8d981c8956a68261158c565b610921576040517f08c379a00000000000000000000000000000000000000000000000000000000081526004016109189061465d565b60405180910390fd5b8260200135341015610968576040517f08c379a000000000000000000000000000000000000000000000000000000000815260040161095f9061459d565b60405180910390fd5b610976818460000135611b54565b6109d6836000013584806040019061098e919061474a565b8080601f016020809104026020016040519081016040528093929190818152602001838380828437600081840152601f19601f82011690508083019250505050505050611d72565b6109e581858560000135611de6565b34600a60008373ffffffffffffffffffffffffffffffffffffffff1673ffffffffffffffffffffffffffffffffffffffff1681526020019081526020016000206000828254610a34919061487e565b92505081905550610a4560096120e0565b6040518060800160405280846000013581526020018573ffffffffffffffffffffffffffffffffffffffff1681526020018273ffffffffffffffffffffffffffffffffffffffff1681526020018460200135815250600b6000856000013581526020019081526020016000206000820151816000015560208201518160010160006101000a81548173ffffffffffffffffffffffffffffffffffffffff021916908373ffffffffffffffffffffffffffffffffffffffff16021790555060408201518160020160006101000a81548173ffffffffffffffffffffffffffffffffffffffff021916908373ffffffffffffffffffffffffffffffffffffffff1602179055506060820151816003015590505082600001357f73d1f44e8599423e5f8f3a30534a5204646f265174461a4fb3e516be55d4646285838660200135604051610b9293929190614223565b60405180910390a2826000013591505092915050565b6000610bb382611360565b90508073ffffffffffffffffffffffffffffffffffffffff168373ffffffffffffffffffffffffffffffffffffffff161415610c24576040517f08c379a0000000000000000000000000000000000000000000000000000000008152600401610c1b9061463d565b60405180910390fd5b8073ffffffffffffffffffffffffffffffffffffffff16610c436120f6565b73ffffffffffffffffffffffffffffffffffffffff161480610c725750610c7181610c6c6120f6565b6118a7565b5b610cb1576040517f08c379a0000000000000000000000000000000000000000000000000000000008152600401610ca89061467d565b60405180910390fd5b610cbb83836120fe565b505050565b610cd1610ccb6120f6565b826121b7565b610d10576040517f08c379a0000000000000000000000000000000000000000000000000000000008152600401610d079061443d565b60405180910390fd5b610d1b838383611de6565b505050565b600060076000838152602001908152602001600020600101549050919050565b610d4982610d20565b610d528161224c565b610d5c8383612260565b505050565b610d696120f6565b73ffffffffffffffffffffffffffffffffffffffff168173ffffffffffffffffffffffffffffffffffffffff1614610dd6576040517f08c379a0000000000000000000000000000000000000000000000000000000008152600401610dcd9061469d565b60405180910390fd5b610de08282612341565b5050565b610e0e7f9f2df0fed2c77648de5860a4cc508cd0818c85b8b8a1ab4ceeef8d981c8956a63361158c565b610e4d576040517f08c379a0000000000000000000000000000000000000000000000000000000008152600401610e44906145dd565b60405180910390fd5b60003390506000600a60008373ffffffffffffffffffffffffffffffffffffffff1673ffffffffffffffffffffffffffffffffffffffff1681526020019081526020016000205490506000600a60008473ffffffffffffffffffffffffffffffffffffffff1673ffffffffffffffffffffffffffffffffffffffff168152602001908152602001600020819055508173ffffffffffffffffffffffffffffffffffffffff166108fc829081150290604051600060405180830381858888f19350505050158015610f21573d6000803e3d6000fd5b505050565b610f41838383604051806020016040528060008152506116a6565b505050565b600046905090565b60606000610f5c6009612423565b9050600080600080600090505b84811015611082573373ffffffffffffffffffffffffffffffffffffffff16600b6000600184610f99919061487e565b815260200190815260200160002060010160009054906101000a900473ffffffffffffffffffffffffffffffffffffffff1673ffffffffffffffffffffffffffffffffffffffff16148061105a57503373ffffffffffffffffffffffffffffffffffffffff16600b6000600184611010919061487e565b815260200190815260200160002060020160009054906101000a900473ffffffffffffffffffffffffffffffffffffffff1673ffffffffffffffffffffffffffffffffffffffff16145b1561106f5760018461106c919061487e565b93505b808061107a90614ad0565b915050610f69565b5060008367ffffffffffffffff8111156110c5577f4e487b7100000000000000000000000000000000000000000000000000000000600052604160045260246000fd5b6040519080825280602002602001820160405280156110fe57816020015b6110eb613654565b8152602001906001900390816110e35790505b50905060005b85811015611354573373ffffffffffffffffffffffffffffffffffffffff16600b6000600184611134919061487e565b815260200190815260200160002060010160009054906101000a900473ffffffffffffffffffffffffffffffffffffffff1673ffffffffffffffffffffffffffffffffffffffff1614806111f557503373ffffffffffffffffffffffffffffffffffffffff16600b60006001846111ab919061487e565b815260200190815260200160002060020160009054906101000a900473ffffffffffffffffffffffffffffffffffffffff1673ffffffffffffffffffffffffffffffffffffffff16145b1561134157600181611207919061487e565b92506000600b6000858152602001908152602001600020905080604051806080016040529081600082015481526020016001820160009054906101000a900473ffffffffffffffffffffffffffffffffffffffff1673ffffffffffffffffffffffffffffffffffffffff1673ffffffffffffffffffffffffffffffffffffffff1681526020016002820160009054906101000a900473ffffffffffffffffffffffffffffffffffffffff1673ffffffffffffffffffffffffffffffffffffffff1673ffffffffffffffffffffffffffffffffffffffff168152602001600382015481525050838681518110611325577f4e487b7100000000000000000000000000000000000000000000000000000000600052603260045260246000fd5b602002602001018190525060018561133d919061487e565b9450505b808061134c90614ad0565b915050611104565b50809550505050505090565b60008061136c83612431565b9050600073ffffffffffffffffffffffffffffffffffffffff168173ffffffffffffffffffffffffffffffffffffffff1614156113de576040517f08c379a00000000000000000000000000000000000000000000000000000000081526004016113d59061461d565b60405180910390fd5b80915050919050565b60008073ffffffffffffffffffffffffffffffffffffffff168273ffffffffffffffffffffffffffffffffffffffff161415611458576040517f08c379a000000000000000000000000000000000000000000000000000000000815260040161144f9061455d565b60405180910390fd5b600360008373ffffffffffffffffffffffffffffffffffffffff1673ffffffffffffffffffffffffffffffffffffffff168152602001908152602001600020549050919050565b6114a7613654565b600b6000838152602001908152602001600020604051806080016040529081600082015481526020016001820160009054906101000a900473ffffffffffffffffffffffffffffffffffffffff1673ffffffffffffffffffffffffffffffffffffffff1673ffffffffffffffffffffffffffffffffffffffff1681526020016002820160009054906101000a900473ffffffffffffffffffffffffffffffffffffffff1673ffffffffffffffffffffffffffffffffffffffff1673ffffffffffffffffffffffffffffffffffffffff1681526020016003820154815250509050919050565b60006007600084815260200190815260200160002060000160008373ffffffffffffffffffffffffffffffffffffffff1673ffffffffffffffffffffffffffffffffffffffff16815260200190815260200160002060009054906101000a900460ff16905092915050565b60606001805461160690614a6d565b80601f016020809104026020016040519081016040528092919081815260200182805461163290614a6d565b801561167f5780601f106116545761010080835404028352916020019161167f565b820191906000526020600020905b81548152906001019060200180831161166257829003601f168201915b5050505050905090565b6000801b81565b6116a261169b6120f6565b838361246e565b5050565b6116b76116b16120f6565b836121b7565b6116f6576040517f08c379a00000000000000000000000000000000000000000000000000000000081526004016116ed9061443d565b60405180910390fd5b611702848484846125db565b50505050565b606061171382611a97565b600060066000848152602001908152602001600020805461173390614a6d565b80601f016020809104026020016040519081016040528092919081815260200182805461175f90614a6d565b80156117ac5780601f10611781576101008083540402835291602001916117ac565b820191906000526020600020905b81548152906001019060200180831161178f57829003601f168201915b5050505050905060006117bd612637565b90506000815114156117d3578192505050611816565b6000825111156118085780826040516020016117f0929190614173565b60405160208183030381529060405292505050611816565b6118118461264e565b925050505b919050565b7f9f2df0fed2c77648de5860a4cc508cd0818c85b8b8a1ab4ceeef8d981c8956a681565b61184882610d20565b6118518161224c565b61185b8383612341565b505050565b6000600a60003373ffffffffffffffffffffffffffffffffffffffff1673ffffffffffffffffffffffffffffffffffffffff16815260200190815260200160002054905090565b6000600560008473ffffffffffffffffffffffffffffffffffffffff1673ffffffffffffffffffffffffffffffffffffffff16815260200190815260200160002060008373ffffffffffffffffffffffffffffffffffffffff1673ffffffffffffffffffffffffffffffffffffffff16815260200190815260200160002060009054906101000a900460ff16905092915050565b60007f80ac58cd000000000000000000000000000000000000000000000000000000007bffffffffffffffffffffffffffffffffffffffffffffffffffffffff1916827bffffffffffffffffffffffffffffffffffffffffffffffffffffffff19161480611a0657507f5b5e139f000000000000000000000000000000000000000000000000000000007bffffffffffffffffffffffffffffffffffffffffffffffffffffffff1916827bffffffffffffffffffffffffffffffffffffffffffffffffffffffff1916145b80611a165750611a15826126b6565b5b9050919050565b60007f7965db0b000000000000000000000000000000000000000000000000000000007bffffffffffffffffffffffffffffffffffffffffffffffffffffffff1916827bffffffffffffffffffffffffffffffffffffffffffffffffffffffff19161480611a905750611a8f8261193b565b5b9050919050565b611aa081612720565b611adf576040517f08c379a0000000000000000000000000000000000000000000000000000000008152600401611ad69061461d565b60405180910390fd5b50565b600080611aee83612761565b9050611b4c81848060600190611b0491906146f3565b8080601f016020809104026020016040519081016040528093929190818152602001838380828437600081840152601f19601f820116905080830192505050505050506127ec565b915050919050565b600073ffffffffffffffffffffffffffffffffffffffff168273ffffffffffffffffffffffffffffffffffffffff161415611bc4576040517f08c379a0000000000000000000000000000000000000000000000000000000008152600401611bbb906145bd565b60405180910390fd5b611bcd81612720565b15611c0d576040517f08c379a0000000000000000000000000000000000000000000000000000000008152600401611c04906144bd565b60405180910390fd5b611c1b600083836001612813565b611c2481612720565b15611c64576040517f08c379a0000000000000000000000000000000000000000000000000000000008152600401611c5b906144bd565b60405180910390fd5b6001600360008473ffffffffffffffffffffffffffffffffffffffff1673ffffffffffffffffffffffffffffffffffffffff16815260200190815260200160002060008282540192505081905550816002600083815260200190815260200160002060006101000a81548173ffffffffffffffffffffffffffffffffffffffff021916908373ffffffffffffffffffffffffffffffffffffffff160217905550808273ffffffffffffffffffffffffffffffffffffffff16600073ffffffffffffffffffffffffffffffffffffffff167fddf252ad1be2c89b69c2b068fc378daa952ba7f163c4a11628f55a4df523b3ef60405160405180910390a4611d6e600083836001612819565b5050565b611d7b82612720565b611dba576040517f08c379a0000000000000000000000000000000000000000000000000000000008152600401611db19061457d565b60405180910390fd5b80600660008481526020019081526020016000209080519060200190611de19291906136a8565b505050565b8273ffffffffffffffffffffffffffffffffffffffff16611e0682611360565b73ffffffffffffffffffffffffffffffffffffffff1614611e5c576040517f08c379a0000000000000000000000000000000000000000000000000000000008152600401611e539061449d565b60405180910390fd5b600073ffffffffffffffffffffffffffffffffffffffff168273ffffffffffffffffffffffffffffffffffffffff161415611ecc576040517f08c379a0000000000000000000000000000000000000000000000000000000008152600401611ec3906144dd565b60405180910390fd5b611ed98383836001612813565b8273ffffffffffffffffffffffffffffffffffffffff16611ef982611360565b73ffffffffffffffffffffffffffffffffffffffff1614611f4f576040517f08c379a0000000000000000000000000000000000000000000000000000000008152600401611f469061449d565b60405180910390fd5b6004600082815260200190815260200160002060006101000a81549073ffffffffffffffffffffffffffffffffffffffff02191690556001600360008573ffffffffffffffffffffffffffffffffffffffff1673ffffffffffffffffffffffffffffffffffffffff168152602001908152602001600020600082825403925050819055506001600360008473ffffffffffffffffffffffffffffffffffffffff1673ffffffffffffffffffffffffffffffffffffffff16815260200190815260200160002060008282540192505081905550816002600083815260200190815260200160002060006101000a81548173ffffffffffffffffffffffffffffffffffffffff021916908373ffffffffffffffffffffffffffffffffffffffff160217905550808273ffffffffffffffffffffffffffffffffffffffff168473ffffffffffffffffffffffffffffffffffffffff167fddf252ad1be2c89b69c2b068fc378daa952ba7f163c4a11628f55a4df523b3ef60405160405180910390a46120db8383836001612819565b505050565b6001816000016000828254019250508190555050565b600033905090565b816004600083815260200190815260200160002060006101000a81548173ffffffffffffffffffffffffffffffffffffffff021916908373ffffffffffffffffffffffffffffffffffffffff160217905550808273ffffffffffffffffffffffffffffffffffffffff1661217183611360565b73ffffffffffffffffffffffffffffffffffffffff167f8c5be1e5ebec7d5bd14f71427d1e84f3dd0314c0f7b2291e5b200ac8c7c3b92560405160405180910390a45050565b6000806121c383611360565b90508073ffffffffffffffffffffffffffffffffffffffff168473ffffffffffffffffffffffffffffffffffffffff161480612205575061220481856118a7565b5b8061224357508373ffffffffffffffffffffffffffffffffffffffff1661222b84610864565b73ffffffffffffffffffffffffffffffffffffffff16145b91505092915050565b61225d816122586120f6565b61281f565b50565b61226a828261158c565b61233d5760016007600084815260200190815260200160002060000160008373ffffffffffffffffffffffffffffffffffffffff1673ffffffffffffffffffffffffffffffffffffffff16815260200190815260200160002060006101000a81548160ff0219169083151502179055506122e26120f6565b73ffffffffffffffffffffffffffffffffffffffff168173ffffffffffffffffffffffffffffffffffffffff16837f2f8788117e7eff1d82e926ec794901d17c78024a50270940304540a733656f0d60405160405180910390a45b5050565b61234b828261158c565b1561241f5760006007600084815260200190815260200160002060000160008373ffffffffffffffffffffffffffffffffffffffff1673ffffffffffffffffffffffffffffffffffffffff16815260200190815260200160002060006101000a81548160ff0219169083151502179055506123c46120f6565b73ffffffffffffffffffffffffffffffffffffffff168173ffffffffffffffffffffffffffffffffffffffff16837ff6391f5c32d9c69d2a47ea670b442974b53935d1edc7fd64eb21e047a839171b60405160405180910390a45b5050565b600081600001549050919050565b60006002600083815260200190815260200160002060009054906101000a900473ffffffffffffffffffffffffffffffffffffffff169050919050565b8173ffffffffffffffffffffffffffffffffffffffff168373ffffffffffffffffffffffffffffffffffffffff1614156124dd576040517f08c379a00000000000000000000000000000000000000000000000000000000081526004016124d4906144fd565b60405180910390fd5b80600560008573ffffffffffffffffffffffffffffffffffffffff1673ffffffffffffffffffffffffffffffffffffffff16815260200190815260200160002060008473ffffffffffffffffffffffffffffffffffffffff1673ffffffffffffffffffffffffffffffffffffffff16815260200190815260200160002060006101000a81548160ff0219169083151502179055508173ffffffffffffffffffffffffffffffffffffffff168373ffffffffffffffffffffffffffffffffffffffff167f17307eab39ab6107e8899845ad3d59bd9653f200f220920489ca2b5937696c31836040516125ce91906142c8565b60405180910390a3505050565b6125e6848484611de6565b6125f2848484846128a4565b612631576040517f08c379a00000000000000000000000000000000000000000000000000000000081526004016126289061447d565b60405180910390fd5b50505050565b606060405180602001604052806000815250905090565b606061265982611a97565b6000612663612637565b9050600081511161268357604051806020016040528060008152506126ae565b8061268d84612a3b565b60405160200161269e929190614173565b6040516020818303038152906040525b915050919050565b60007f01ffc9a7000000000000000000000000000000000000000000000000000000007bffffffffffffffffffffffffffffffffffffffffffffffffffffffff1916827bffffffffffffffffffffffffffffffffffffffffffffffffffffffff1916149050919050565b60008073ffffffffffffffffffffffffffffffffffffffff1661274283612431565b73ffffffffffffffffffffffffffffffffffffffff1614159050919050565b60006127e57f6316f9ddd4d59a364f3b95c26bab9d392c3380ace0fff15e91ed76f0d8bcd15a836000013584602001358580604001906127a1919061474a565b6040516127af92919061415a565b60405180910390206040516020016127ca9493929190614351565b60405160208183030381529060405280519060200120612b5f565b9050919050565b60008060006127fb8585612b79565b9150915061280881612bcb565b819250505092915050565b50505050565b50505050565b612829828261158c565b6128a05761283681612e69565b6128448360001c6020612e96565b6040516020016128559291906141ce565b6040516020818303038152906040526040517f08c379a000000000000000000000000000000000000000000000000000000000815260040161289791906143db565b60405180910390fd5b5050565b60006128c58473ffffffffffffffffffffffffffffffffffffffff16613190565b15612a2e578373ffffffffffffffffffffffffffffffffffffffff1663150b7a026128ee6120f6565b8786866040518563ffffffff1660e01b8152600401612910949392919061425a565b602060405180830381600087803b15801561292a57600080fd5b505af192505050801561295b57506040513d601f19601f820116820180604052508101906129589190613b26565b60015b6129de573d806000811461298b576040519150601f19603f3d011682016040523d82523d6000602084013e612990565b606091505b506000815114156129d6576040517f08c379a00000000000000000000000000000000000000000000000000000000081526004016129cd9061447d565b60405180910390fd5b805181602001fd5b63150b7a0260e01b7bffffffffffffffffffffffffffffffffffffffffffffffffffffffff1916817bffffffffffffffffffffffffffffffffffffffffffffffffffffffff191614915050612a33565b600190505b949350505050565b606060006001612a4a846131b3565b01905060008167ffffffffffffffff811115612a8f577f4e487b7100000000000000000000000000000000000000000000000000000000600052604160045260246000fd5b6040519080825280601f01601f191660200182016040528015612ac15781602001600182028036833780820191505090505b509050600082602001820190505b600115612b54578080600190039150507f3031323334353637383961626364656600000000000000000000000000000000600a86061a8153600a8581612b3e577f4e487b7100000000000000000000000000000000000000000000000000000000600052601260045260246000fd5b0494506000851415612b4f57612b54565b612acf565b819350505050919050565b6000612b72612b6c6133ea565b83613504565b9050919050565b600080604183511415612bbb5760008060006020860151925060408601519150606086015160001a9050612baf87828585613537565b94509450505050612bc4565b60006002915091505b9250929050565b60006004811115612c05577f4e487b7100000000000000000000000000000000000000000000000000000000600052602160045260246000fd5b816004811115612c3e577f4e487b7100000000000000000000000000000000000000000000000000000000600052602160045260246000fd5b1415612c4957612e66565b60016004811115612c83577f4e487b7100000000000000000000000000000000000000000000000000000000600052602160045260246000fd5b816004811115612cbc577f4e487b7100000000000000000000000000000000000000000000000000000000600052602160045260246000fd5b1415612cfd576040517f08c379a0000000000000000000000000000000000000000000000000000000008152600401612cf4906143fd565b60405180910390fd5b60026004811115612d37577f4e487b7100000000000000000000000000000000000000000000000000000000600052602160045260246000fd5b816004811115612d70577f4e487b7100000000000000000000000000000000000000000000000000000000600052602160045260246000fd5b1415612db1576040517f08c379a0000000000000000000000000000000000000000000000000000000008152600401612da89061445d565b60405180910390fd5b60036004811115612deb577f4e487b7100000000000000000000000000000000000000000000000000000000600052602160045260246000fd5b816004811115612e24577f4e487b7100000000000000000000000000000000000000000000000000000000600052602160045260246000fd5b1415612e65576040517f08c379a0000000000000000000000000000000000000000000000000000000008152600401612e5c9061453d565b60405180910390fd5b5b50565b6060612e8f8273ffffffffffffffffffffffffffffffffffffffff16601460ff16612e96565b9050919050565b606060006002836002612ea991906148d4565b612eb3919061487e565b67ffffffffffffffff811115612ef2577f4e487b7100000000000000000000000000000000000000000000000000000000600052604160045260246000fd5b6040519080825280601f01601f191660200182016040528015612f245781602001600182028036833780820191505090505b5090507f300000000000000000000000000000000000000000000000000000000000000081600081518110612f82577f4e487b7100000000000000000000000000000000000000000000000000000000600052603260045260246000fd5b60200101907effffffffffffffffffffffffffffffffffffffffffffffffffffffffffffff1916908160001a9053507f78000000000000000000000000000000000000000000000000000000000000008160018151811061300c577f4e487b7100000000000000000000000000000000000000000000000000000000600052603260045260246000fd5b60200101907effffffffffffffffffffffffffffffffffffffffffffffffffffffffffffff1916908160001a9053506000600184600261304c91906148d4565b613056919061487e565b90505b6001811115613142577f3031323334353637383961626364656600000000000000000000000000000000600f8616601081106130be577f4e487b7100000000000000000000000000000000000000000000000000000000600052603260045260246000fd5b1a60f81b8282815181106130fb577f4e487b7100000000000000000000000000000000000000000000000000000000600052603260045260246000fd5b60200101907effffffffffffffffffffffffffffffffffffffffffffffffffffffffffffff1916908160001a905350600485901c94508061313b90614a43565b9050613059565b5060008414613186576040517f08c379a000000000000000000000000000000000000000000000000000000000815260040161317d9061441d565b60405180910390fd5b8091505092915050565b6000808273ffffffffffffffffffffffffffffffffffffffff163b119050919050565b600080600090507a184f03e93ff9f4daa797ed6e38ed64bf6a1f0100000000000000008310613237577a184f03e93ff9f4daa797ed6e38ed64bf6a1f010000000000000000838161322d577f4e487b7100000000000000000000000000000000000000000000000000000000600052601260045260246000fd5b0492506040810190505b6d04ee2d6d415b85acef8100000000831061329a576d04ee2d6d415b85acef81000000008381613290577f4e487b7100000000000000000000000000000000000000000000000000000000600052601260045260246000fd5b0492506020810190505b662386f26fc1000083106132ef57662386f26fc1000083816132e5577f4e487b7100000000000000000000000000000000000000000000000000000000600052601260045260246000fd5b0492506010810190505b6305f5e100831061333e576305f5e1008381613334577f4e487b7100000000000000000000000000000000000000000000000000000000600052601260045260246000fd5b0492506008810190505b612710831061338957612710838161337f577f4e487b7100000000000000000000000000000000000000000000000000000000600052601260045260246000fd5b0492506004810190505b606483106133d257606483816133c8577f4e487b7100000000000000000000000000000000000000000000000000000000600052601260045260246000fd5b0492506002810190505b600a83106133e1576001810190505b80915050919050565b60007f000000000000000000000000000000000000000000000000000000000000000073ffffffffffffffffffffffffffffffffffffffff163073ffffffffffffffffffffffffffffffffffffffff1614801561346657507f000000000000000000000000000000000000000000000000000000000000000046145b15613493577f00000000000000000000000000000000000000000000000000000000000000009050613501565b6134fe7f00000000000000000000000000000000000000000000000000000000000000007f00000000000000000000000000000000000000000000000000000000000000007f000000000000000000000000000000000000000000000000000000000000000061361a565b90505b90565b60008282604051602001613519929190614197565b60405160208183030381529060405280519060200120905092915050565b6000807f7fffffffffffffffffffffffffffffff5d576e7357a4501ddfe92f46681b20a08360001c1115613572576000600391509150613611565b6000600187878787604051600081526020016040526040516135979493929190614396565b6020604051602081039080840390855afa1580156135b9573d6000803e3d6000fd5b505050602060405103519050600073ffffffffffffffffffffffffffffffffffffffff168173ffffffffffffffffffffffffffffffffffffffff16141561360857600060019250925050613611565b80600092509250505b94509492505050565b600083838346306040516020016136359594939291906142fe565b6040516020818303038152906040528051906020012090509392505050565b604051806080016040528060008152602001600073ffffffffffffffffffffffffffffffffffffffff168152602001600073ffffffffffffffffffffffffffffffffffffffff168152602001600081525090565b8280546136b490614a6d565b90600052602060002090601f0160209004810192826136d6576000855561371d565b82601f106136ef57805160ff191683800117855561371d565b8280016001018555821561371d579182015b8281111561371c578251825591602001919060010190613701565b5b50905061372a919061372e565b5090565b5b8082111561374757600081600090555060010161372f565b5090565b600061375e613759846147c6565b6147a1565b90508281526020810184848401111561377657600080fd5b613781848285614a01565b509392505050565b600081359050613798816151b0565b92915050565b6000813590506137ad816151c7565b92915050565b6000813590506137c2816151de565b92915050565b6000813590506137d7816151f5565b92915050565b6000813590506137ec8161520c565b92915050565b6000815190506138018161520c565b92915050565b600082601f83011261381857600080fd5b813561382884826020860161374b565b91505092915050565b60006080828403121561384357600080fd5b81905092915050565b60008135905061385b81615223565b92915050565b60006020828403121561387357600080fd5b600061388184828501613789565b91505092915050565b6000806040838503121561389d57600080fd5b60006138ab8582860161379e565b92505060206138bc8582860161384c565b9150509250929050565b600080604083850312156138d957600080fd5b60006138e785828601613789565b92505060206138f885828601613789565b9150509250929050565b60008060006060848603121561391757600080fd5b600061392586828701613789565b935050602061393686828701613789565b92505060406139478682870161384c565b9150509250925092565b6000806000806080858703121561396757600080fd5b600061397587828801613789565b945050602061398687828801613789565b93505060406139978782880161384c565b925050606085013567ffffffffffffffff8111156139b457600080fd5b6139c087828801613807565b91505092959194509250565b600080604083850312156139df57600080fd5b60006139ed85828601613789565b92505060206139fe858286016137b3565b9150509250929050565b60008060408385031215613a1b57600080fd5b6000613a2985828601613789565b925050602083013567ffffffffffffffff811115613a4657600080fd5b613a5285828601613831565b9150509250929050565b60008060408385031215613a6f57600080fd5b6000613a7d85828601613789565b9250506020613a8e8582860161384c565b9150509250929050565b600060208284031215613aaa57600080fd5b6000613ab8848285016137c8565b91505092915050565b60008060408385031215613ad457600080fd5b6000613ae2858286016137c8565b9250506020613af385828601613789565b9150509250929050565b600060208284031215613b0f57600080fd5b6000613b1d848285016137dd565b91505092915050565b600060208284031215613b3857600080fd5b6000613b46848285016137f2565b91505092915050565b600060208284031215613b6157600080fd5b6000613b6f8482850161384c565b91505092915050565b6000613b848383614083565b60808301905092915050565b613b99816149cb565b82525050565b613ba881614940565b82525050565b613bb78161492e565b82525050565b6000613bc882614807565b613bd28185614835565b9350613bdd836147f7565b8060005b83811015613c0e578151613bf58882613b78565b9750613c0083614828565b925050600181019050613be1565b5085935050505092915050565b613c2481614952565b82525050565b613c338161495e565b82525050565b613c4a613c458261495e565b614b19565b82525050565b6000613c5c8385614857565b9350613c69838584614a01565b82840190509392505050565b6000613c8082614812565b613c8a8185614846565b9350613c9a818560208601614a10565b613ca381614bb0565b840191505092915050565b6000613cb98261481d565b613cc38185614862565b9350613cd3818560208601614a10565b613cdc81614bb0565b840191505092915050565b6000613cf28261481d565b613cfc8185614873565b9350613d0c818560208601614a10565b80840191505092915050565b6000613d25601883614862565b9150613d3082614bc1565b602082019050919050565b6000613d48602083614862565b9150613d5382614bea565b602082019050919050565b6000613d6b602d83614862565b9150613d7682614c13565b604082019050919050565b6000613d8e601f83614862565b9150613d9982614c62565b602082019050919050565b6000613db1603283614862565b9150613dbc82614c8b565b604082019050919050565b6000613dd4602583614862565b9150613ddf82614cda565b604082019050919050565b6000613df7601c83614862565b9150613e0282614d29565b602082019050919050565b6000613e1a600283614873565b9150613e2582614d52565b600282019050919050565b6000613e3d602483614862565b9150613e4882614d7b565b604082019050919050565b6000613e60601983614862565b9150613e6b82614dca565b602082019050919050565b6000613e83601483614862565b9150613e8e82614df3565b602082019050919050565b6000613ea6602283614862565b9150613eb182614e1c565b604082019050919050565b6000613ec9602983614862565b9150613ed482614e6b565b604082019050919050565b6000613eec602e83614862565b9150613ef782614eba565b604082019050919050565b6000613f0f601c83614862565b9150613f1a82614f09565b602082019050919050565b6000613f32602083614862565b9150613f3d82614f32565b602082019050919050565b6000613f55602483614862565b9150613f6082614f5b565b604082019050919050565b6000613f78602183614862565b9150613f8382614faa565b604082019050919050565b6000613f9b601883614862565b9150613fa682614ff9565b602082019050919050565b6000613fbe602183614862565b9150613fc982615022565b604082019050919050565b6000613fe1602183614862565b9150613fec82615071565b604082019050919050565b6000614004603d83614862565b915061400f826150c0565b604082019050919050565b6000614027601783614873565b91506140328261510f565b601782019050919050565b600061404a601183614873565b915061405582615138565b601182019050919050565b600061406d602f83614862565b915061407882615161565b604082019050919050565b608082016000820151614099600085018261412d565b5060208201516140ac6020850182613b9f565b5060408201516140bf6040850182613b9f565b5060608201516140d2606085018261412d565b50505050565b6080820160008201516140ee600085018261412d565b5060208201516141016020850182613b9f565b5060408201516141146040850182613b9f565b506060820151614127606085018261412d565b50505050565b614136816149b4565b82525050565b614145816149b4565b82525050565b614154816149be565b82525050565b6000614167828486613c50565b91508190509392505050565b600061417f8285613ce7565b915061418b8284613ce7565b91508190509392505050565b60006141a282613e0d565b91506141ae8285613c39565b6020820191506141be8284613c39565b6020820191508190509392505050565b60006141d98261401a565b91506141e58285613ce7565b91506141f08261403d565b91506141fc8284613ce7565b91508190509392505050565b600060208201905061421d6000830184613bae565b92915050565b60006060820190506142386000830186613b90565b6142456020830185613bae565b614252604083018461413c565b949350505050565b600060808201905061426f6000830187613bae565b61427c6020830186613bae565b614289604083018561413c565b818103606083015261429b8184613c75565b905095945050505050565b600060208201905081810360008301526142c08184613bbd565b905092915050565b60006020820190506142dd6000830184613c1b565b92915050565b60006020820190506142f86000830184613c2a565b92915050565b600060a0820190506143136000830188613c2a565b6143206020830187613c2a565b61432d6040830186613c2a565b61433a606083018561413c565b6143476080830184613bae565b9695505050505050565b60006080820190506143666000830187613c2a565b614373602083018661413c565b614380604083018561413c565b61438d6060830184613c2a565b95945050505050565b60006080820190506143ab6000830187613c2a565b6143b8602083018661414b565b6143c56040830185613c2a565b6143d26060830184613c2a565b95945050505050565b600060208201905081810360008301526143f58184613cae565b905092915050565b6000602082019050818103600083015261441681613d18565b9050919050565b6000602082019050818103600083015261443681613d3b565b9050919050565b6000602082019050818103600083015261445681613d5e565b9050919050565b6000602082019050818103600083015261447681613d81565b9050919050565b6000602082019050818103600083015261449681613da4565b9050919050565b600060208201905081810360008301526144b681613dc7565b9050919050565b600060208201905081810360008301526144d681613dea565b9050919050565b600060208201905081810360008301526144f681613e30565b9050919050565b6000602082019050818103600083015261451681613e53565b9050919050565b6000602082019050818103600083015261453681613e76565b9050919050565b6000602082019050818103600083015261455681613e99565b9050919050565b6000602082019050818103600083015261457681613ebc565b9050919050565b6000602082019050818103600083015261459681613edf565b9050919050565b600060208201905081810360008301526145b681613f02565b9050919050565b600060208201905081810360008301526145d681613f25565b9050919050565b600060208201905081810360008301526145f681613f48565b9050919050565b6000602082019050818103600083015261461681613f6b565b9050919050565b6000602082019050818103600083015261463681613f8e565b9050919050565b6000602082019050818103600083015261465681613fb1565b9050919050565b6000602082019050818103600083015261467681613fd4565b9050919050565b6000602082019050818103600083015261469681613ff7565b9050919050565b600060208201905081810360008301526146b681614060565b9050919050565b60006080820190506146d260008301846140d8565b92915050565b60006020820190506146ed600083018461413c565b92915050565b6000808335600160200384360303811261470c57600080fd5b80840192508235915067ffffffffffffffff82111561472a57600080fd5b60208301925060018202360383131561474257600080fd5b509250929050565b6000808335600160200384360303811261476357600080fd5b80840192508235915067ffffffffffffffff82111561478157600080fd5b60208301925060018202360383131561479957600080fd5b509250929050565b60006147ab6147bc565b90506147b78282614a9f565b919050565b6000604051905090565b600067ffffffffffffffff8211156147e1576147e0614b81565b5b6147ea82614bb0565b9050602081019050919050565b6000819050602082019050919050565b600081519050919050565b600081519050919050565b600081519050919050565b6000602082019050919050565b600082825260208201905092915050565b600082825260208201905092915050565b600081905092915050565b600082825260208201905092915050565b600081905092915050565b6000614889826149b4565b9150614894836149b4565b9250827fffffffffffffffffffffffffffffffffffffffffffffffffffffffffffffffff038211156148c9576148c8614b23565b5b828201905092915050565b60006148df826149b4565b91506148ea836149b4565b9250817fffffffffffffffffffffffffffffffffffffffffffffffffffffffffffffffff048311821515161561492357614922614b23565b5b828202905092915050565b600061493982614994565b9050919050565b600061494b82614994565b9050919050565b60008115159050919050565b6000819050919050565b60007fffffffff0000000000000000000000000000000000000000000000000000000082169050919050565b600073ffffffffffffffffffffffffffffffffffffffff82169050919050565b6000819050919050565b600060ff82169050919050565b60006149d6826149dd565b9050919050565b60006149e8826149ef565b9050919050565b60006149fa82614994565b9050919050565b82818337600083830152505050565b60005b83811015614a2e578082015181840152602081019050614a13565b83811115614a3d576000848401525b50505050565b6000614a4e826149b4565b91506000821415614a6257614a61614b23565b5b600182039050919050565b60006002820490506001821680614a8557607f821691505b60208210811415614a9957614a98614b52565b5b50919050565b614aa882614bb0565b810181811067ffffffffffffffff82111715614ac757614ac6614b81565b5b80604052505050565b6000614adb826149b4565b91507fffffffffffffffffffffffffffffffffffffffffffffffffffffffffffffffff821415614b0e57614b0d614b23565b5b600182019050919050565b6000819050919050565b7f4e487b7100000000000000000000000000000000000000000000000000000000600052601160045260246000fd5b7f4e487b7100000000000000000000000000000000000000000000000000000000600052602260045260246000fd5b7f4e487b7100000000000000000000000000000000000000000000000000000000600052604160045260246000fd5b6000601f19601f8301169050919050565b7f45434453413a20696e76616c6964207369676e61747572650000000000000000600082015250565b7f537472696e67733a20686578206c656e67746820696e73756666696369656e74600082015250565b7f4552433732313a2063616c6c6572206973206e6f7420746f6b656e206f776e6560008201527f72206f7220617070726f76656400000000000000000000000000000000000000602082015250565b7f45434453413a20696e76616c6964207369676e6174757265206c656e67746800600082015250565b7f4552433732313a207472616e7366657220746f206e6f6e20455243373231526560008201527f63656976657220696d706c656d656e7465720000000000000000000000000000602082015250565b7f4552433732313a207472616e736665722066726f6d20696e636f72726563742060008201527f6f776e6572000000000000000000000000000000000000000000000000000000602082015250565b7f4552433732313a20746f6b656e20616c7265616479206d696e74656400000000600082015250565b7f1901000000000000000000000000000000000000000000000000000000000000600082015250565b7f4552433732313a207472616e7366657220746f20746865207a65726f2061646460008201527f7265737300000000000000000000000000000000000000000000000000000000602082015250565b7f4552433732313a20617070726f766520746f2063616c6c657200000000000000600082015250565b7f496e73756666696369656e742062616c616e6365000000000000000000000000600082015250565b7f45434453413a20696e76616c6964207369676e6174757265202773272076616c60008201527f7565000000000000000000000000000000000000000000000000000000000000602082015250565b7f4552433732313a2061646472657373207a65726f206973206e6f74206120766160008201527f6c6964206f776e65720000000000000000000000000000000000000000000000602082015250565b7f45524337323155524953746f726167653a2055524920736574206f66206e6f6e60008201527f6578697374656e7420746f6b656e000000000000000000000000000000000000602082015250565b7f496e73756666696369656e742066756e647320746f2072656465656d00000000600082015250565b7f4552433732313a206d696e7420746f20746865207a65726f2061646472657373600082015250565b7f4f6e6c7920617574686f72697a6564206d696e746572732063616e207769746860008201527f6472617700000000000000000000000000000000000000000000000000000000602082015250565b7f4f6e6c79207468652041646d696e2063616e207472616e736665722066756e6460008201527f7300000000000000000000000000000000000000000000000000000000000000602082015250565b7f4552433732313a20696e76616c696420746f6b656e2049440000000000000000600082015250565b7f4552433732313a20617070726f76616c20746f2063757272656e74206f776e6560008201527f7200000000000000000000000000000000000000000000000000000000000000602082015250565b7f5369676e617475726520696e76616c6964206f7220756e617574686f72697a6560008201527f6400000000000000000000000000000000000000000000000000000000000000602082015250565b7f4552433732313a20617070726f76652063616c6c6572206973206e6f7420746f60008201527f6b656e206f776e6572206f7220617070726f76656420666f7220616c6c000000602082015250565b7f416363657373436f6e74726f6c3a206163636f756e7420000000000000000000600082015250565b7f206973206d697373696e6720726f6c6520000000000000000000000000000000600082015250565b7f416363657373436f6e74726f6c3a2063616e206f6e6c792072656e6f756e636560008201527f20726f6c657320666f722073656c660000000000000000000000000000000000602082015250565b6151b98161492e565b81146151c457600080fd5b50565b6151d081614940565b81146151db57600080fd5b50565b6151e781614952565b81146151f257600080fd5b50565b6151fe8161495e565b811461520957600080fd5b50565b61521581614968565b811461522057600080fd5b50565b61522c816149b4565b811461523757600080fd5b5056fea264697066735822122043937a146f4885624a1dea7641f7e839a4e73a2f32247bf9456c220eefca650f64736f6c63430008040033",
  "linkReferences": {},
  "deployedLinkReferences": {}
}