{
  "_format": "hh-sol-artifact-1",
  "contractName": "NFTMarketplace",
  "sourceName": "contracts/NFTMarketplace.sol",
  "abi": [
    {
      "inputs": [],
      "stateMutability": "nonpayable",
      "type": "constructor"
    },
    {
      "anonymous": false,
      "inputs": [
        {
          "indexed": true,
          "internalType": "address",
          "name": "owner",
          "type": "address"
        },
        {
          "indexed": true,
          "internalType": "address",
          "name": "approved",
          "type": "address"
        },
        {
          "indexed": true,
          "internalType": "uint256",
          "name": "tokenId",
          "type": "uint256"
        }
      ],
      "name": "Approval",
      "type": "event"
    },
    {
      "anonymous": false,
      "inputs": [
        {
          "indexed": true,
          "internalType": "address",
          "name": "owner",
          "type": "address"
        },
        {
          "indexed": true,
          "internalType": "address",
          "name": "operator",
          "type": "address"
        },
        {
          "indexed": false,
          "internalType": "bool",
          "name": "approved",
          "type": "bool"
        }
      ],
      "name": "ApprovalForAll",
      "type": "event"
    },
    {
      "anonymous": false,
      "inputs": [
        {
          "indexed": false,
          "internalType": "uint256",
          "name": "productId",
          "type": "uint256"
        },
        {
          "indexed": false,
          "internalType": "string",
          "name": "teaserInfo",
          "type": "string"
        },
        {
          "indexed": false,
          "internalType": "address",
          "name": "patientAddress",
          "type": "address"
        },
        {
          "indexed": false,
          "internalType": "uint256",
          "name": "price",
          "type": "uint256"
        },
        {
          "indexed": false,
          "internalType": "bool",
          "name": "minted",
          "type": "bool"
        }
      ],
      "name": "ProductListedSuccess",
      "type": "event"
    },
    {
      "anonymous": false,
      "inputs": [
        {
          "indexed": true,
          "internalType": "uint256",
          "name": "tokenId",
          "type": "uint256"
        },
        {
          "indexed": false,
          "internalType": "uint256",
          "name": "productId",
          "type": "uint256"
        },
        {
          "indexed": false,
          "internalType": "address",
          "name": "owner",
          "type": "address"
        },
        {
          "indexed": false,
          "internalType": "address",
          "name": "seller",
          "type": "address"
        },
        {
          "indexed": false,
          "internalType": "uint256",
          "name": "price",
          "type": "uint256"
        },
        {
          "indexed": false,
          "internalType": "bool",
          "name": "currentlyListed",
          "type": "bool"
        }
      ],
      "name": "TokenListedSuccess",
      "type": "event"
    },
    {
      "anonymous": false,
      "inputs": [
        {
          "indexed": true,
          "internalType": "address",
          "name": "from",
          "type": "address"
        },
        {
          "indexed": true,
          "internalType": "address",
          "name": "to",
          "type": "address"
        },
        {
          "indexed": true,
          "internalType": "uint256",
          "name": "tokenId",
          "type": "uint256"
        }
      ],
      "name": "Transfer",
      "type": "event"
    },
    {
      "inputs": [
        {
          "internalType": "address",
          "name": "to",
          "type": "address"
        },
        {
          "internalType": "uint256",
          "name": "tokenId",
          "type": "uint256"
        }
      ],
      "name": "approve",
      "outputs": [],
      "stateMutability": "nonpayable",
      "type": "function"
    },
    {
      "inputs": [
        {
          "internalType": "address",
          "name": "owner",
          "type": "address"
        }
      ],
      "name": "balanceOf",
      "outputs": [
        {
          "internalType": "uint256",
          "name": "",
          "type": "uint256"
        }
      ],
      "stateMutability": "view",
      "type": "function"
    },
    {
      "inputs": [
        {
          "internalType": "uint256",
          "name": "productId",
          "type": "uint256"
        },
        {
          "internalType": "address payable",
          "name": "patientAddress",
          "type": "address"
        },
        {
          "internalType": "string",
          "name": "teaserInfo",
          "type": "string"
        },
        {
          "internalType": "string",
          "name": "uri",
          "type": "string"
        }
      ],
      "name": "createProduct",
      "outputs": [
        {
          "internalType": "uint256",
          "name": "",
          "type": "uint256"
        }
      ],
      "stateMutability": "nonpayable",
      "type": "function"
    },
    {
      "inputs": [
        {
          "internalType": "uint256",
          "name": "productId",
          "type": "uint256"
        },
        {
          "internalType": "uint256",
          "name": "price",
          "type": "uint256"
        },
        {
          "internalType": "address payable",
          "name": "seller",
          "type": "address"
        }
      ],
      "name": "createToken",
      "outputs": [
        {
          "internalType": "uint256",
          "name": "",
          "type": "uint256"
        }
      ],
      "stateMutability": "payable",
      "type": "function"
    },
    {
      "inputs": [
        {
          "internalType": "uint256",
          "name": "tokenId",
          "type": "uint256"
        }
      ],
      "name": "executeSale",
      "outputs": [],
      "stateMutability": "payable",
      "type": "function"
    },
    {
      "inputs": [],
      "name": "getAllNFTs",
      "outputs": [
        {
          "components": [
            {
              "internalType": "uint256",
              "name": "productId",
              "type": "uint256"
            },
            {
              "internalType": "uint256",
              "name": "tokenId",
              "type": "uint256"
            },
            {
              "internalType": "address payable",
              "name": "owner",
              "type": "address"
            },
            {
              "internalType": "address payable",
              "name": "seller",
              "type": "address"
            },
            {
              "internalType": "uint256",
              "name": "price",
              "type": "uint256"
            },
            {
              "internalType": "bool",
              "name": "currentlyListed",
              "type": "bool"
            }
          ],
          "internalType": "struct NFTMarketplace.ListedToken[]",
          "name": "",
          "type": "tuple[]"
        }
      ],
      "stateMutability": "view",
      "type": "function"
    },
    {
      "inputs": [
        {
          "internalType": "uint256",
          "name": "tokenId",
          "type": "uint256"
        }
      ],
      "name": "getApproved",
      "outputs": [
        {
          "internalType": "address",
          "name": "",
          "type": "address"
        }
      ],
      "stateMutability": "view",
      "type": "function"
    },
    {
      "inputs": [],
      "name": "getCurrentToken",
      "outputs": [
        {
          "internalType": "uint256",
          "name": "",
          "type": "uint256"
        }
      ],
      "stateMutability": "view",
      "type": "function"
    },
    {
      "inputs": [],
      "name": "getLatestIdToListedToken",
      "outputs": [
        {
          "components": [
            {
              "internalType": "uint256",
              "name": "productId",
              "type": "uint256"
            },
            {
              "internalType": "uint256",
              "name": "tokenId",
              "type": "uint256"
            },
            {
              "internalType": "address payable",
              "name": "owner",
              "type": "address"
            },
            {
              "internalType": "address payable",
              "name": "seller",
              "type": "address"
            },
            {
              "internalType": "uint256",
              "name": "price",
              "type": "uint256"
            },
            {
              "internalType": "bool",
              "name": "currentlyListed",
              "type": "bool"
            }
          ],
          "internalType": "struct NFTMarketplace.ListedToken",
          "name": "",
          "type": "tuple"
        }
      ],
      "stateMutability": "view",
      "type": "function"
    },
    {
      "inputs": [],
      "name": "getListPrice",
      "outputs": [
        {
          "internalType": "uint256",
          "name": "",
          "type": "uint256"
        }
      ],
      "stateMutability": "view",
      "type": "function"
    },
    {
      "inputs": [
        {
          "internalType": "uint256",
          "name": "productId",
          "type": "uint256"
        }
      ],
      "name": "getListedProductForId",
      "outputs": [
        {
          "components": [
            {
              "internalType": "uint256",
              "name": "productId",
              "type": "uint256"
            },
            {
              "internalType": "string",
              "name": "teaserInfo",
              "type": "string"
            },
            {
              "internalType": "address payable",
              "name": "patientAddress",
              "type": "address"
            },
            {
              "internalType": "uint256",
              "name": "price",
              "type": "uint256"
            },
            {
              "internalType": "bool",
              "name": "minted",
              "type": "bool"
            }
          ],
          "internalType": "struct NFTMarketplace.ListedProduct",
          "name": "",
          "type": "tuple"
        }
      ],
      "stateMutability": "view",
      "type": "function"
    },
    {
      "inputs": [
        {
          "internalType": "uint256",
          "name": "tokenId",
          "type": "uint256"
        }
      ],
      "name": "getListedTokenForId",
      "outputs": [
        {
          "components": [
            {
              "internalType": "uint256",
              "name": "productId",
              "type": "uint256"
            },
            {
              "internalType": "uint256",
              "name": "tokenId",
              "type": "uint256"
            },
            {
              "internalType": "address payable",
              "name": "owner",
              "type": "address"
            },
            {
              "internalType": "address payable",
              "name": "seller",
              "type": "address"
            },
            {
              "internalType": "uint256",
              "name": "price",
              "type": "uint256"
            },
            {
              "internalType": "bool",
              "name": "currentlyListed",
              "type": "bool"
            }
          ],
          "internalType": "struct NFTMarketplace.ListedToken",
          "name": "",
          "type": "tuple"
        }
      ],
      "stateMutability": "view",
      "type": "function"
    },
    {
      "inputs": [],
      "name": "getMyNFTs",
      "outputs": [
        {
          "components": [
            {
              "internalType": "uint256",
              "name": "productId",
              "type": "uint256"
            },
            {
              "internalType": "uint256",
              "name": "tokenId",
              "type": "uint256"
            },
            {
              "internalType": "address payable",
              "name": "owner",
              "type": "address"
            },
            {
              "internalType": "address payable",
              "name": "seller",
              "type": "address"
            },
            {
              "internalType": "uint256",
              "name": "price",
              "type": "uint256"
            },
            {
              "internalType": "bool",
              "name": "currentlyListed",
              "type": "bool"
            }
          ],
          "internalType": "struct NFTMarketplace.ListedToken[]",
          "name": "",
          "type": "tuple[]"
        }
      ],
      "stateMutability": "view",
      "type": "function"
    },
    {
      "inputs": [
        {
          "internalType": "uint256",
          "name": "productId",
          "type": "uint256"
        }
      ],
      "name": "getProduct",
      "outputs": [
        {
          "components": [
            {
              "internalType": "uint256",
              "name": "productId",
              "type": "uint256"
            },
            {
              "internalType": "string",
              "name": "teaserInfo",
              "type": "string"
            },
            {
              "internalType": "address payable",
              "name": "patientAddress",
              "type": "address"
            },
            {
              "internalType": "uint256",
              "name": "price",
              "type": "uint256"
            },
            {
              "internalType": "bool",
              "name": "minted",
              "type": "bool"
            }
          ],
          "internalType": "struct NFTMarketplace.ListedProduct",
          "name": "",
          "type": "tuple"
        }
      ],
      "stateMutability": "view",
      "type": "function"
    },
    {
      "inputs": [
        {
          "internalType": "address",
          "name": "owner",
          "type": "address"
        },
        {
          "internalType": "address",
          "name": "operator",
          "type": "address"
        }
      ],
      "name": "isApprovedForAll",
      "outputs": [
        {
          "internalType": "bool",
          "name": "",
          "type": "bool"
        }
      ],
      "stateMutability": "view",
      "type": "function"
    },
    {
      "inputs": [],
      "name": "name",
      "outputs": [
        {
          "internalType": "string",
          "name": "",
          "type": "string"
        }
      ],
      "stateMutability": "view",
      "type": "function"
    },
    {
      "inputs": [
        {
          "internalType": "uint256",
          "name": "tokenId",
          "type": "uint256"
        }
      ],
      "name": "ownerOf",
      "outputs": [
        {
          "internalType": "address",
          "name": "",
          "type": "address"
        }
      ],
      "stateMutability": "view",
      "type": "function"
    },
    {
      "inputs": [
        {
          "internalType": "address",
          "name": "",
          "type": "address"
        },
        {
          "internalType": "uint256",
          "name": "",
          "type": "uint256"
        }
      ],
      "name": "payments",
      "outputs": [
        {
          "internalType": "address",
          "name": "patientAddress",
          "type": "address"
        },
        {
          "internalType": "uint256",
          "name": "amount",
          "type": "uint256"
        }
      ],
      "stateMutability": "view",
      "type": "function"
    },
    {
      "inputs": [
        {
          "internalType": "uint256",
          "name": "productId",
          "type": "uint256"
        }
      ],
      "name": "purchaseProduct",
      "outputs": [
        {
          "internalType": "uint256",
          "name": "",
          "type": "uint256"
        }
      ],
      "stateMutability": "payable",
      "type": "function"
    },
    {
      "inputs": [
        {
          "internalType": "address",
          "name": "from",
          "type": "address"
        },
        {
          "internalType": "address",
          "name": "to",
          "type": "address"
        },
        {
          "internalType": "uint256",
          "name": "tokenId",
          "type": "uint256"
        }
      ],
      "name": "safeTransferFrom",
      "outputs": [],
      "stateMutability": "nonpayable",
      "type": "function"
    },
    {
      "inputs": [
        {
          "internalType": "address",
          "name": "from",
          "type": "address"
        },
        {
          "internalType": "address",
          "name": "to",
          "type": "address"
        },
        {
          "internalType": "uint256",
          "name": "tokenId",
          "type": "uint256"
        },
        {
          "internalType": "bytes",
          "name": "data",
          "type": "bytes"
        }
      ],
      "name": "safeTransferFrom",
      "outputs": [],
      "stateMutability": "nonpayable",
      "type": "function"
    },
    {
      "inputs": [
        {
          "internalType": "address",
          "name": "operator",
          "type": "address"
        },
        {
          "internalType": "bool",
          "name": "approved",
          "type": "bool"
        }
      ],
      "name": "setApprovalForAll",
      "outputs": [],
      "stateMutability": "nonpayable",
      "type": "function"
    },
    {
      "inputs": [
        {
          "internalType": "bytes4",
          "name": "interfaceId",
          "type": "bytes4"
        }
      ],
      "name": "supportsInterface",
      "outputs": [
        {
          "internalType": "bool",
          "name": "",
          "type": "bool"
        }
      ],
      "stateMutability": "view",
      "type": "function"
    },
    {
      "inputs": [],
      "name": "symbol",
      "outputs": [
        {
          "internalType": "string",
          "name": "",
          "type": "string"
        }
      ],
      "stateMutability": "view",
      "type": "function"
    },
    {
      "inputs": [
        {
          "internalType": "uint256",
          "name": "tokenId",
          "type": "uint256"
        }
      ],
      "name": "tokenURI",
      "outputs": [
        {
          "internalType": "string",
          "name": "",
          "type": "string"
        }
      ],
      "stateMutability": "view",
      "type": "function"
    },
    {
      "inputs": [
        {
          "internalType": "address",
          "name": "from",
          "type": "address"
        },
        {
          "internalType": "address",
          "name": "to",
          "type": "address"
        },
        {
          "internalType": "uint256",
          "name": "tokenId",
          "type": "uint256"
        }
      ],
      "name": "transferFrom",
      "outputs": [],
      "stateMutability": "nonpayable",
      "type": "function"
    },
    {
      "inputs": [
        {
          "internalType": "uint256",
          "name": "_listPrice",
          "type": "uint256"
        }
      ],
      "name": "updateListPrice",
      "outputs": [],
      "stateMutability": "payable",
      "type": "function"
    },
    {
      "inputs": [],
      "name": "withdraw",
      "outputs": [],
      "stateMutability": "nonpayable",
      "type": "function"
    }
  ],
  "bytecode": "0x6080604052662386f26fc10000600a553480156200001c57600080fd5b506040518060400160405280600e81526020017f4e46544d61726b6574706c6163650000000000000000000000000000000000008152506040518060400160405280600481526020017f4e46544d000000000000000000000000000000000000000000000000000000008152508160009080519060200190620000a192919062000104565b508060019080519060200190620000ba92919062000104565b50505033600960006101000a81548173ffffffffffffffffffffffffffffffffffffffff021916908373ffffffffffffffffffffffffffffffffffffffff16021790555062000219565b8280546200011290620001b4565b90600052602060002090601f01602090048101928262000136576000855562000182565b82601f106200015157805160ff191683800117855562000182565b8280016001018555821562000182579182015b828111156200018157825182559160200191906001019062000164565b5b50905062000191919062000195565b5090565b5b80821115620001b057600081600090555060010162000196565b5090565b60006002820490506001821680620001cd57607f821691505b60208210811415620001e457620001e3620001ea565b5b50919050565b7f4e487b7100000000000000000000000000000000000000000000000000000000600052602260045260246000fd5b614da180620002296000396000f3fe6080604052600436106101b75760003560e01c806395d89b41116100ec578063c322579c1161008a578063e0391b0911610064578063e0391b0914610642578063e985e9c51461066d578063ebbf747d146106aa578063ef2d1746146106da576101b7565b8063c322579c146105be578063c87b56dd146105da578063d1a88ae514610617576101b7565b8063ab63385c116100c6578063ab63385c146104dd578063b88d4fde1461051b578063b9db15b414610544578063c0aeb9eb14610581576101b7565b806395d89b411461046d5780639b1225c414610498578063a22cb465146104b4576101b7565b806342560c42116101595780636352211e116101335780636352211e1461038b57806368f1945f146103c857806370a08231146103f35780638e26459014610430576101b7565b806342560c42146102fa57806342842e0e14610337578063629cb2e414610360576101b7565b8063095ea7b311610195578063095ea7b31461026157806323b872dd1461028a57806338e76a03146102b35780633ccfd60b146102e3576101b7565b806301ffc9a7146101bc57806306fdde03146101f9578063081812fc14610224575b600080fd5b3480156101c857600080fd5b506101e360048036038101906101de9190613904565b610705565b6040516101f0919061410c565b60405180910390f35b34801561020557600080fd5b5061020e6107e7565b60405161021b9190614127565b60405180910390f35b34801561023057600080fd5b5061024b60048036038101906102469190613956565b610879565b604051610258919061405a565b60405180910390f35b34801561026d57600080fd5b50610288600480360381019061028391906138c8565b6108bf565b005b34801561029657600080fd5b506102b160048036038101906102ac91906137c2565b6109d7565b005b6102cd60048036038101906102c89190613956565b610a37565b6040516102da91906143c6565b60405180910390f35b3480156102ef57600080fd5b506102f8610c17565b005b34801561030657600080fd5b50610321600480360381019061031c9190613956565b610e90565b60405161032e9190614389565b60405180910390f35b34801561034357600080fd5b5061035e600480360381019061035991906137c2565b610fd4565b005b34801561036c57600080fd5b50610375610ff4565b60405161038291906140ea565b60405180910390f35b34801561039757600080fd5b506103b260048036038101906103ad9190613956565b61142b565b6040516103bf919061405a565b60405180910390f35b3480156103d457600080fd5b506103dd6114b2565b6040516103ea91906143c6565b60405180910390f35b3480156103ff57600080fd5b5061041a6004803603810190610415919061375d565b6114bc565b60405161042791906143c6565b60405180910390f35b34801561043c57600080fd5b5061045760048036038101906104529190613956565b611574565b60405161046491906143ab565b60405180910390f35b34801561047957600080fd5b50610482611686565b60405161048f9190614127565b60405180910390f35b6104b260048036038101906104ad9190613956565b611718565b005b3480156104c057600080fd5b506104db60048036038101906104d6919061388c565b61190a565b005b3480156104e957600080fd5b5061050460048036038101906104ff91906138c8565b611920565b6040516105129291906140c1565b60405180910390f35b34801561052757600080fd5b50610542600480360381019061053d9190613811565b611981565b005b34801561055057600080fd5b5061056b60048036038101906105669190613956565b6119e3565b6040516105789190614389565b60405180910390f35b34801561058d57600080fd5b506105a860048036038101906105a3919061397f565b611b27565b6040516105b591906143c6565b60405180910390f35b6105d860048036038101906105d39190613956565b611cca565b005b3480156105e657600080fd5b5061060160048036038101906105fc9190613956565b611d64565b60405161060e9190614127565b60405180910390f35b34801561062357600080fd5b5061062c611e77565b60405161063991906143ab565b60405180910390f35b34801561064e57600080fd5b50610657611f96565b60405161066491906140ea565b60405180910390f35b34801561067957600080fd5b50610694600480360381019061068f9190613786565b6121be565b6040516106a1919061410c565b60405180910390f35b6106c460048036038101906106bf9190613a12565b612252565b6040516106d191906143c6565b60405180910390f35b3480156106e657600080fd5b506106ef6122e4565b6040516106fc91906143c6565b60405180910390f35b60007f80ac58cd000000000000000000000000000000000000000000000000000000007bffffffffffffffffffffffffffffffffffffffffffffffffffffffff1916827bffffffffffffffffffffffffffffffffffffffffffffffffffffffff191614806107d057507f5b5e139f000000000000000000000000000000000000000000000000000000007bffffffffffffffffffffffffffffffffffffffffffffffffffffffff1916827bffffffffffffffffffffffffffffffffffffffffffffffffffffffff1916145b806107e057506107df826122f5565b5b9050919050565b6060600080546107f690614701565b80601f016020809104026020016040519081016040528092919081815260200182805461082290614701565b801561086f5780601f106108445761010080835404028352916020019161086f565b820191906000526020600020905b81548152906001019060200180831161085257829003601f168201915b5050505050905090565b60006108848261235f565b6004600083815260200190815260200160002060009054906101000a900473ffffffffffffffffffffffffffffffffffffffff169050919050565b60006108ca8261142b565b90508073ffffffffffffffffffffffffffffffffffffffff168373ffffffffffffffffffffffffffffffffffffffff16141561093b576040517f08c379a000000000000000000000000000000000000000000000000000000000815260040161093290614309565b60405180910390fd5b8073ffffffffffffffffffffffffffffffffffffffff1661095a6123aa565b73ffffffffffffffffffffffffffffffffffffffff1614806109895750610988816109836123aa565b6121be565b5b6109c8576040517f08c379a00000000000000000000000000000000000000000000000000000000081526004016109bf90614329565b60405180910390fd5b6109d283836123b2565b505050565b6109e86109e26123aa565b8261246b565b610a27576040517f08c379a0000000000000000000000000000000000000000000000000000000008152600401610a1e90614149565b60405180910390fd5b610a32838383612500565b505050565b6000600a543414610a7d576040517f08c379a0000000000000000000000000000000000000000000000000000000008152600401610a74906142c9565b60405180910390fd5b6000341015610ac1576040517f08c379a0000000000000000000000000000000000000000000000000000000008152600401610ab890614369565b60405180910390fd5b6000600b600084815260200190815260200160002060020160009054906101000a900473ffffffffffffffffffffffffffffffffffffffff1690506000600b60008581526020019081526020016000206003015490506000610b24858385612252565b9050600f60003373ffffffffffffffffffffffffffffffffffffffff1673ffffffffffffffffffffffffffffffffffffffff16815260200190815260200160002060405180604001604052808573ffffffffffffffffffffffffffffffffffffffff16815260200134815250908060018154018082558091505060019003906000526020600020906002020160009091909190915060008201518160000160006101000a81548173ffffffffffffffffffffffffffffffffffffffff021916908373ffffffffffffffffffffffffffffffffffffffff160217905550602082015181600101555050809350505050919050565b6000805b600f60003373ffffffffffffffffffffffffffffffffffffffff1673ffffffffffffffffffffffffffffffffffffffff16815260200190815260200160002080549050811015610d9c57600f60003373ffffffffffffffffffffffffffffffffffffffff1673ffffffffffffffffffffffffffffffffffffffff1681526020019081526020016000208181548110610cdc577f4e487b7100000000000000000000000000000000000000000000000000000000600052603260045260246000fd5b90600052602060002090600202016001015482610cf991906145ad565b91506000600f60003373ffffffffffffffffffffffffffffffffffffffff1673ffffffffffffffffffffffffffffffffffffffff1681526020019081526020016000208281548110610d74577f4e487b7100000000000000000000000000000000000000000000000000000000600052603260045260246000fd5b9060005260206000209060020201600101819055508080610d9490614764565b915050610c1b565b5060008111610de0576040517f08c379a0000000000000000000000000000000000000000000000000000000008152600401610dd790614209565b60405180910390fd5b60003373ffffffffffffffffffffffffffffffffffffffff1682604051610e0690614045565b60006040518083038185875af1925050503d8060008114610e43576040519150601f19603f3d011682016040523d82523d6000602084013e610e48565b606091505b5050905080610e8c576040517f08c379a0000000000000000000000000000000000000000000000000000000008152600401610e8390614349565b60405180910390fd5b5050565b610e986134c1565b600b60008381526020019081526020016000206040518060a001604052908160008201548152602001600182018054610ed090614701565b80601f0160208091040260200160405190810160405280929190818152602001828054610efc90614701565b8015610f495780601f10610f1e57610100808354040283529160200191610f49565b820191906000526020600020905b815481529060010190602001808311610f2c57829003601f168201915b505050505081526020016002820160009054906101000a900473ffffffffffffffffffffffffffffffffffffffff1673ffffffffffffffffffffffffffffffffffffffff1673ffffffffffffffffffffffffffffffffffffffff168152602001600382015481526020016004820160009054906101000a900460ff1615151515815250509050919050565b610fef83838360405180602001604052806000815250611981565b505050565b6060600061100260076127fa565b9050600080600080600090505b84811015611128573373ffffffffffffffffffffffffffffffffffffffff16600c600060018461103f91906145ad565b815260200190815260200160002060020160009054906101000a900473ffffffffffffffffffffffffffffffffffffffff1673ffffffffffffffffffffffffffffffffffffffff16148061110057503373ffffffffffffffffffffffffffffffffffffffff16600c60006001846110b691906145ad565b815260200190815260200160002060030160009054906101000a900473ffffffffffffffffffffffffffffffffffffffff1673ffffffffffffffffffffffffffffffffffffffff16145b156111155760018461111291906145ad565b93505b808061112090614764565b91505061100f565b5060008367ffffffffffffffff81111561116b577f4e487b7100000000000000000000000000000000000000000000000000000000600052604160045260246000fd5b6040519080825280602002602001820160405280156111a457816020015b611191613508565b8152602001906001900390816111895790505b50905060005b8581101561141f573373ffffffffffffffffffffffffffffffffffffffff16600c60006001846111da91906145ad565b815260200190815260200160002060020160009054906101000a900473ffffffffffffffffffffffffffffffffffffffff1673ffffffffffffffffffffffffffffffffffffffff16148061129b57503373ffffffffffffffffffffffffffffffffffffffff16600c600060018461125191906145ad565b815260200190815260200160002060030160009054906101000a900473ffffffffffffffffffffffffffffffffffffffff1673ffffffffffffffffffffffffffffffffffffffff16145b1561140c576001816112ad91906145ad565b92506000600c60008581526020019081526020016000209050806040518060c001604052908160008201548152602001600182015481526020016002820160009054906101000a900473ffffffffffffffffffffffffffffffffffffffff1673ffffffffffffffffffffffffffffffffffffffff1673ffffffffffffffffffffffffffffffffffffffff1681526020016003820160009054906101000a900473ffffffffffffffffffffffffffffffffffffffff1673ffffffffffffffffffffffffffffffffffffffff1673ffffffffffffffffffffffffffffffffffffffff168152602001600482015481526020016005820160009054906101000a900460ff1615151515815250508386815181106113f0577f4e487b7100000000000000000000000000000000000000000000000000000000600052603260045260246000fd5b602002602001018190525060018561140891906145ad565b9450505b808061141790614764565b9150506111aa565b50809550505050505090565b60008061143783612808565b9050600073ffffffffffffffffffffffffffffffffffffffff168173ffffffffffffffffffffffffffffffffffffffff1614156114a9576040517f08c379a00000000000000000000000000000000000000000000000000000000081526004016114a0906142e9565b60405180910390fd5b80915050919050565b6000600a54905090565b60008073ffffffffffffffffffffffffffffffffffffffff168273ffffffffffffffffffffffffffffffffffffffff16141561152d576040517f08c379a000000000000000000000000000000000000000000000000000000000815260040161152490614249565b60405180910390fd5b600360008373ffffffffffffffffffffffffffffffffffffffff1673ffffffffffffffffffffffffffffffffffffffff168152602001908152602001600020549050919050565b61157c613508565b600c60008381526020019081526020016000206040518060c001604052908160008201548152602001600182015481526020016002820160009054906101000a900473ffffffffffffffffffffffffffffffffffffffff1673ffffffffffffffffffffffffffffffffffffffff1673ffffffffffffffffffffffffffffffffffffffff1681526020016003820160009054906101000a900473ffffffffffffffffffffffffffffffffffffffff1673ffffffffffffffffffffffffffffffffffffffff1673ffffffffffffffffffffffffffffffffffffffff168152602001600482015481526020016005820160009054906101000a900460ff1615151515815250509050919050565b60606001805461169590614701565b80601f01602080910402602001604051908101604052809291908181526020018280546116c190614701565b801561170e5780601f106116e35761010080835404028352916020019161170e565b820191906000526020600020905b8154815290600101906020018083116116f157829003601f168201915b5050505050905090565b6000600c60008381526020019081526020016000206004015490506000600c600084815260200190815260200160002060030160009054906101000a900473ffffffffffffffffffffffffffffffffffffffff1690508134146117b0576040517f08c379a00000000000000000000000000000000000000000000000000000000081526004016117a790614289565b60405180910390fd5b6001600c600085815260200190815260200160002060050160006101000a81548160ff02191690831515021790555033600c600085815260200190815260200160002060030160006101000a81548173ffffffffffffffffffffffffffffffffffffffff021916908373ffffffffffffffffffffffffffffffffffffffff16021790555061183e6008612845565b611849303385612500565b61185330846108bf565b600960009054906101000a900473ffffffffffffffffffffffffffffffffffffffff1673ffffffffffffffffffffffffffffffffffffffff166108fc600a549081150290604051600060405180830381858888f193505050501580156118bd573d6000803e3d6000fd5b508073ffffffffffffffffffffffffffffffffffffffff166108fc349081150290604051600060405180830381858888f19350505050158015611904573d6000803e3d6000fd5b50505050565b61191c6119156123aa565b838361285b565b5050565b600f602052816000526040600020818154811061193c57600080fd5b9060005260206000209060020201600091509150508060000160009054906101000a900473ffffffffffffffffffffffffffffffffffffffff16908060010154905082565b61199261198c6123aa565b8361246b565b6119d1576040517f08c379a00000000000000000000000000000000000000000000000000000000081526004016119c890614149565b60405180910390fd5b6119dd848484846129c8565b50505050565b6119eb6134c1565b600b60008381526020019081526020016000206040518060a001604052908160008201548152602001600182018054611a2390614701565b80601f0160208091040260200160405190810160405280929190818152602001828054611a4f90614701565b8015611a9c5780601f10611a7157610100808354040283529160200191611a9c565b820191906000526020600020905b815481529060010190602001808311611a7f57829003601f168201915b505050505081526020016002820160009054906101000a900473ffffffffffffffffffffffffffffffffffffffff1673ffffffffffffffffffffffffffffffffffffffff1673ffffffffffffffffffffffffffffffffffffffff168152602001600382015481526020016004820160009054906101000a900460ff1615151515815250509050919050565b6000600960009054906101000a900473ffffffffffffffffffffffffffffffffffffffff1673ffffffffffffffffffffffffffffffffffffffff163373ffffffffffffffffffffffffffffffffffffffff1614611b8357600080fd5b611b8d8583612a24565b6040518060a001604052808681526020018481526020018573ffffffffffffffffffffffffffffffffffffffff168152602001600a54815260200160001515815250600b6000878152602001908152602001600020600082015181600001556020820151816001019080519060200190611c0892919061356c565b5060408201518160020160006101000a81548173ffffffffffffffffffffffffffffffffffffffff021916908373ffffffffffffffffffffffffffffffffffffffff1602179055506060820151816003015560808201518160040160006101000a81548160ff0219169083151502179055509050507f56ba81f171a2a7053307158eaf38b2d2e453347f7b8c2818e5bba93e274cb3c8858486600a546000604051611cb7959493929190614434565b60405180910390a1849050949350505050565b3373ffffffffffffffffffffffffffffffffffffffff16600960009054906101000a900473ffffffffffffffffffffffffffffffffffffffff1673ffffffffffffffffffffffffffffffffffffffff1614611d5a576040517f08c379a0000000000000000000000000000000000000000000000000000000008152600401611d5190614229565b60405180910390fd5b80600a8190555050565b6060611d6f8261235f565b6000600660008481526020019081526020016000208054611d8f90614701565b80601f0160208091040260200160405190810160405280929190818152602001828054611dbb90614701565b8015611e085780601f10611ddd57610100808354040283529160200191611e08565b820191906000526020600020905b815481529060010190602001808311611deb57829003601f168201915b505050505090506000611e19612a50565b9050600081511415611e2f578192505050611e72565b600082511115611e64578082604051602001611e4c929190614021565b60405160208183030381529060405292505050611e72565b611e6d84612a67565b925050505b919050565b611e7f613508565b6000611e8b60076127fa565b9050600c60008281526020019081526020016000206040518060c001604052908160008201548152602001600182015481526020016002820160009054906101000a900473ffffffffffffffffffffffffffffffffffffffff1673ffffffffffffffffffffffffffffffffffffffff1673ffffffffffffffffffffffffffffffffffffffff1681526020016003820160009054906101000a900473ffffffffffffffffffffffffffffffffffffffff1673ffffffffffffffffffffffffffffffffffffffff1673ffffffffffffffffffffffffffffffffffffffff168152602001600482015481526020016005820160009054906101000a900460ff16151515158152505091505090565b60606000611fa460076127fa565b905060008167ffffffffffffffff811115611fe8577f4e487b7100000000000000000000000000000000000000000000000000000000600052604160045260246000fd5b60405190808252806020026020018201604052801561202157816020015b61200e613508565b8152602001906001900390816120065790505b50905060008080600090505b848110156121b35760018161204291906145ad565b91506000600c60008481526020019081526020016000209050806040518060c001604052908160008201548152602001600182015481526020016002820160009054906101000a900473ffffffffffffffffffffffffffffffffffffffff1673ffffffffffffffffffffffffffffffffffffffff1673ffffffffffffffffffffffffffffffffffffffff1681526020016003820160009054906101000a900473ffffffffffffffffffffffffffffffffffffffff1673ffffffffffffffffffffffffffffffffffffffff1673ffffffffffffffffffffffffffffffffffffffff168152602001600482015481526020016005820160009054906101000a900460ff161515151581525050858581518110612185577f4e487b7100000000000000000000000000000000000000000000000000000000600052603260045260246000fd5b602002602001018190525060018461219d91906145ad565b93505080806121ab90614764565b91505061202d565b508294505050505090565b6000600560008473ffffffffffffffffffffffffffffffffffffffff1673ffffffffffffffffffffffffffffffffffffffff16815260200190815260200160002060008373ffffffffffffffffffffffffffffffffffffffff1673ffffffffffffffffffffffffffffffffffffffff16815260200190815260200160002060009054906101000a900460ff16905092915050565b600061225e6007612845565b600061226a60076127fa565b90506122763382612acf565b84600d6000838152602001908152602001600020819055506122cd816040518060400160405280600481526020017f7961646100000000000000000000000000000000000000000000000000000000815250612aed565b6122d981868686612b61565b809150509392505050565b60006122f060076127fa565b905090565b60007f01ffc9a7000000000000000000000000000000000000000000000000000000007bffffffffffffffffffffffffffffffffffffffffffffffffffffffff1916827bffffffffffffffffffffffffffffffffffffffffffffffffffffffff1916149050919050565b61236881612ce6565b6123a7576040517f08c379a000000000000000000000000000000000000000000000000000000000815260040161239e906142e9565b60405180910390fd5b50565b600033905090565b816004600083815260200190815260200160002060006101000a81548173ffffffffffffffffffffffffffffffffffffffff021916908373ffffffffffffffffffffffffffffffffffffffff160217905550808273ffffffffffffffffffffffffffffffffffffffff166124258361142b565b73ffffffffffffffffffffffffffffffffffffffff167f8c5be1e5ebec7d5bd14f71427d1e84f3dd0314c0f7b2291e5b200ac8c7c3b92560405160405180910390a45050565b6000806124778361142b565b90508073ffffffffffffffffffffffffffffffffffffffff168473ffffffffffffffffffffffffffffffffffffffff1614806124b957506124b881856121be565b5b806124f757508373ffffffffffffffffffffffffffffffffffffffff166124df84610879565b73ffffffffffffffffffffffffffffffffffffffff16145b91505092915050565b8273ffffffffffffffffffffffffffffffffffffffff166125208261142b565b73ffffffffffffffffffffffffffffffffffffffff1614612576576040517f08c379a000000000000000000000000000000000000000000000000000000000815260040161256d90614189565b60405180910390fd5b600073ffffffffffffffffffffffffffffffffffffffff168273ffffffffffffffffffffffffffffffffffffffff1614156125e6576040517f08c379a00000000000000000000000000000000000000000000000000000000081526004016125dd906141c9565b60405180910390fd5b6125f38383836001612d27565b8273ffffffffffffffffffffffffffffffffffffffff166126138261142b565b73ffffffffffffffffffffffffffffffffffffffff1614612669576040517f08c379a000000000000000000000000000000000000000000000000000000000815260040161266090614189565b60405180910390fd5b6004600082815260200190815260200160002060006101000a81549073ffffffffffffffffffffffffffffffffffffffff02191690556001600360008573ffffffffffffffffffffffffffffffffffffffff1673ffffffffffffffffffffffffffffffffffffffff168152602001908152602001600020600082825403925050819055506001600360008473ffffffffffffffffffffffffffffffffffffffff1673ffffffffffffffffffffffffffffffffffffffff16815260200190815260200160002060008282540192505081905550816002600083815260200190815260200160002060006101000a81548173ffffffffffffffffffffffffffffffffffffffff021916908373ffffffffffffffffffffffffffffffffffffffff160217905550808273ffffffffffffffffffffffffffffffffffffffff168473ffffffffffffffffffffffffffffffffffffffff167fddf252ad1be2c89b69c2b068fc378daa952ba7f163c4a11628f55a4df523b3ef60405160405180910390a46127f58383836001612d2d565b505050565b600081600001549050919050565b60006002600083815260200190815260200160002060009054906101000a900473ffffffffffffffffffffffffffffffffffffffff169050919050565b6001816000016000828254019250508190555050565b8173ffffffffffffffffffffffffffffffffffffffff168373ffffffffffffffffffffffffffffffffffffffff1614156128ca576040517f08c379a00000000000000000000000000000000000000000000000000000000081526004016128c1906141e9565b60405180910390fd5b80600560008573ffffffffffffffffffffffffffffffffffffffff1673ffffffffffffffffffffffffffffffffffffffff16815260200190815260200160002060008473ffffffffffffffffffffffffffffffffffffffff1673ffffffffffffffffffffffffffffffffffffffff16815260200190815260200160002060006101000a81548160ff0219169083151502179055508173ffffffffffffffffffffffffffffffffffffffff168373ffffffffffffffffffffffffffffffffffffffff167f17307eab39ab6107e8899845ad3d59bd9653f200f220920489ca2b5937696c31836040516129bb919061410c565b60405180910390a3505050565b6129d3848484612500565b6129df84848484612d33565b612a1e576040517f08c379a0000000000000000000000000000000000000000000000000000000008152600401612a1590614169565b60405180910390fd5b50505050565b80600e60008481526020019081526020016000209080519060200190612a4b92919061356c565b505050565b606060405180602001604052806000815250905090565b6060612a728261235f565b6000612a7c612a50565b90506000815111612a9c5760405180602001604052806000815250612ac7565b80612aa684612eca565b604051602001612ab7929190614021565b6040516020818303038152906040525b915050919050565b612ae9828260405180602001604052806000815250612fee565b5050565b612af682612ce6565b612b35576040517f08c379a0000000000000000000000000000000000000000000000000000000008152600401612b2c90614269565b60405180910390fd5b80600660008481526020019081526020016000209080519060200190612b5c92919061356c565b505050565b6040518060c001604052808481526020018581526020013373ffffffffffffffffffffffffffffffffffffffff1681526020018273ffffffffffffffffffffffffffffffffffffffff16815260200183815260200160011515815250600c6000868152602001908152602001600020600082015181600001556020820151816001015560408201518160020160006101000a81548173ffffffffffffffffffffffffffffffffffffffff021916908373ffffffffffffffffffffffffffffffffffffffff16021790555060608201518160030160006101000a81548173ffffffffffffffffffffffffffffffffffffffff021916908373ffffffffffffffffffffffffffffffffffffffff1602179055506080820151816004015560a08201518160050160006101000a81548160ff021916908315150217905550905050827f221989d075551c406d943b84b1edaadcdb2a384e9e23070440b8c974ac54295c853384866001604051612cd89594939291906143e1565b60405180910390a250505050565b60008073ffffffffffffffffffffffffffffffffffffffff16612d0883612808565b73ffffffffffffffffffffffffffffffffffffffff1614159050919050565b50505050565b50505050565b6000612d548473ffffffffffffffffffffffffffffffffffffffff16613049565b15612ebd578373ffffffffffffffffffffffffffffffffffffffff1663150b7a02612d7d6123aa565b8786866040518563ffffffff1660e01b8152600401612d9f9493929190614075565b602060405180830381600087803b158015612db957600080fd5b505af1925050508015612dea57506040513d601f19601f82011682018060405250810190612de7919061392d565b60015b612e6d573d8060008114612e1a576040519150601f19603f3d011682016040523d82523d6000602084013e612e1f565b606091505b50600081511415612e65576040517f08c379a0000000000000000000000000000000000000000000000000000000008152600401612e5c90614169565b60405180910390fd5b805181602001fd5b63150b7a0260e01b7bffffffffffffffffffffffffffffffffffffffffffffffffffffffff1916817bffffffffffffffffffffffffffffffffffffffffffffffffffffffff191614915050612ec2565b600190505b949350505050565b606060006001612ed98461306c565b01905060008167ffffffffffffffff811115612f1e577f4e487b7100000000000000000000000000000000000000000000000000000000600052604160045260246000fd5b6040519080825280601f01601f191660200182016040528015612f505781602001600182028036833780820191505090505b509050600082602001820190505b600115612fe3578080600190039150507f3031323334353637383961626364656600000000000000000000000000000000600a86061a8153600a8581612fcd577f4e487b7100000000000000000000000000000000000000000000000000000000600052601260045260246000fd5b0494506000851415612fde57612fe3565b612f5e565b819350505050919050565b612ff883836132a3565b6130056000848484612d33565b613044576040517f08c379a000000000000000000000000000000000000000000000000000000000815260040161303b90614169565b60405180910390fd5b505050565b6000808273ffffffffffffffffffffffffffffffffffffffff163b119050919050565b600080600090507a184f03e93ff9f4daa797ed6e38ed64bf6a1f01000000000000000083106130f0577a184f03e93ff9f4daa797ed6e38ed64bf6a1f01000000000000000083816130e6577f4e487b7100000000000000000000000000000000000000000000000000000000600052601260045260246000fd5b0492506040810190505b6d04ee2d6d415b85acef81000000008310613153576d04ee2d6d415b85acef81000000008381613149577f4e487b7100000000000000000000000000000000000000000000000000000000600052601260045260246000fd5b0492506020810190505b662386f26fc1000083106131a857662386f26fc10000838161319e577f4e487b7100000000000000000000000000000000000000000000000000000000600052601260045260246000fd5b0492506010810190505b6305f5e10083106131f7576305f5e10083816131ed577f4e487b7100000000000000000000000000000000000000000000000000000000600052601260045260246000fd5b0492506008810190505b6127108310613242576127108381613238577f4e487b7100000000000000000000000000000000000000000000000000000000600052601260045260246000fd5b0492506004810190505b6064831061328b5760648381613281577f4e487b7100000000000000000000000000000000000000000000000000000000600052601260045260246000fd5b0492506002810190505b600a831061329a576001810190505b80915050919050565b600073ffffffffffffffffffffffffffffffffffffffff168273ffffffffffffffffffffffffffffffffffffffff161415613313576040517f08c379a000000000000000000000000000000000000000000000000000000000815260040161330a906142a9565b60405180910390fd5b61331c81612ce6565b1561335c576040517f08c379a0000000000000000000000000000000000000000000000000000000008152600401613353906141a9565b60405180910390fd5b61336a600083836001612d27565b61337381612ce6565b156133b3576040517f08c379a00000000000000000000000000000000000000000000000000000000081526004016133aa906141a9565b60405180910390fd5b6001600360008473ffffffffffffffffffffffffffffffffffffffff1673ffffffffffffffffffffffffffffffffffffffff16815260200190815260200160002060008282540192505081905550816002600083815260200190815260200160002060006101000a81548173ffffffffffffffffffffffffffffffffffffffff021916908373ffffffffffffffffffffffffffffffffffffffff160217905550808273ffffffffffffffffffffffffffffffffffffffff16600073ffffffffffffffffffffffffffffffffffffffff167fddf252ad1be2c89b69c2b068fc378daa952ba7f163c4a11628f55a4df523b3ef60405160405180910390a46134bd600083836001612d2d565b5050565b6040518060a001604052806000815260200160608152602001600073ffffffffffffffffffffffffffffffffffffffff168152602001600081526020016000151581525090565b6040518060c001604052806000815260200160008152602001600073ffffffffffffffffffffffffffffffffffffffff168152602001600073ffffffffffffffffffffffffffffffffffffffff168152602001600081526020016000151581525090565b82805461357890614701565b90600052602060002090601f01602090048101928261359a57600085556135e1565b82601f106135b357805160ff19168380011785556135e1565b828001600101855582156135e1579182015b828111156135e05782518255916020019190600101906135c5565b5b5090506135ee91906135f2565b5090565b5b8082111561360b5760008160009055506001016135f3565b5090565b600061362261361d846144b3565b61448e565b90508281526020810184848401111561363a57600080fd5b6136458482856146bf565b509392505050565b600061366061365b846144e4565b61448e565b90508281526020810184848401111561367857600080fd5b6136838482856146bf565b509392505050565b60008135905061369a81614cf8565b92915050565b6000813590506136af81614d0f565b92915050565b6000813590506136c481614d26565b92915050565b6000813590506136d981614d3d565b92915050565b6000815190506136ee81614d3d565b92915050565b600082601f83011261370557600080fd5b813561371584826020860161360f565b91505092915050565b600082601f83011261372f57600080fd5b813561373f84826020860161364d565b91505092915050565b60008135905061375781614d54565b92915050565b60006020828403121561376f57600080fd5b600061377d8482850161368b565b91505092915050565b6000806040838503121561379957600080fd5b60006137a78582860161368b565b92505060206137b88582860161368b565b9150509250929050565b6000806000606084860312156137d757600080fd5b60006137e58682870161368b565b93505060206137f68682870161368b565b925050604061380786828701613748565b9150509250925092565b6000806000806080858703121561382757600080fd5b60006138358782880161368b565b94505060206138468782880161368b565b935050604061385787828801613748565b925050606085013567ffffffffffffffff81111561387457600080fd5b613880878288016136f4565b91505092959194509250565b6000806040838503121561389f57600080fd5b60006138ad8582860161368b565b92505060206138be858286016136b5565b9150509250929050565b600080604083850312156138db57600080fd5b60006138e98582860161368b565b92505060206138fa85828601613748565b9150509250929050565b60006020828403121561391657600080fd5b6000613924848285016136ca565b91505092915050565b60006020828403121561393f57600080fd5b600061394d848285016136df565b91505092915050565b60006020828403121561396857600080fd5b600061397684828501613748565b91505092915050565b6000806000806080858703121561399557600080fd5b60006139a387828801613748565b94505060206139b4878288016136a0565b935050604085013567ffffffffffffffff8111156139d157600080fd5b6139dd8782880161371e565b925050606085013567ffffffffffffffff8111156139fa57600080fd5b613a068782880161371e565b91505092959194509250565b600080600060608486031215613a2757600080fd5b6000613a3586828701613748565b9350506020613a4686828701613748565b9250506040613a57868287016136a0565b9150509250925092565b6000613a6d8383613f0d565b60c08301905092915050565b613a8281614689565b82525050565b613a9181614615565b82525050565b613aa081614603565b82525050565b6000613ab182614525565b613abb8185614553565b9350613ac683614515565b8060005b83811015613af7578151613ade8882613a61565b9750613ae983614546565b925050600181019050613aca565b5085935050505092915050565b613b0d81614627565b82525050565b613b1c81614627565b82525050565b6000613b2d82614530565b613b378185614564565b9350613b478185602086016146ce565b613b508161483a565b840191505092915050565b6000613b668261453b565b613b708185614580565b9350613b808185602086016146ce565b613b898161483a565b840191505092915050565b6000613b9f8261453b565b613ba98185614591565b9350613bb98185602086016146ce565b613bc28161483a565b840191505092915050565b6000613bd88261453b565b613be281856145a2565b9350613bf28185602086016146ce565b80840191505092915050565b6000613c0b602d83614591565b9150613c168261484b565b604082019050919050565b6000613c2e603283614591565b9150613c398261489a565b604082019050919050565b6000613c51602583614591565b9150613c5c826148e9565b604082019050919050565b6000613c74601c83614591565b9150613c7f82614938565b602082019050919050565b6000613c97602483614591565b9150613ca282614961565b604082019050919050565b6000613cba601983614591565b9150613cc5826149b0565b602082019050919050565b6000613cdd601483614591565b9150613ce8826149d9565b602082019050919050565b6000613d00602383614591565b9150613d0b82614a02565b604082019050919050565b6000613d23602983614591565b9150613d2e82614a51565b604082019050919050565b6000613d46602e83614591565b9150613d5182614aa0565b604082019050919050565b6000613d69604083614591565b9150613d7482614aef565b604082019050919050565b6000613d8c602083614591565b9150613d9782614b3e565b602082019050919050565b6000613daf602383614591565b9150613dba82614b67565b604082019050919050565b6000613dd2601883614591565b9150613ddd82614bb6565b602082019050919050565b6000613df5602183614591565b9150613e0082614bdf565b604082019050919050565b6000613e18600083614575565b9150613e2382614c2e565b600082019050919050565b6000613e3b603d83614591565b9150613e4682614c31565b604082019050919050565b6000613e5e601083614591565b9150613e6982614c80565b602082019050919050565b6000613e81602283614591565b9150613e8c82614ca9565b604082019050919050565b600060a083016000830151613eaf6000860182614003565b5060208301518482036020860152613ec78282613b5b565b9150506040830151613edc6040860182613a88565b506060830151613eef6060860182614003565b506080830151613f026080860182613b04565b508091505092915050565b60c082016000820151613f236000850182614003565b506020820151613f366020850182614003565b506040820151613f496040850182613a88565b506060820151613f5c6060850182613a88565b506080820151613f6f6080850182614003565b5060a0820151613f8260a0850182613b04565b50505050565b60c082016000820151613f9e6000850182614003565b506020820151613fb16020850182614003565b506040820151613fc46040850182613a88565b506060820151613fd76060850182613a88565b506080820151613fea6080850182614003565b5060a0820151613ffd60a0850182613b04565b50505050565b61400c8161467f565b82525050565b61401b8161467f565b82525050565b600061402d8285613bcd565b91506140398284613bcd565b91508190509392505050565b600061405082613e0b565b9150819050919050565b600060208201905061406f6000830184613a97565b92915050565b600060808201905061408a6000830187613a97565b6140976020830186613a97565b6140a46040830185614012565b81810360608301526140b68184613b22565b905095945050505050565b60006040820190506140d66000830185613a97565b6140e36020830184614012565b9392505050565b600060208201905081810360008301526141048184613aa6565b905092915050565b60006020820190506141216000830184613b13565b92915050565b600060208201905081810360008301526141418184613b94565b905092915050565b6000602082019050818103600083015261416281613bfe565b9050919050565b6000602082019050818103600083015261418281613c21565b9050919050565b600060208201905081810360008301526141a281613c44565b9050919050565b600060208201905081810360008301526141c281613c67565b9050919050565b600060208201905081810360008301526141e281613c8a565b9050919050565b6000602082019050818103600083015261420281613cad565b9050919050565b6000602082019050818103600083015261422281613cd0565b9050919050565b6000602082019050818103600083015261424281613cf3565b9050919050565b6000602082019050818103600083015261426281613d16565b9050919050565b6000602082019050818103600083015261428281613d39565b9050919050565b600060208201905081810360008301526142a281613d5c565b9050919050565b600060208201905081810360008301526142c281613d7f565b9050919050565b600060208201905081810360008301526142e281613da2565b9050919050565b6000602082019050818103600083015261430281613dc5565b9050919050565b6000602082019050818103600083015261432281613de8565b9050919050565b6000602082019050818103600083015261434281613e2e565b9050919050565b6000602082019050818103600083015261436281613e51565b9050919050565b6000602082019050818103600083015261438281613e74565b9050919050565b600060208201905081810360008301526143a38184613e97565b905092915050565b600060c0820190506143c06000830184613f88565b92915050565b60006020820190506143db6000830184614012565b92915050565b600060a0820190506143f66000830188614012565b6144036020830187613a79565b6144106040830186613a79565b61441d6060830185614012565b61442a6080830184613b13565b9695505050505050565b600060a0820190506144496000830188614012565b818103602083015261445b8187613b94565b905061446a6040830186613a79565b6144776060830185614012565b6144846080830184613b13565b9695505050505050565b60006144986144a9565b90506144a48282614733565b919050565b6000604051905090565b600067ffffffffffffffff8211156144ce576144cd61480b565b5b6144d78261483a565b9050602081019050919050565b600067ffffffffffffffff8211156144ff576144fe61480b565b5b6145088261483a565b9050602081019050919050565b6000819050602082019050919050565b600081519050919050565b600081519050919050565b600081519050919050565b6000602082019050919050565b600082825260208201905092915050565b600082825260208201905092915050565b600081905092915050565b600082825260208201905092915050565b600082825260208201905092915050565b600081905092915050565b60006145b88261467f565b91506145c38361467f565b9250827fffffffffffffffffffffffffffffffffffffffffffffffffffffffffffffffff038211156145f8576145f76147ad565b5b828201905092915050565b600061460e8261465f565b9050919050565b60006146208261465f565b9050919050565b60008115159050919050565b60007fffffffff0000000000000000000000000000000000000000000000000000000082169050919050565b600073ffffffffffffffffffffffffffffffffffffffff82169050919050565b6000819050919050565b60006146948261469b565b9050919050565b60006146a6826146ad565b9050919050565b60006146b88261465f565b9050919050565b82818337600083830152505050565b60005b838110156146ec5780820151818401526020810190506146d1565b838111156146fb576000848401525b50505050565b6000600282049050600182168061471957607f821691505b6020821081141561472d5761472c6147dc565b5b50919050565b61473c8261483a565b810181811067ffffffffffffffff8211171561475b5761475a61480b565b5b80604052505050565b600061476f8261467f565b91507fffffffffffffffffffffffffffffffffffffffffffffffffffffffffffffffff8214156147a2576147a16147ad565b5b600182019050919050565b7f4e487b7100000000000000000000000000000000000000000000000000000000600052601160045260246000fd5b7f4e487b7100000000000000000000000000000000000000000000000000000000600052602260045260246000fd5b7f4e487b7100000000000000000000000000000000000000000000000000000000600052604160045260246000fd5b6000601f19601f8301169050919050565b7f4552433732313a2063616c6c6572206973206e6f7420746f6b656e206f776e6560008201527f72206f7220617070726f76656400000000000000000000000000000000000000602082015250565b7f4552433732313a207472616e7366657220746f206e6f6e20455243373231526560008201527f63656976657220696d706c656d656e7465720000000000000000000000000000602082015250565b7f4552433732313a207472616e736665722066726f6d20696e636f72726563742060008201527f6f776e6572000000000000000000000000000000000000000000000000000000602082015250565b7f4552433732313a20746f6b656e20616c7265616479206d696e74656400000000600082015250565b7f4552433732313a207472616e7366657220746f20746865207a65726f2061646460008201527f7265737300000000000000000000000000000000000000000000000000000000602082015250565b7f4552433732313a20617070726f766520746f2063616c6c657200000000000000600082015250565b7f4e6f2066756e647320746f207769746864726177000000000000000000000000600082015250565b7f4f6e6c79206f776e65722063616e20757064617465206c697374696e6720707260008201527f6963650000000000000000000000000000000000000000000000000000000000602082015250565b7f4552433732313a2061646472657373207a65726f206973206e6f74206120766160008201527f6c6964206f776e65720000000000000000000000000000000000000000000000602082015250565b7f45524337323155524953746f726167653a2055524920736574206f66206e6f6e60008201527f6578697374656e7420746f6b656e000000000000000000000000000000000000602082015250565b7f506c65617365207375626d6974207468652061736b696e67207072696365206960008201527f6e206f7264657220746f20636f6d706c65746520746865207075726368617365602082015250565b7f4552433732313a206d696e7420746f20746865207a65726f2061646472657373600082015250565b7f486f706566756c6c792073656e64696e672074686520636f727265637420707260008201527f6963650000000000000000000000000000000000000000000000000000000000602082015250565b7f4552433732313a20696e76616c696420746f6b656e2049440000000000000000600082015250565b7f4552433732313a20617070726f76616c20746f2063757272656e74206f776e6560008201527f7200000000000000000000000000000000000000000000000000000000000000602082015250565b50565b7f4552433732313a20617070726f76652063616c6c6572206973206e6f7420746f60008201527f6b656e206f776e6572206f7220617070726f76656420666f7220616c6c000000602082015250565b7f5472616e73666572206661696c65642e00000000000000000000000000000000600082015250565b7f4d616b652073757265207468652070726963652069736e2774206e656761746960008201527f7665000000000000000000000000000000000000000000000000000000000000602082015250565b614d0181614603565b8114614d0c57600080fd5b50565b614d1881614615565b8114614d2357600080fd5b50565b614d2f81614627565b8114614d3a57600080fd5b50565b614d4681614633565b8114614d5157600080fd5b50565b614d5d8161467f565b8114614d6857600080fd5b5056fea26469706673582212202afee151f1eb9916284a59b70dd6086d020af9d15a017eabbddec0e554d7f79164736f6c63430008040033",
  "linkReferences": {},
  "deployedLinkReferences": {}
}